:1000000000000120DD42000005430000074300001E
:10001000094300000B4300000D43000000000000F6
:100020000000000000000000000000000F4300007E
:1000300011430000000000001343000015430000BE
:1000400017430000174300009952000017430000B7
:10005000015D0000174300007166000017430000B7
:100060001743000017430000174300001743000028
:100070001743000017430000174300001743000018
:100080001743000017430000174300001743000008
:1000900017430000174300001743000017430000F8
:1000A00017430000174300001743000017430000E8
:1000B000174300001743000000000000000000008C
:1000C000174300001743000017430000E55D0000E0
:1000D0001743000017430000174300000000000012
:1000E0000000000000000000000000000000000010
:1000F0000000000000000000000000000000000000
:1001000000000000000000000000000000000000EF
:1001100000000000000000000000000000000000DF
:1001200000000000000000000000000000000000CF
:1001300000000000000000000000000000000000BF
:1001400000000000000000000000000000000000AF
:10015000000000000000000000000000000000009F
:10016000000000000000000000000000000000008F
:10017000000000000000000000000000000000007F
:10018000000000000000000000000000000000006F
:10019000000000000000000000000000000000005F
:1001A000000000000000000000000000000000004F
:1001B000000000000000000000000000000000003F
:1001C000000000000000000000000000000000002F
:1001D000000000000000000000000000000000001F
:1001E000000000000000000000000000000000000F
:1001F00000000000000000000000000000000000FF
:100200000348044B834202D0034B03B118477047A5
:10021000F4080020F4080020000000000548064B08
:100220001B1AD90F01EBA301491002D0034B03B1F4
:1002300018477047F4080020F40800200000000070
:1002400010B5064C237843B9FFF7DAFF044B13B11E
:100250000448AFF300800123237010BDF80800208C
:10026000000000004417010008B5054B1BB105490B
:100270000548AFF30080BDE80840FFF7CFBF00BFDF
:1002800000000000FC08002044170100A3F5803A9C
:10029000704700BF174B002B08BF134B9D46FFF75D
:1002A000F5FF00218B460F461348144A121A07F037
:1002B000A3F90E4B002B00D098470D4B002B00D01C
:1002C00098470020002104000D000D48002802D0AE
:1002D0000C4807F0A3FB07F0D3F92000290000F039
:1002E000C3F806F081FF00BF000008000000000016
:1002F0000000000000000120F80800205C11002030
:100300001D7A0000BDBE00000A4608B5014624481B
:10031000244E254D254C06F085FF002000F08EFA76
:100320003268234600BF00BF00BF00BF00BF00BF50
:1003300000BF00BFAA422FD000BF00BF00BF00BF58
:1003400000BF00BF00BF00BF00BF00BF00BF00BFB5
:1003500000BF00BF00BF00BF00BF00BF00BF00BFA5
:1003600000BF00BF00BF00BF00BF00BF00BF00BF95
:1003700000BF00BF00BF00BF00BF00BF00BF00BF85
:1003800000BF00BF00BF00BF00BF00BF00BF00BF75
:1003900000BF00BF00BF00BF013BC3D1BDE700BF2E
:1003A000AC0C01003C0000200024F400A0860100F9
:1003B000014608B52348244E244D254C06F032FF53
:1003C000002000F03BFA3268234600BF00BF00BFA8
:1003D00000BF00BF00BF00BF00BFAA422FD000BFB8
:1003E00000BF00BF00BF00BF00BF00BF00BF00BF15
:1003F00000BF00BF00BF00BF00BF00BF00BF00BF05
:1004000000BF00BF00BF00BF00BF00BF00BF00BFF4
:1004100000BF00BF00BF00BF00BF00BF00BF00BFE4
:1004200000BF00BF00BF00BF00BF00BF00BF00BFD4
:1004300000BF00BF00BF00BF00BF00BF00BF013B47
:10044000C3D1BDE7D00C01003C0000200024F40023
:10045000A086010008B50378022B02D0012B00D042
:1004600008BD4068FFF7A4FF10B58AB000F0F8F9A6
:10047000274C002000F0A2F9022000F09FF90FCCD9
:100480000DF1100CACE80F0094E80300214B009331
:100490004FF480748CE803001819CDE901401E4A1E
:1004A00003940723694604A804F028F908B1FFF76C
:1004B0007FFF0446194806F029FF4FF0A043C3F818
:1004C0004C4703F05FFD03F0EFFD012002F02CFF2D
:1004D000013018D003F04CFE114800F0FDFA44F250
:1004E000480000F0CDFC44F2480000F0DDFC642040
:1004F00001F084FF204602F00FFD0A4806F006FFD7
:1005000000F0CAF8FCE7084806F000FFFEE700BF6D
:100510001C1001001409002055040000F00C01001B
:1005200004000020400D01001C0D010030B54FF407
:10053000804285B000210F2000F0D6FF002110205E
:1005400000F00EFF504CC0F309010022204600F0DD
:10055000FFFC4E4B0022A27020681968884201D02F
:1005600005B030BD606859688842F9D12089198981
:100570008842F5D102A800F035FE9DF80C109DF8D8
:100580000B0040EA01209DF80A1041EA00219DF885
:100590000900C1F3074540EA01209DF80810E56114
:1005A00041EA0021080A40EA056000F54E2000F506
:1005B0008060A161019102F05FF935480199334BE8
:1005C000B4F820E0091845F1000044F2480C6FF33C
:1005D000080111EB0C014FF048054FF0000200F04C
:1005E000FF0040F1000065F307020D0A45EA0065CF
:1005F00065F30F220D0CB3F824C045EA0045090E3F
:1006000041EA002165F31742E64461F31F62C3F833
:100610001A20A169C3F816100EF2E73292B240F226
:10062000CE718A4288BFCCF1000294F8220088BFC4
:100630009A8498731749A4F820E000221820A3F8A0
:1006400020E000F041FC18200122002100F066FCAF
:10065000012002F021F988B900210F2000F080FE6E
:100660000306F9D5802200210F2000F03DFF94F809
:100670002230013384F8223005B030BD05B0BDE82A
:10068000304002F0B1BD00BF180B00201000002068
:100690000000E40C1C00002010B5002002F0CCFB90
:1006A0000A4C00210F2000F05BFE2042F9D010F42C
:1006B000804103D0FFF73AFF002010BD044A0F200D
:1006C00000F012FF02F090FD002010BD00D02724A2
:1006D0000090052408B5012001F078FF2B4D2C4C2B
:1006E000002002F0A9FB00210F2000F039FE20427B
:1006F000F9D010F4804141D0FFF718FF254B2A684C
:10070000254900BF00BF00BF00BF00BF00BF00BF42
:1007100000BF8A422FD000BF00BF00BF00BF00BF94
:1007200000BF00BF00BF00BF00BF00BF00BF00BFD1
:1007300000BF00BF00BF00BF00BF00BF00BF00BFC1
:1007400000BF00BF00BF00BF00BF00BF00BF00BFB1
:1007500000BF00BF00BF00BF00BF00BF00BF00BFA1
:1007600000BF00BF00BF00BF00BF00BF00BF00BF91
:1007700000BF00BF00BF013BC3D1B1E7074A0F2054
:1007800000F0B2FE02F030FDB8E700BF3C000020F0
:1007900000D02724803801000024F40000900524B4
:1007A0004FF0A042044B1B5CD2F80405D840C04374
:1007B00000F00100704700BF34100100044A115CD2
:1007C00001234FF0A0428B40C2F80C35704700BFA8
:1007D00034100100044A115C01234FF0A0428B4009
:1007E000C2F80835704700BF341001004FF0A04335
:1007F0004FF0804C4FF000404FF480014FF48042A6
:10080000C3F808C5C3F80805C3F80815C3F80825D8
:10081000704700BF4FF0A0434FF0804C4FF00040B6
:100820004FF480014FF48042C3F80CC5C3F80C05A7
:10083000C3F80C15C3F80C25704700BF074B4FF0E9
:10084000A041185CD1F804350122824022EA03005D
:100850001340C1F80805C1F80C3570473410010089
:100860004FF0A0430322C3F878274FF0804CC3F821
:100870007C274FF00040C3F858274FF48001C3F89D
:1008800038274FF48042C3F808C5C3F80805C3F8F9
:100890000815C3F808257047014B185C704700BF66
:1008A000341001001E2809D01F2809D0162809D0AD
:1008B0000E2814BF4FF0FF30032070470020704710
:1008C0000120704702207047054B4FF0A0420344BF
:1008D000D2F810051B79D840C04300F001007047E2
:1008E000341001004FF0A0430C22C3F83427C3F8A2
:1008F0003827C3F83C27C3F8402770470D2809D094
:100900000E2809D00F2809D0102814BF4FF0FF304F
:100910000320704700207047012070470220704775
:10092000014B0344187970473410010040B1064B65
:10093000064AC0EBC00003EBC00313600020704701
:100940004FF0FF30704700BF3C0B00203800002004
:10095000014B1B68587A70473800002000B502220E
:1009600083B070B142F2F66040F6743CADF804001A
:100970006B4601A91046ADF800C003F0C5FA03B0FC
:1009800000BD42F2F66CADF800006B4601A91046BE
:10099000ADF804C003F0B8FA03B000BD30B583B0C1
:1009A00026238DF80030042201AB04460D460120B9
:1009B000694603F065FA9DF807309DF806209DF81A
:1009C000040002EB03229DF8053003EB022300EB49
:1009D000032020F47C200CB140F480200DB140F4C1
:1009E000A0304FF0A60C019001AB04226946012013
:1009F0008DF800C003F088FA03B030BD00B50143A4
:100A000083B0080C40F6E60CADF800108DF802003B
:100A10006B46032201A90220ADF804C003F074FA6A
:100A200003B000BD00B5014383B0080C40F6E64CAE
:100A3000ADF800108DF802006B46032201A90220D8
:100A4000ADF804C003F060FA03B000BD014B1B68B1
:100A50001868704738000020014B1B6858687047C1
:100A60003800002000B583B04FF0000C01AB6946A0
:100A7000042201208DF800C003F002FA9DF807104F
:100A80009DF806209DF805309DF8040002EB012238
:100A900003EB022300EB032003B000BD10B582B0CE
:100AA00002788DF8002040F6EA33ADF8043001A951
:100AB0006B4604460122022003F026FA04229E20FF
:100AC00064688DF800000DEB020369460120019473
:100AD00003F01AFA02B010BD2DE9F043D24B42796F
:100AE000D24D4778067833F81280C1792A68072EEC
:100AF00018BF042E07F1FF37536983B00446FFB2D5
:100B00000CBF4FF001094FF00009002940F062814D
:100B100043F480034FEAD808217A117261F311433C
:100B20005361019384238DF80030042201AB6946A0
:100B3000012003F0E9F948F2EE43ADF80430502308
:100B40008DF8063002226B4601A90320ADF8008023
:100B500003F0DAF96D238DF80030102348F2EE68C7
:100B60008DF8063001226B4601A90320ADF8048000
:100B700003F0CAF9ADF80480002F00F02E8140F296
:100B80000763ADF8003030238DF8063002226B4643
:100B900001A9032003F0B8F9A54B13F80680A54B73
:100BA00053F82830019340F2EB73ADF80030042283
:100BB00001AB6946022003F0A7F99F4B13F80830F8
:100BC0008DF8003040F6EB33ADF8043001226B466F
:100BD00001A9022003F098F9984B13F809308DF819
:100BE000003040F6E833ADF8043001226B4601A92D
:100BF000022003F089F9924B53F82830019340F614
:100C0000E843ADF80030042201AB6946022003F04E
:100C10007BF9E079A3798B4903EB4003022231F899
:100C20001330ADF8003040F2E723ADF8043001A9ED
:100C30006B46104603F068F9834B33F81730ADF874
:100C40000030022240F2E743ADF8043001A96B46C0
:100C5000104603F059F9E379002B00F0D780A37810
:100C6000042B4FF0020200F0BB802023ADF80030CF
:100C700040F2E763ADF8043001A96B46104603F07B
:100C800043F928238DF8003042F2E763ADF80430D1
:100C900001226B4601A9022003F036F9E3786B4A82
:100CA00003EB8703694652F82330019340F6E703CC
:100CB000ADF80030042201AB022003F025F963896E
:100CC000002B00F09D801A0A8DF800308DF801206D
:100CD00042F2E7030222DFF87881ADF8043001A97F
:100CE0006B46104603F010F940F6E343ADF80030D0
:100CF000D8F80030019308EB470801AB042269469D
:100D0000022003F001F9B8F80430ADF800300222F7
:100D100040F2E343ADF8043001A96B46104603F0FE
:100D2000F3F8A079002840F09580014694F805C0BA
:100D30006778227906F00F03360143EACC63F6B2F6
:100D4000BF0407F440273343920502F0F8623B43A7
:100D5000134303430B438DF804301A0C1B0E8DF81C
:100D600007309F2300268DF806208DF80030694655
:100D700001AB042201208DF8056003F0C5F863780B
:100D8000A27829681A43E3795B0343EA0243CB6004
:100D90001A0A88211B0C8DF805208DF806308DF875
:100DA000001001AB6946042201208DF804608DF823
:100DB000076003F0A9F801228D208DF80400422479
:100DC0006B4601A910468DF8004003F09DF803B072
:100DD000BDE8F08323F480039EE641F20763D0E68A
:100DE00040F2E7634FF01008ADF8043001A96B46FC
:100DF0001046ADF8008003F087F88DF8008043E7D7
:100E000041F241036381102241235DE76423022202
:100E1000ADF8003040F2E763ADF8043001A96B464D
:100E2000104603F071F839E7B810010038000020CF
:100E300064110100341101002C110100281101007E
:100E40004C110100101101000C110100EC10010007
:100E500020110100094AE379D35C8DF800300122AA
:100E6000A1238DF8043001A96B46104603F04CF81D
:100E70004FF400304FF4401158E700BF1C1101003F
:100E800000B583B048F2EE414FF0300CADF80000F1
:100E9000ADF804106B46022201A903208DF806C0AC
:100EA00003F032F803B000BD00B583B04FF0980CEA
:100EB000ADF800006B46022201A901208DF804C0A4
:100EC00003F022F803B000BD1318B3F5806F22DCE5
:100ED00000B5A0F1020C83B07AB1C9237F2A8DF846
:100EE00004300FD88DF8052002200B46624601A978
:100EF00003F00AF8002003B000BD89238DF8043008
:100F00000120F2E762F07F03D2098DF805308DF8F9
:100F100006200320E9E74FF0FF3070470B4B00B588
:100F20001B68DB6843EAC23383B0034343EA815062
:100F30004FF0880C019001AB0422694601208DF826
:100F400000C002F0E1FF03B000BD00BF3800002088
:100F500000B5034683B04AB911228DF80420012060
:100F60000A4601A902F08CFF03B000BD51207F2A80
:100F70008DF8040008D88DF8052002200A4601A942
:100F800002F07EFF03B000BD62F07F004FEAD21C8A
:100F90008DF805000A46032001A98DF806C002F06D
:100FA0006FFF03B000BD00BF70B582B0362314469A
:100FB0008DF8043002226B4605460E46012001A939
:100FC00002F05EFFB6238DF804309DF8003023F068
:100FD0004C0343F048038DF800309DF801300122A6
:100FE00063F07F038DF8013001A96B46104602F0D3
:100FF0008BFF4FF4FB73ADF8043001220DF10103B8
:1010000001A9022002F080FF7CBB25238DF804306B
:1010100001202B46324601A902F032FF36216B46F1
:101020008DF80410022201A9012002F029FFBDF869
:10103000003023F400430122B62123F04C038DF845
:101040000410ADF8003001A96B46104602F05CFFB9
:1010500001224FF4FB740DEB020301A90220ADF84D
:10106000044002F051FF02B070BD65237F2C8DF863
:10107000043003D88DF805400220CAE764F07F03EE
:10108000E4098DF805308DF806400320C1E700BF64
:1010900000B583B042F6670C6B46032201A902201B
:1010A000ADF804C002F0ECFEBDF801309DF8000080
:1010B00000EB0320DB0446BF6FEA00306FEA10301C
:1010C000C0F3140003B000BD10B582B0022240F29C
:1010D00055530446ADF8043001A96B46104602F0A2
:1010E000CFFEBDF80010E1812E238DF8043001A958
:1010F0006B460222012002F0C3FE2346BDF8002009
:1011000023F8042B12228DF8042001A908220120C3
:1011100002F0B6FE022240F25573ADF8043001A988
:101120006B46104602F0ACFEBDF80030638004222E
:1011300010200DEB02038DF800006946012002F03B
:101140009FFE9DF807209DF8063003EB0223C3F3B2
:101150000B13A38102B010BD00B583B003464FF05E
:10116000170C052201A901208DF804C002F088FEA9
:1011700003B000BD00B583B040F2571C01AB694617
:1011800004220220ADF800C002F07AFE9DF807109C
:101190009DF806209DF805309DF8040002EB012221
:1011A00003EB022300EB032003B000BD00B583B0C6
:1011B0004FF0170C01AB6946042201208DF800C0E6
:1011C00002F05EFE9DF807109DF806209DF80530A0
:1011D0009DF8040002EB012203EB022300EB032045
:1011E00003B000BD00B583B003464FF0150C0522D7
:1011F00001A901208DF804C002F042FE03B000BD39
:1012000000B583B040F2551C01AB694604220220B0
:10121000ADF800C002F034FE9DF807109DF80620DE
:101220009DF805309DF8040002EB012203EB022338
:1012300000EB032003B000BD00B583B04FF0150CE8
:1012400001AB6946042201208DF800C002F018FEAF
:101250009DF807109DF806209DF805309DF80400C4
:1012600002EB012203EB022300EB032003B000BDDD
:1012700000B583B04FF4A37C01AB69460422022081
:10128000ADF800C002F0FCFD9DF807109DF80620A7
:101290009DF805309DF8040002EB012203EB0223C8
:1012A00000EB032003B000BD00B583B003464FF050
:1012B000060C052201A901208DF804C002F0E0FD12
:1012C00003B000BD00B583B049B960F07F008DF870
:1012D000040001A9012002F017FE03B000BD60F078
:1012E0003F007F298DF8040007D88DF805100220F3
:1012F00001A902F009FE03B000BD61F07F00C90939
:101300008DF805008DF80610032001A902F0FCFD00
:1013100003B000BD00B583B039B98DF8040001A950
:10132000012002F0ADFD03B000BD40F040007F2978
:101330008DF8040007D88DF80510022001A902F0ED
:101340009FFD03B000BD61F07F00C9098DF8050065
:101350008DF80610032001A902F092FD03B000BD34
:1013600000B58BB283B0BBB98DF80000012001AB92
:101370006946042202F084FD9DF807109DF80620BE
:101380009DF805309DF8040002EB012203EB0223D7
:1013900000EB032003B000BD40F040007F2B8DF830
:1013A000000003D88DF801100220E0E761F07F0112
:1013B000DB098DF801108DF802300320D7E700BF5C
:1013C00000B58BB283B05BB98DF8040001206B4689
:1013D000022201A902F054FDBDF8000003B000BDD7
:1013E00040F040007F2B8DF8040003D88DF80510E5
:1013F0000220ECE761F07F01DB098DF805108DF824
:1014000006300320E3E700BF00B58BB283B063B9B9
:101410008DF8040001200DF10303012201A902F05F
:101420002FFD9DF8030003B000BD40F040007F2B6E
:101430008DF8040003D88DF805100220EBE761F069
:101440007F01DB098DF805108DF806300320E2E7F7
:1014500000B585B08BB28DF8072063B960F07F00CE
:101460008DF80C0001200DF10703012203A902F001
:101470004BFD05B000BD60F03F007F2B8DF80C00E8
:1014800003D88DF80D100220EDE761F07F01DB0934
:101490008DF80D108DF80E300320E4E700B583B011
:1014A0008BB2ADF800205BB960F07F008DF80400CE
:1014B00001206B46022201A902F026FD03B000BD07
:1014C00060F03F007F2B8DF8040003D88DF80510E5
:1014D0000220EEE761F07F01DB098DF805108DF841
:1014E00006300320E5E700BF00B583B08BB2019260
:1014F0005BB960F07F008DF80000012001AB042291
:10150000694602F001FD03B000BD60F03F007F2B93
:101510008DF8000003D88DF801100220EEE761F08D
:101520007F01DB098DF801108DF802300320E5E71B
:1015300010B5042282B00DEB020304466946012077
:101540008DF8002002F09CFC9DF807209DF80630E5
:1015500003EB02239DF8052002EB03229DF80430E3
:1015600003EB0223ACB10C4904F4FF7219400A43A7
:1015700042F00102094B196884244A6101AB0192CF
:101580006946042201208DF8004002F0BDFC02B043
:1015900010BD034A1A40EDE701FE47F03800002075
:1015A000FEFF47F000B583B0022240F2C32CADF835
:1015B00000006B4601A91046ADF804C002F0A4FC7F
:1015C00003B000BD00B583B04FF0830CADF8000050
:1015D0006B46022201A901208DF804C002F094FCA0
:1015E00003B000BD00B583B003464FF0810C082264
:1015F00001A901208DF804C002F086FC03B000BDF3
:1016000000B583B003460822012001A98DF804002B
:1016100002F036FC03B000BD2DE9F04383B0362361
:1016200090468DF8043002226B4604460F46012096
:1016300001A902F025FCB6238DF804309DF8003096
:10164000012223F0030313438DF8003001A96B46F8
:10165000104602F059FC4FF4FB73ADF80430012240
:101660000DF1010301A9022002F04EFCB8F1000FB8
:1016700038D0043F002540F2ED4902226B4601A913
:101680001046ADF80040ADF8049002F03DFC032098
:1016900040F2ED666B46012201A98DF800000220A0
:1016A000ADF8046002F030FC002001226B4601A975
:1016B0008DF800000220ADF8046002F025FC042241
:1016C0000DEB020340F66D26694602200135ADF8A8
:1016D000006002F0D5FB019B47F8043F454504F14B
:1016E0000104CAD136226B468DF8042001A90222DA
:1016F000012002F0C5FB00218DF800109DF80110BB
:1017000021F0010101228DF80110B6216B468DF800
:101710000410104601A902F0F7FB01224FF4FB74FC
:101720000DEB020301A90220ADF8044002F0ECFB2E
:1017300003B0BDE8F08300BF10B582B0022240F2D2
:10174000ED41ADF800006B46ADF80410104601A95C
:1017500002F0DAFB032240F2ED646B468DF80020C4
:1017600001A901220220ADF8044002F0CDFB0021C6
:101770006B468DF80010012201A90220ADF804404B
:1017800002F0C2FB04220DEB0203694640F66D2411
:101790000220ADF8004002F073FB9DF807109DF8A1
:1017A00006209DF805309DF8040002EB012203EBB2
:1017B000022300EB032002B010BD00BF2DE9F04F63
:1017C00087B003238DF8143000F00F0540F2ED765A
:1017D00005AB012204A90220ADF8106002F094FBD1
:1017E000052D04DD4FF0FF3007B0BDE8F08F8D4BC5
:1017F00003EB850433F825C0278EA469ADF814C027
:101800004FF0AD0905AB022204A901204FF0080BEF
:101810000197009440F2ED6702248DF8109002F0D9
:1018200073FB05AB012204A902208DF814B0ADF8BA
:10183000107002F069FB05AB012204A92046ADF847
:1018400010608DF8144002F05FFB6FF077018DF8A7
:10185000141005AB012204A920464FF0800AADF810
:10186000107002F051FB05AB012204A920464FF095
:1018700000088DF814A0ADF8107002F045FB05AB20
:10188000012204A92046ADF810708DF8148002F0F2
:101890003BFB05238DF81430012205AB04A920463B
:1018A000ADF8106002F030FB009A8DF8142005AB03
:1018B000224604A901208DF815808DF8109002F0C1
:1018C00023FB05AB012204A920468DF814B0ADF826
:1018D000107002F019FB4FF004028DF8142005ABD4
:1018E000012204A92046ADF8106002F00DFB6FF054
:1018F00077018DF8141005AB012204A92046ADF83C
:10190000107002F001FB05AB012204A920468DF8FE
:1019100014A0ADF810704FF0010A02F0F5FA05AB13
:10192000012204A920468DF81480ADF8107002F051
:10193000EBFA05AB524604A92046ADF810608DF8CD
:1019400014A002F0E1FA019BADF81430224605AB79
:1019500004A950468DF8109002F0D6FA05AB524615
:1019600004A920468DF814B0ADF8107002F0CCFA3E
:101970000A2002F065FC05AB524604A920468DF80A
:101980001480ADF8106002F0BFFA05AB524604A90E
:1019900020468DF814A0ADF8107002F0B5FA05AB32
:1019A000524604A920468DF81440ADF8106002F0AC
:1019B000ABFA4FF0040205AB04A98DF814202046C1
:1019C0005246ADF8106002F09FFA642002F038FC35
:1019D00005AB524604A92046ADF810608DF814807E
:1019E00002F092FA05AB524604A920468DF8148005
:1019F000ADF81070013D02F087FA0A2002F020FCD9
:101A0000554503D9002007B0BDE8F08F40F66D05BD
:101A100004AB524603A92046ADF80C5002F030FA50
:101A2000F0E700BF3C10010070B584B001AB0122AB
:101A300006460D4640F66D0403A90220ADF80C40A1
:101A400002F01EFA9DF804309A0743D5AD238DF8B5
:101A50000830042203AB02A90120039602F054FAD5
:101A6000022240F2ED438DF80C50ADF80830C5F37A
:101A7000022503AB02A910468DF80D5002F044FA7E
:101A800040238DF80C3040F2ED6503AB012202A932
:101A90000220ADF8085002F037FA00218DF80C1042
:101AA00003AB012202A90220ADF8085002F02CFA83
:101AB000012002F0C5FB01AB0122022002A9ADF812
:101AC000084002F0DDF99DF80430DB07F0D5002076
:101AD00004B070BD4FF0FF3004B070BD2DE9F0418F
:101AE00082B036238DF8043002226B4606460F463C
:101AF000012001A902F0C4F99DF8003023F003038E
:101B000043F0010301228DF80030B6238DF8043034
:101B100001A96B46104602F0F7F94FF4FB73ADF8DC
:101B2000043001220DF1010301A9022002F0ECF9B9
:101B30000120FFF743FE052440F2ED4839463046C8
:101B4000FFF772FF022210466B4601A940F2ED65D5
:101B5000ADF80070ADF8048002F0D6F94FF0030C38
:101B60006B46012201A902208DF800C0ADF8045097
:101B700002F0CAF94FF0000C01226B4601A90220C5
:101B80008DF800C0ADF8045002F0BEF904220DEB50
:101B9000020340F66D2569460220ADF8005002F0C0
:101BA0006FF9019B9E4201D0013CC7D10420FFF791
:101BB00005FE3846FFF7C0FD04460020FFF7FEFD96
:101BC000A01B18BF4FF0FF3002B0BDE8F08100BF8E
:101BD00010B582B004224FF43B740DF103038DF86D
:101BE000032001A901220220ADF8044002F08CF983
:101BF00000208DF8030001220DF1030301A902204A
:101C0000ADF8044002F080F902B010BD10B582B00A
:101C100000224FF43B740DF103038DF8032001A95A
:101C200001220220ADF8044002F06EF902200122E8
:101C30000DF1030301A98DF80300ADF8044002F093
:101C400063F902B010BD00BF10B582B000224FF49E
:101C50003B740DF103038DF8032001A9012202203A
:101C6000ADF8044002F050F9022001220DF1030307
:101C700001A98DF80300ADF8044002F045F902B067
:101C800010BD00BF2DE9F04F83B004464FF0360879
:101C90006B4601A9022201208DF8048002F0F0F8C1
:101CA0009DF8003023F00303012243F001038DF877
:101CB00000304FF0B60A6B4601A910464FF4FB778F
:101CC0008DF804A002F020F90DF1010301A9012211
:101CD0000220ADF8047002F017F940F2EC63002521
:101CE000ADF8043001A96B46012202204FF004092F
:101CF00040F6EC2B8DF8005002F006F96B4601A976
:101D0000012202204FF43B768DF80050ADF804B06C
:101D100002F0FAF86B460DEB0901012202208DF862
:101D20000090ADF8046002F0EFF86B460DEB09018E
:101D3000012202208DF80050ADF8046002F0E4F8B2
:101D4000022240F6EC03ADF804300DEB09016B46BE
:101D50001046ADF8004002F0D7F86B460DEB0901D4
:101D60000122022001248DF80090ADF8046002F0F9
:101D7000CBF86B460DEB0901012202208DF80050D3
:101D8000ADF8046002F0C0F86B4622460DEB090185
:101D90000220ADF804B08DF8004002F0B5F86B46B3
:101DA00022460DEB090102208DF80090ADF8046089
:101DB00002F0AAF86B4622460DEB09010220ADF8AD
:101DC00004608DF8005002F09FF86B460DEB09019E
:101DD000022220468DF8048002F052F89DF801207E
:101DE0008DF8005022F001026B468DF801200DEBBA
:101DF0000901224620468DF804A002F085F80DEB7B
:101E0000040322460DEB09010220ADF8047002F034
:101E10007BF803B0BDE8F08F2DE9F04F042683B0C6
:101E20000DEB060140F6EC276B46012202204FF431
:101E30003B748DF80060ADF8047002F065F80DEBAE
:101E400006016B460122022000258DF80060ADF8E6
:101E5000044002F059F80DEB06016B460122022006
:101E6000ADF804408DF8005002F04EF80DEB06017D
:101E70006B4601220220ADF804708DF8005002F08C
:101E800043F80DEB06016B46012202208DF800603D
:101E9000ADF8044002F038F80DEB06016B46012264
:101EA0000220ADF8044036278DF8005002F02CF8DF
:101EB0000DEB06016B46022201208DF8047001F043
:101EC000DFFF9DF80030012223F003031343B62601
:101ED0008DF8003001A96B4610468DF8046002F0C1
:101EE00013F84FF4FB7301A9ADF8043001220DF192
:101EF0000103022002F008F8012002F0A1F9762384
:101F00008DF8003040F2EC4B6B4601A90122022013
:101F1000ADF804B04FF0800A01F0F6FF6B4601A95E
:101F200001220220ADF804404FF088098DF800A08E
:101F300001F0EAFF6B4601A901220220ADF804403E
:101F40004FF45B788DF8009001F0DEFF6B4601A93D
:101F500001220220ADF8048001F092FF4FF0750CD1
:101F60006B4601A901220220ADF804B09DF800B033
:101F70008DF800C001F0C8FF6B4601A901220220C4
:101F8000ADF804408DF800A001F0BEFF6B4601A93A
:101F900001220220ADF804408DF8009001F0B4FF5A
:101FA0006B4601A901220220ADF8048001F068FF10
:101FB0006B4601A901220220ADF804409DF80040C3
:101FC0008DF8005001F0A0FF6B4601A9022201200C
:101FD0008DF8047001F054FF9DF801208DF8005039
:101FE00022F001028DF8012001226B4601A9104662
:101FF0008DF8046001F088FF01224FF4FB70ADF80A
:1020000004000DEB020301A9022001F07DFF44EA68
:102010000B2003B0BDE8F08F10B50F4B1B681B8B76
:1020200082B01843AC230C46ADF800008DF80430A4
:1020300001A96B460222012001F066FF40F2EC602C
:10204000ADF8040001226B4601A902208DF8004082
:1020500001F05AFF02B010BD3800002010B582B068
:1020600040F2764201ABADF80020044604226946F6
:10207000022001F005FF9DF807309DF806209DF82D
:10208000040002EB03229DF8053003EB022300EB72
:10209000032074B140F4006040F2F64C019001ABB3
:1020A000042269460220ADF800C001F02DFF02B005
:1020B00010BD20F40060EFE7F0B583B001AB04225F
:1020C00007460E460024694601208DF8004001F0C5
:1020D000D7FE9DF807209DF806301C4D03EB022328
:1020E0009DF8052002EB03229DF8043003EB022348
:1020F000AB4227D03B46324601A901208DF804406F
:1021000001F0BEFE052002F09BF804220DEB020355
:10211000694601208DF8004001F0B2FE9DF80710DD
:102120009DF806209DF805309DF8040002EB012281
:1021300003EB022300EB0320401B18BF4FF0FF30DE
:1021400003B0F0BD204603B0F0BD00BF3001CADED1
:1021500030B583B06D238DF800301023054648F26A
:10216000EE648DF8063001226B4601A90320ADF81C
:10217000044001F0C9FE8DB140F207624FF0300C0F
:10218000ADF800206B4601A902220320ADF80440FF
:102190008DF806C001F0B8FE03B030BD41F2076211
:1021A000ECE700BF70B582B036266B4601A902226B
:1021B00001208DF8046001F063FE012240F201333A
:1021C000B625ADF8003001A96B4610464FF4FB74FC
:1021D0008DF8045001F098FE0DF1010301A90122D0
:1021E0000220ADF8044001F08FFE4FF400430222BC
:1021F000ADF8003040F2ED6301A9ADF804301046AF
:102200006B4601F081FE012002F01AF86B4601A92D
:10221000022201208DF8046001F032FE9DF80110C9
:102220008DF8045021F0010101228DF801100021E8
:102230006B468DF80010104601A901F065FE0122E1
:102240000DEB020301A90220ADF8044001F05CFE91
:1022500002B070BDF0B583B0064636276B4601A9C3
:10226000022201208DF8047001F00AFE012240F2E2
:102270000133ADF80030B6256B4601A910464FF486
:10228000FB748DF8045001F03FFE0DF1010301A92C
:1022900001220220ADF8044001F036FE730103F084
:1022A000600343F001038DF80030022241F2ED2378
:1022B0000026ADF8043001A96B4610468DF8016088
:1022C00001F022FE6B4601A9022201208DF8047064
:1022D00001F0D6FD9DF801108DF80060012221F07B
:1022E00001016B468DF80110104601A98DF80450CC
:1022F00001F00AFE01220DEB020301A90220ADF854
:10230000044001F001FE03B0F0BD00BF70B504222F
:1023100082B0174D8DF800200DEB0203694606468A
:1023200001202C6801F0ACFD9DF807209DF80630D7
:10233000296803EB02239DF8052002EB03229DF898
:10234000043003EB02236361486976B120F48020F6
:1023500048618424019001AB0422694601208DF874
:10236000004001F0D1FD02B070BD40F48020EFE7E5
:102370003800002000B583B040F2DA326B468DF8A9
:102380000000ADF8042001A90122022001F0BCFDEB
:10239000094B1A68506940F0804050614FF0840C3E
:1023A000019001AB6946042201208DF800C001F0C4
:1023B000ABFD03B000BD00BF3800002000B50E4BE0
:1023C0001A6883B0536998B123F4805C01204FF000
:1023D000840EC2F814C0507401AB04226946012077
:1023E000CDF804C08DF800E001F08EFD03B000BD13
:1023F00043F4805CEBE700BF3800002010B582B0EA
:102400001A22044601AB8DF80020694604220120FF
:1024100001F036FD9DF807209DF8060000EB022034
:102420009DF8052002EB00229DF8040000EB02203D
:1024300064F313004FF09A0C019001AB694604223B
:1024400001208DF800C001F05FFD02B010BD00BF9B
:10245000DFF810C0DCF800C0CCE90A01CCE90C239D
:10246000704700BF3800002000B5012283B04FF054
:102470000F0C0DF1030301A910468DF804C001F003
:10248000FFFC9DF8030000F0010003B000BD00BF99
:1024900070B582B04C4C0F2201AB8DF8002069461C
:1024A00004220120266801F0EBFC9DF807309DF81E
:1024B00006209DF8045002EB03229DF8053003EB43
:1024C000022305EB032540F27643F5610422ADF8C3
:1024D0000030694601AB022001F0D2FC9DF80720D4
:1024E0009DF8063003EB02239DF8052002EB032242
:1024F0009DF8043003EB022323F44053019340F290
:10250000F643ADF80030042201AB6946022001F029
:10251000FBFC4FF4DE4301938F238DF8003004223F
:1025200001AB6946012001F0EFFC2368002283F82B
:10253000242010238DF8043002226B4601A90120CB
:1025400001F09EFC2368BDF80020197A11B3C2F394
:1025500009011204198405D593F8242042F00102E0
:1025600083F82420112222338DF8042001A90222AD
:10257000012001F085FC2B07206804D590F822305B
:1025800013F0200509D0C36ADBB11C3002B0BDE8EE
:102590007040184702F07F01DBE7082201928F228A
:1025A00001AB8DF8002069460422012001F0ACFC4B
:1025B0002068C369857623F00803C361C36A002BD2
:1025C000E3D102B070BD00BF3800002010B5C207D3
:1025D00082B065D52622044601AB8DF800206946FD
:1025E0000422012001F04CFC9DF807209DF80630E4
:1025F00003EB02239DF8052002EB03229DF8043033
:1026000003EB022323F4705343F4A053A622019357
:102610008DF8002001AB04226946012001F074FC12
:10262000042236210DEB02038DF8001001206946CB
:1026300001F026FC9DF807209DF8063003EB0223ED
:102640009DF8052002EB03229DF8043003EB0223E2
:1026500043F40403B62201938DF8002001AB042259
:102660006946012001F050FCA3073FD5274A01929B
:1026700042F6F60401AB694604220220ADF80040A0
:1026800001F042FC04224FF4887001900DEB02032C
:1026900069460220ADF8004001F036FC02B010BDE2
:1026A000262101AB8DF8001004226946012001F0BB
:1026B000E7FB9DF807409DF806C00CEB042C9DF845
:1026C000054004EB0C249DF804C004220CEB042C00
:1026D000A6238DF800302CF470540DEB02036946EC
:1026E0000120019401F010FC02B010BD42F6F6008A
:1026F000ADF800004FF4887401AB04226946022053
:10270000019401F001FC02B010BD00BF10010F00E8
:1027100010B582B0362204468DF804206B460222A2
:1027200001A9012001F0ACFB0E2C12D8DFE804F067
:102730002C0835111111113E4D1111565D64270001
:102740009DF80130002223F001038DF800208DF860
:1027500001300122B6206B4601A98DF80400104615
:1027600001F0D2FB01224FF4FB7C0DEB020301A927
:102770000220ADF804C001F0C7FB02B010BD40F26A
:102780000133ADF80030E4E79DF8003023F0030397
:1027900043F001038DF80030DBE79DF8003023F0B3
:1027A000030343F002038DF80030D2E79DF80030B8
:1027B0009DF8012023F04C0343F0480362F07F02B0
:1027C0008DF800308DF80120C3E7BDF8003023F408
:1027D000004323F04C03ADF80030BAE79DF8013018
:1027E00043F002038DF80130B3E79DF8013023F088
:1027F00002038DF80130ACE79DF8003023F0300380
:1028000043F020038DF80030A3E700BF00B583B08C
:1028100036216B468DF80410022201A9012001F037
:102820002FFB9DF80010012221F003011143B62374
:102830008DF804308DF800106B4601A9104601F0A8
:1028400063FB01224FF4FB710DEB0203ADF80410A2
:10285000022001A901F058FB022240F2F6404FF09D
:10286000000CADF804006B4601A91046ADF800C09D
:1028700001F04AFB03B000BD00B583B04FF4E57C26
:10288000019001AB042269460220ADF800C001F0BE
:102890003BFB03B000BD00BF70B5830782B00446A8
:1028A0002FD4062302206E4601AD14F0010F4FF025
:1028B00001024FF08D041AD08DF8003029463346BE
:1028C00010468DF8044001F01FFB022240F24F3306
:1028D000ADF8043029463346104601F0D1FABDF870
:1028E000003013F4816F21D1002002B070BD8DF84B
:1028F00000003346294610468DF8044001F004FBE1
:10290000F2E7802301228DF8003001AD8D238DF890
:10291000043010466B46294601F0F6FA0C4B1B6852
:1029200001229A766E4686238220BEE7012240204D
:1029300033468DF80000294610468DF8044001F01A
:10294000E3FA034B1B6800224FF0FF309A76CCE786
:102950003800002030B583B00E2101AB04228DF881
:1029600000100120694601F08BFA9DF807109DF8D0
:1029700006209DF805309DF8044002EB012203EB90
:10298000022304EB032401F0A5FC002301938E2312
:102990008DF80030042201AB69460546012001F0A4
:1029A000B3FA402301228DF800308D238DF80430D6
:1029B00001A96B46104601F0A7FA234B01938F2320
:1029C0008DF80030042201AB6946012001F09CFA29
:1029D00040F24F33ADF8043001226B4601A90220CA
:1029E00001F04EFA9DF8003083EA43031B061ED423
:1029F0000022200A64F3070260F30F22200C60F328
:102A00001742240E64F31F628E2001AB69460192C7
:102A10008DF800000422012001F076FA284601F02A
:102A20005BFC0A4B1B6800229A7603B030BD40F273
:102A3000CD330122ADF8043001A96B4602208DF898
:102A4000002001F061FAD3E7F8FF272438000020C6
:102A500070B582B00F228D4D8DF8002001AB04229D
:102A6000694601202E6801F00BFA9DF807309DF8A9
:102A700006209DF8044002EB03229DF8053003EB8D
:102A8000022304EB0324F461660444D54FF4DE43CF
:102A900001938F238DF80030042201AB6946012099
:102AA00001F032FA2B68002283F8242010238DF8DD
:102AB000043002226B4601A9012001F0E1F92B68E4
:102AC000BDF80020197A002900F0A280C2F30901A4
:102AD0001004198405D593F8242042F0010283F8EC
:102AE000242011228DF8042001A922330222012082
:102AF00001F0C6F92107286805D590F8223013F0B7
:102B0000200600F09580C36A13B11C3098472868EE
:102B1000437C002B7FD1220615D5F82301938F2308
:102B20008DF80030042201AB6946012001F0ECF978
:102B30002307286803D5837E002B40F08B80836AAF
:102B40000BB11C30984714F4081F2DD04FF40033FC
:102B500001938F2369468DF80030042201AB0120D8
:102B600001F0D2F92B6800229A76FFF7F3FEE023FA
:102B70008DF8003040F2F6366B46012201A90220A2
:102B8000ADF8046001F0C0F9F0226B468DF800202A
:102B900001A901220220ADF8046001F0B5F928680E
:102BA000036B0BB11C309847394B1C422ED08F223F
:102BB000694601938DF8002001AB0422012001F049
:102BC000A3F92B6800229A76FFF7C4FEE02340F2B7
:102BD000F6348DF8003001226B4601A90220ADF8D1
:102BE000044001F091F9F0226B468DF8002001A914
:102BF00001220220ADF8044001F086F92868436BF9
:102C000023B11C3002B0BDE87040184702B070BD5F
:102C100002F07F015CE740F2CD330122ADF80430D1
:102C200001A96B4602208DF8002001F06DF972E7D2
:102C3000082301938F238DF80030042201AB6946ED
:102C4000012001F061F92868C369867623F0080342
:102C5000C36158E7FFF77EFEE0238DF8003040F2B5
:102C6000F6366B46012201A90220ADF8046001F09E
:102C70004BF9F0228DF800206B46012201A90220B9
:102C8000ADF8046001F040F9286858E738000020EA
:102C90000090052400B583B040F24F310DF10303DD
:102CA000ADF80410012201A9022001F0E9F89DF815
:102CB000033083EA43031B0601D403B000BD40F296
:102CC000CD300122ADF804000DF1030301A902206B
:102CD0008DF8032001F018F903B000BD00B583B0F2
:102CE000B0B341EA022121F0F0019D226B46ADF81C
:102CF00000108DF8042001A90222012001F004F93E
:102D0000042236210DEB02038DF8001001206946E4
:102D100001F0B6F89DF807E09DF806C00CEB0E2C0C
:102D20009DF805E00EEB0C2E9DF804C004220CEB80
:102D30000E2CB6238DF800304CF0807C0DEB020396
:102D400069460120CDF804C001F0DEF803B000BDF3
:102D50009D226B46ADF800008DF8042001A90222E7
:102D6000012001F0D1F8042236210DEB02038DF889
:102D700000100120694601F083F89DF807E09DF8F6
:102D800006C00CEB0E2C9DF805E00EEB0C2E9DF80A
:102D900004C004220CEB0E2CB6238DF800302CF06E
:102DA000807C0DEB020369460120CDF804C001F0E0
:102DB000ABF803B000BD00BF10B582B040F2764260
:102DC00001ABADF80020044604226946022001F060
:102DD00057F89DF807309DF806209DF8040002EB97
:102DE00003229DF8053003EB022300EB032074B1AE
:102DF00040F4405040F2F64C019001AB0422694689
:102E00000220ADF800C001F07FF802B010BD20F440
:102E10004050EFE700B583B040F6F64C8DF8030064
:102E20000DF10303012201A90220ADF804C001F055
:102E30006BF803B000BD00BF10B5044684B0400776
:102E400002AB03A93BD5E2072BD54FF44072ADF896
:102E500008206FF072028DF80C20012002220193ED
:102E6000009101F051F840F24F32019B0099ADF80A
:102E70000C200220012201F003F89DF8082012F036
:102E8000080FDDE9001317D0CDE90031FFF762FD2F
:102E900014F0020FDDE9003131D04FF0FF3004B003
:102EA00010BD8D204FF480748DF80C00022201209B
:102EB000ADF8084001F028F8002004B010BD40F241
:102EC0004F32ADF80C20022001220193009100F056
:102ED000D7FF9DF8082082EA420212F0800FDDE958
:102EE0000013B0D040F2CD300122ADF80C0002202A
:102EF0008DF8082001F008F8DDE90013A3E74FF48E
:102F00008070ADF808006FF072008DF80C0002229E
:102F1000012000F0F9FFC0E730B583B04FF45172E3
:102F2000ADF8042005466B46012201A9022000F0FD
:102F3000A7FF9DF8004005B38C238DF8043001A94C
:102F40006B4602220120ADF8005000F0DDFF164B69
:102F500019684A694FF4717042F080524A6144F036
:102F60001004ADF804006B46012201A902208DF87F
:102F7000004000F0C9FF03B030BD0B4B1868426938
:102F800022F0805242614FF47170ADF8040024F0D9
:102F900010046B4601A9012202208DF8004000F0C8
:102FA000B3FF03B030BD00BF3800002000B583B0D0
:102FB000022242F2E74CADF800006B4601A9104630
:102FC000ADF804C000F0A0FF03B000BD70B582B042
:102FD0000D46044601F07EF90E238DF800300422E0
:102FE00001AB06466946012000F04AFF9DF8073014
:102FF0009DF806209DF8040002EB03229DF80530A1
:1030000003EB022300EB032085B120438E220190C5
:103010008DF8002001AB69460422012000F074FF06
:10302000304602B0BDE8704001F056B920EA040015
:10303000ECE700BF30B583B00223012205468DF8CE
:103040000330AF240DF1030301A910468DF80440AD
:1030500000F05AFF0DB903B030BD01220DF103039A
:1030600001A910468DF803208DF8044000F04CFFB4
:1030700003B030BD10B582B040F26F42044601ABE0
:10308000ADF8002069460422022000F0F9FE9DF808
:1030900007209DF8063003EB02239DF8052002EB84
:1030A00003229DF8043003EB0223C3F30B022280BA
:1030B000C3F30B4340F66F026380ADF8002001AB11
:1030C00069460422022000F0DBFE9DF807209DF8EF
:1030D000063003EB02239DF8052002EB03229DF846
:1030E000043003EB0223C3F30B02A280C3F30B43B0
:1030F00040F66F42E380ADF8002001AB6946042240
:10310000022000F0BDFE9DF807209DF8063003EB7D
:1031100002239DF8052002EB03229DF8043003EB07
:103120000223C3F30B022281C3F30B4341F26F026C
:103130006381ADF8002001AB69460422022000F053
:103140009FFE9DF807309DF8062002EB03229DF8B4
:10315000053003EB02239DF8042002EB0322C3F3A6
:103160000B23E381C2F30B0341F26F42A381ADF85D
:10317000002001AB69460422022000F081FE9DF888
:1031800007209DF8060000EB02209DF8052002EBC9
:1031900000229DF8040000EB0220C2F30B226282A1
:1031A000C0F30B0241F66F0001AB69462282ADF815
:1031B00000000422022000F063FE9DF807009DF845
:1031C00006109DF805209DF8043001EB002102EB6C
:1031D000012203EB0223C3F30B02C3F30B43A282CE
:1031E000E38202B010BD00BF10B582B0E02240F211
:1031F000F6340DF103038DF8032001A9012202200A
:10320000ADF8044000F080FEF0208DF803000122AC
:103210000DF1030301A90220ADF8044000F074FE93
:1032200002B010BD70B582B036216B468DF8041027
:10323000022201A9012000F023FE9DF800100122C6
:1032400021F003011143B6238DF804308DF80010EE
:103250006B4601A9104600F057FE01224FF4FB71A6
:103260000DEB0203ADF80410022001A900F04CFEA2
:10327000022240F2F6430024ADF8043001A96B4667
:103280001046ADF8004000F03FFEAC216B468DF8D3
:103290000410022201A90120ADF8004000F034FE24
:1032A00040F2EC616B46ADF80410012201A9022046
:1032B00002254FF43B768DF8004000F025FE6B466A
:1032C00001A901220220ADF804608DF8004000F051
:1032D0001BFE6B4601A9012228468DF80050ADF86F
:1032E000046000F011FE40F2F6366B4601A901229F
:1032F00028468DF80040ADF8046000F005FE01207E
:1033000000F09EFF6B46012201A92846F025ADF88A
:1033100004608DF8005000F0F7FD024B1B689C76AE
:1033200002B070BD38000020F0B5874C83B0226831
:103330000023C2E90A33C2E90C3353749376138332
:1033400007468DF80030042201AB6946012000F0E9
:1033500097FD9DF807209DF8063003EB02239DF8AA
:10336000052002EB03229DF8043003EB0223774A89
:10337000934240F0E580FFF755FF36238DF8043087
:1033800002226B4601A9012000F07AFD9DF8003071
:1033900023F0030343F0010301228DF80030B6232C
:1033A0008DF8043001A96B46104600F0ADFD4FF4D6
:1033B000FB73ADF8043001220DF1010301A90220D5
:1033C00000F0A2FD04260122A4230DEB0601104605
:1033D0008DF804306B468DF8006000F095FD1E20DE
:1033E000FEF7AAF9236805462A0A30465A72FEF704
:1033F000A3F9C0B2002840F0918026680620FEF7AD
:103400009BF9306007202668FEF796F915F01F0536
:103410002268706012BF45F0600370231025157498
:103420008DF8003040F6EB63ADF8043001226B46B6
:1034300001A9022000F068FDFB0767D4022240F2D8
:103440007653ADF8043001A96B46104600F018FD24
:10345000BDF8003023F40073ADF80030022240F2D2
:10346000F653ADF8043001A96B46104600F04CFD50
:1034700036238DF8043002226B4601A9012000F0AA
:10348000FFFC9DF8013023F0010301228DF801308B
:10349000B62300258DF8043001A96B4610468DF83F
:1034A000005000F031FD4FF4FB720DF10103ADF857
:1034B000042001A90122022000F026FD40F6EC23A1
:1034C000ADF8043001226B4601A902208DF80050AE
:1034D00000F01AFD04220DEB020369460120246866
:1034E0008DF8002000F0CCFC9DF807109DF8063008
:1034F0009DF8052003EB012302EB03229DF8043025
:1035000003EB02232846636103B0F0BDFEF74AFED9
:103510002268138B43F400631383A9E741F2ED2380
:103520000220ADF8043001226B4601A98DF800009D
:1035300000F0EAFC2668338B43F4805333835DE765
:103540004FF0FF30E0E700BF380000203001CADE56
:1035500000B500F01F0083B040F0600040F6EB6C57
:103560008DF803000DF10303012201A90220ADF83B
:1035700004C000F0C9FC03B000BD00BF014B1B68D4
:10358000187C704738000020F0B583B036226B46B7
:103590008DF8042001A904460222012000F070FCED
:1035A0009DF8003023F00303012243F00103B62706
:1035B0008DF8003001A96B4610464FF4FB768DF86C
:1035C000047000F0A1FC0DF1010301A90122022009
:1035D000ADF8046000F098FC022240F2F6430025AA
:1035E000ADF8043001A96B461046ADF8005000F06C
:1035F0008BFC394B1C5D394B53F82430019340F25E
:10360000EB73ADF80030694601AB0422022000F0F4
:103610007BFC334B1B5D8DF8003040F6EB33ADF88F
:10362000043001A96B460122022000F06DFC2D4BF5
:1036300053F82430019340F6E843ADF80030694672
:1036400001AB0422022000F05FFC4FF4FF13019352
:10365000A82401AB6946042201208DF8004000F047
:1036600053FC214B0193694601AB042201208DF8E4
:10367000004000F049FC012222216B468DF8001029
:10368000104601A98DF8047000F03EFC07238DF868
:10369000003001A96B4601220220ADF8046000F061
:1036A00033FC022242F2F6616B46ADF8041010467C
:1036B00001A9ADF8005000F027FC40F6EA40ADF853
:1036C000040013246B46012201A902208DF800405A
:1036D00000F01AFC03B0F0BD6411010034110100C8
:1036E0002C1101004C11010000FF5F002DE9F04199
:1036F00082B0804636256B4601A9022201208DF852
:10370000045000F0BDFB9DF8003023F003030122BC
:1037100043F00103B6268DF8003001A96B46104630
:103720004FF4FB748DF8046000F0EEFB0DF1010323
:1037300001A901220220ADF8044000F0E5FB0023BE
:103740000222ADF8003040F2F643ADF8043001A992
:103750006B46104600F0D8FB4FF4FF130193A827E7
:1037600001AB6946042201208DF8007000F0CCFB0B
:10377000354B0193694601AB042201208DF800709E
:1037800000F0C2FB6B4601A9022201208DF8045013
:1037900000F076FB9DF800308DF8046023F0030301
:1037A000012243F002038DF8003001A96B46104658
:1037B00000F0AAFB0DF1010301A901220220ADF8DE
:1037C000044000F0A1FB6B4601A9022201208DF804
:1037D000045000F055FB9DF800308DF8046023F094
:1037E0003003012243F020038DF8003001A96B461D
:1037F000104600F089FB0DF1010301A9012202200E
:10380000ADF8044000F080FB0422904541464FF0A3
:103810008A0038BF11460DEB020301918DF80000BC
:103820006946012000F070FB42F2EF40ADF8040061
:1038300010246B46012201A902208DF8004000F0FF
:1038400063FB02B0BDE8F08100FF5F002DE9F041AD
:1038500084B0802241F2E81306468DF80420ADF8CA
:103860000C30012201AB03A9022000F04DFB0A231A
:1038700041F2E8248DF80430012201AB03A90220B3
:10388000ADF80C4000F040FB0F238DF8043001220E
:1038900001AB03A90220ADF80C4000F035FB01227A
:1038A000AA2401AB03A9104600258DF80C408DF821
:1038B000045000F029FB8DF80C40012401AB224696
:1038C00003A920468DF8044000F01EFBA64262D0FA
:1038D0004FF0360802AB022203A920468DF80C8077
:1038E00000F0CEFA9DF8083023F0030343F0010303
:1038F000B6278DF80830224602AB03A920464FF4C4
:10390000FB768DF80C7000F0FFFA0DF109032246EA
:1039100003A90220ADF80C6000F0F6FA022240F292
:103920006A33ADF80C3003A901AB104600F0A8FAD9
:1039300002AB022203A920468DF80C8000F0A0FA09
:103940009DF809208DF8085022F0010202AB8DF895
:10395000092003A9224620468DF80C7000F0D4FA05
:103960000DF10903224603A90220ADF80C6000F016
:10397000CBFA01220020BDF804408DF80400AA25EE
:1039800001AB03A910468DF80C5000F0BDFA20469B
:1039900004B0BDE8F081304600F052FC022240F253
:1039A0006A31ADF80C1001AB03A9104600F068FABB
:1039B000DFE700BF00B583B040F26A4C0DF10303AE
:1039C000012201A90220ADF804C000F059FA9DF8C7
:1039D000030003B000BD00BF00B583B040F26A3CF5
:1039E0000DF10303012201A90220ADF804C000F08B
:1039F00047FA9DF8030003B000BD00BF2DE9F04F6A
:103A000087B0012236238DF8143005A904AB834614
:103A1000104600F035FA022240F2764104ABADF8D0
:103A20001410104605A99DF8107000F029FABDF891
:103A30001030019328238DF81030042205AB04A91F
:103A4000012000F01DFA9DF817309DF8162002EBBA
:103A500003229DF8153003EB02239DF81420012466
:103A600002EB0329B625224604AB05A920468DF8B2
:103A700010408DF8145000F047FA022240F2F6434D
:103A8000ADF8143005A904AB10464FF0000AADF8AC
:103A900010A000F039FA4E4B0593A8238DF8103092
:103AA000042205AB04A9204600F02EFA22238DF84B
:103AB00010302246204604AB05A98DF8145000F0C2
:103AC00023FACDE90279802607244FF4967835460B
:103AD0006D0840F6EA3045EA060704AB012205A965
:103AE000ADF8140002208DF8107000F00DFABC2221
:103AF00040F6EA0904AB8DF8102005A90122022046
:103B0000ADF8149000F000FABD21012204AB8DF84D
:103B10001010022005A9ADF8149000F0F5F964200A
:103B200000F08EFB022240F66A1104ABADF81410CF
:103B3000104605A900F0A4F9BDF81030C3F30B033B
:103B4000A3EB0B02002AB8BF52424245B8BFBA46A7
:103B50004245B8BF90465B4526EA050688BF3E460B
:103B6000013CB5D1DDE902790122B6238DF814308C
:103B700005A904AB10468DF8107000F0C5F9019B43
:103B8000ADF81030022240F2F643ADF8143005A92A
:103B900004AB104600F0B8F969F307044FEA1922A4
:103BA00062F30F244FEA194262F317444FEA19698E
:103BB000A8228DF8102005AB04A969F31F64042224
:103BC0000120059400F0A0F9504607B0BDE8F08F41
:103BD00000A71F00F0B5002406460F46254626FA2A
:103BE00004F202F01F017B18A3F1040CBCF1100FCA
:103BF000C2F3421011D93A464FF0000C142BCCBF3F
:103C0000053A05328B18A3F1040EBEF1100F0CF12A
:103C1000010CF3D800EB0C02D0B243EA4013A340EE
:103C20000834202C45EA0305D9D12846F0BD00BF51
:103C3000F8B5204A204D03460C46D65C51EC100BDB
:103C400053EC112B05EBC60503F0EEF8D5E9002384
:103C50000CF01EFD02460B4603F0E8F803F09CFA58
:103C6000002507462E4624FA05F202F01F0E07EB48
:103C70000E03191F1029C2F3421010D93A46002131
:103C8000142BCCBF053A05320EEB0203A3F1040C52
:103C9000BCF1100F01F10101F2D84218D0B243EA91
:103CA0004013AB400835202D46EA0306DBD13046F1
:103CB000F8BD00BF64110100881001002DE9F04F2C
:103CC00083B0012236238DF8043001A96B460746E4
:103CD000104600F0D5F8022240F276416B46ADF86E
:103CE0000410104601A99DF800A000F0C9F828238F
:103CF000BDF800908DF80030042201AB6946012028
:103D000000F0BEF89DF807309DF806209DF804806D
:103D100002EB03229DF80530012403EB0223B626B3
:103D2000224601A9204608EB03286B468DF8004087
:103D30008DF8046000F0E8F8022240F2F643ADF896
:103D4000043001A96B4610460025ADF8005000F084
:103D5000DBF8434B0193A8238DF80030042201AB1C
:103D60006946204600F0D0F822238DF80030224624
:103D700020466B4601A98DF8046000F0C5F80A24BE
:103D800040F6EA366B46012201A902208DF8007048
:103D9000ADF8046000F0B8F8BC2140F6EA0B6B46C1
:103DA00001228DF80010022001A9ADF804B000F046
:103DB000ABF8BD2101226B468DF80010022001A94D
:103DC000ADF804B000F0A0F8642000F039FA022247
:103DD00040F66A106B46ADF8040001A9104600F0E9
:103DE0004FF8BDF80030013CC3F30B031D44C9D1AB
:103DF0000122B6238DF8043001A96B4610468DF8D8
:103E000000A000F081F8022240F2F643ADF8043041
:103E100001A96B461046ADF8009068F3070400F066
:103E200073F84FEA182262F30F244FEA184262F344
:103E300017444FEA1868A82201AB8DF800206946A4
:103E400068F31F6404220120019400F05DF8054B23
:103E5000A3FB0530C0F3CF0003B0BDE8F08F00BF77
:103E600000A71F00CDCCCCCC014B01221A707047AB
:103E7000740B0020704700BF704700BF704700BF41
:103E80002DE9F04F84189046E21D83B022F007021E
:103E900002AFADEB020D0DF10809ADEB020D0546C9
:103EA00022468A4602AE002148469B4603F0A4FB08
:103EB00022460021304603F09FFB2A4651464846E1
:103EC00003F018FC4246002109EB050003F094FBC7
:103ED000E2B20B4C0092002323700A484946334655
:103EE00001F0AAFC2378002BFCD0424671195846F9
:103EF00003F000FC00200437BD46BDE8F08F00BF92
:103F0000740B00206C1101002DE9F04785189146D3
:103F1000EA1D84B022F0070202AFADEB020D02AE43
:103F20000446ADEB020D8A462A46002130467B60EE
:103F300003F062FB2A46002102A803F05DFB224643
:103F40005146304603F0D6FB79684A4630190B4C8F
:103F500003F0D0FB4FF0000CEAB20092084884F85E
:103F600000C002AB314601F067FC2378002BFCD087
:103F700000200837BD46BDE8F08700BF740B002065
:103F80006C1101004FF0A04203234FF080704449B0
:103F9000C2F86037C2F80C054FF4FA63096841486B
:103FA0009C4600BF00BF00BF00BF00BF00BF00BFF6
:103FB00000BF81422FD000BF00BF00BF00BF00BFC5
:103FC00000BF00BF00BF00BF00BF00BF00BF00BFF9
:103FD00000BF00BF00BF00BF00BF00BF00BF00BFE9
:103FE00000BF00BF00BF00BF00BF00BF00BF00BFD9
:103FF00000BF00BF00BF00BF00BF00BF00BF00BFC9
:1040000000BF00BF00BF00BF00BF00BF00BF00BFB8
:1040100000BF00BF00BFBCF1010CC2D14FF0000CCB
:10402000C2F860C700BF00BF00BF00BF00BF00BF35
:1040300000BF00BF81422FD000BF00BF00BF00BF44
:1040400000BF00BF00BF00BF00BF00BF00BF00BF78
:1040500000BF00BF00BF00BF00BF00BF00BF00BF68
:1040600000BF00BF00BF00BF00BF00BF00BF00BF58
:1040700000BF00BF00BF00BF00BF00BF00BF00BF48
:1040800000BF00BF00BF00BF00BF00BF00BF00BF38
:1040900000BF00BF00BF00BF013BC3D1704700BFDE
:1040A0003C0000200024F400DFF8C0C000B59CE80C
:1040B0000F0085B08DE80F004FF0110E284A8DF8E3
:1040C00003E000236946ACF1080001F08DFA0028F6
:1040D00042D1244A244912684FF4FA6300BF00BF5A
:1040E00000BF00BF00BF00BF00BF00BF8A422FD08B
:1040F00000BF00BF00BF00BF00BF00BF00BF00BFC8
:1041000000BF00BF00BF00BF00BF00BF00BF00BFB7
:1041100000BF00BF00BF00BF00BF00BF00BF00BFA7
:1041200000BF00BF00BF00BF00BF00BF00BF00BF97
:1041300000BF00BF00BF00BF00BF00BF00BF00BF87
:1041400000BF00BF00BF00BF00BF00BF00BF00BF77
:10415000013BC3D105B000BDFCF72AF9B9E700BFA8
:10416000693E00003C0000200024F40074110100AE
:1041700000B52E4885B001F009FBDFF8C0C09CE80F
:104180000F004FF0110E8DE80F00294A8DF803E063
:1041900000236946ACF1180001F026FA002842D14C
:1041A000244A254912684FF4FA6300BF00BF00BFDC
:1041B00000BF00BF00BF00BF00BF8A422FD000BFBA
:1041C00000BF00BF00BF00BF00BF00BF00BF00BFF7
:1041D00000BF00BF00BF00BF00BF00BF00BF00BFE7
:1041E00000BF00BF00BF00BF00BF00BF00BF00BFD7
:1041F00000BF00BF00BF00BF00BF00BF00BF00BFC7
:1042000000BF00BF00BF00BF00BF00BF00BF00BFB6
:1042100000BF00BF00BF00BF00BF00BF00BF013B29
:10422000C3D105B000BDFCF7C3F8B9E76C110100BC
:10423000693E00003C0000200024F40084110100CD
:104240004FF47A7303FB00F000283ED01F4B204A46
:104250001B6800BF00BF00BF00BF00BF00BF00BFA2
:1042600000BF93422FD000BF00BF00BF00BF00BF00
:1042700000BF00BF00BF00BF00BF00BF00BF00BF46
:1042800000BF00BF00BF00BF00BF00BF00BF00BF36
:1042900000BF00BF00BF00BF00BF00BF00BF00BF26
:1042A00000BF00BF00BF00BF00BF00BF00BF00BF16
:1042B00000BF00BF00BF00BF00BF00BF00BF00BF06
:1042C00000BF00BF00BF0138C3D170473C000020D1
:1042D0000024F40000207047704700BF0649074AD9
:1042E000074B9B1A03DD043BC858D050FBDC00F0A1
:1042F0001BF8FBF7CFFF0000501701000000002063
:10430000F8080020FEE7FEE7FEE7FEE7FEE7FEE72F
:10431000FEE7FEE7FEE7FEE7014B024A1A60704740
:104320003C0000200090D0034FF0704393F8E02F42
:10433000062A1AD0B54AD2F8883043F47003C2F87E
:104340008830BFF34F8FBFF36F8F4FF01023D3F838
:104350000022002AC0F22981D3F80432002BC0F2D7
:104360002481AB4BAB4A1A607047D3F8E42F100797
:10437000E0D1D3F8E83F03F0F002302A53D003F045
:10438000E003402B4FD04FF07043D3F8E83F03F0E9
:10439000E003402B65D04FF07043D3F8E83F03F0C3
:1043A000E003402B00F081804FF07041D1F8E83FEE
:1043B00003F0F003502B00F0A6804FF07043D3F8C9
:1043C000E83F03F0F002302A12D003F0E002402A66
:1043D0000ED003F0E003402BACD14FF08043D3F874
:1043E0000024D20744BF6FF00102C3F80024A1E704
:1043F0004FF080524FF07043D2F8582293F8E01FEC
:104400004FF0804002F04F020629C0F8E42E91D10F
:10441000D3F8E42F11078DD1D3F8E83F03F0F00271
:10442000302ADAD0D5E74FF080524FF07043D2F8FF
:10443000242393F8E01F7848C2F304220629C0F829
:1044400040257FF477AFD3F8E42F11077FF472AFE4
:10445000D3F8E83F03F0F003302B94D16F4B704A50
:104460005A674FF080524FF07043D2F8442293F8CD
:10447000E01F4FF08040C2F342320629C0F83C25CD
:104480007FF458AFD3F8E42F12077FF453AFD3F87B
:10449000E83F03F0F003302B7FF47DAF5B4AD2F8A6
:1044A000FC3023F08073C2F8FC304FF070424FF0C4
:1044B000804192F8E00F00230628C1F80C31C1F8C2
:1044C0001031C1F838357FF435AFD2F8E43F13F03E
:1044D0000F037FF42FAFD2F8E82F02F0F002302A5A
:1044E0007FF462AF4F4A0320C1F8A0054FF0050CDE
:1044F00001203F21C2F810C6C2F88806C2F818365B
:10450000C2F8141650E74FF08052474BD2F804041B
:10451000C3F82005D2F80804C3F82405D2F80C0427
:10452000C3F82805D2F81004C3F82C05D2F81404F7
:10453000C3F83005D2F81804C3F83405D2F81C04C7
:10454000C3F84005D2F82004C3F84405D2F8240487
:10455000C3F84805D2F82804C3F84C05D2F82C0457
:10456000C3F85005D2F83004C3F85405D2F8340427
:10457000C3F86005D2F83804C3F86405D2F83C04E7
:10458000C3F86805D2F84004C3F86C05D2F84404B7
:1045900091F8E02FC3F87005062A7FF4CBAED1F86E
:1045A000E43F18077FF4C6AE07E7204A0123C2F8AC
:1045B0000435D2F80034002BFBD04FF01023152126
:1045C0001A4AC3F80012D2F80034002BFBD04FF087
:1045D00010231521154AC3F80412D2F80034002B19
:1045E000FBD000231149C2F80435D1F80034002B68
:1045F000FBD0BFF34F8F05490D4BCA6802F4E06250
:104600001343CB60BFF34F8F00BFFDE700ED00E029
:104610003C0000200090D0030030014000C0074063
:104620000DF0ADBA0050004000C0004000E0014075
:104630000400FA0510B50378012B84B020D0022BBA
:104640000FD0DBB92849294800F04AF9284B002847
:104650003BD003221B698DF8082002A8984704B0BC
:1046600010BDC06823490390012223488DF808300B
:1046700000F01AFC1E4902A80B69984704B010BD4F
:1046800041681B480978019300F016F9184A98B957
:104690009168D368994205D013698DF8080002A883
:1046A0009847134A9068D36891881B1A994215D28B
:1046B0000123537504B010BD019B116903908DF85F
:1046C000083002A888470A4AECE70B48012203F1A8
:1046D000180104B0BDE8104000F026BB05490648AB
:1046E000012200F0E1FBC9E7940B0020980B0020A9
:1046F0007C0B0020900B0020400000202DE9F041B1
:104700002E4D8AB02A61002950D08A8898460446E6
:104710000B4628460968019300F0BEF810B10AB0B4
:10472000BDE8F081019B05F11C009A89996800F0B1
:10473000B3F80028F3D1237CDFF890E01E1A637CE5
:1047400018BF012683420CBF07460E27BEE80F00A4
:104750000DF1080CACE80F00626802922268039227
:10476000E2680492A26805929EE80F008CE80F00B0
:10477000626908921248134A8DF81C6002A98DF8EC
:1047800024808DF81D7000F05BF90028C7D12368E4
:1047900068750133C3D09DF825305BB10A490848DC
:1047A000012200F081FB0AB0BDE8F08107200AB0C9
:1047B000BDE8F081024800F0CDFCEFE77C0B002063
:1047C0004000002035460000900B002094110100AD
:1047D00008B5054800F0AAF800B108BDBDE80840DA
:1047E000024800F0A3B800BF7C0B0020980B00200B
:1047F00030B50F4C014683B02046657D00F070F85F
:10480000034615B9184603B030BD0021019061750B
:104810000848012204F1140100F046FB019B002826
:10482000F0D0FBF7C5FD019B184603B030BD00BFBB
:104830007C0B00204000002000B5014683B00F48EB
:1048400000F03AF8034610B1184603B000BD0190DD
:104850000B4800F01DFB019B0028F5D10949081DFC
:1048600000F03EF8019B0028EED1064904480122E1
:1048700003B05DF804EB00F057BA00BF980B0020BE
:1048800040000020940B002008B5024800F0C2F957
:10489000002008BD4000002059B142B1531E1A400B
:1048A00005D1826001608380C26010467047092094
:1048B00070470E20704700BFD0F808C0C26803469A
:1048C0008088A2EB0C02904201D204207047DA6883
:1048D00010401A681154DA6801320020DA6070471B
:1048E00003468068DA6890420AD098689A88024045
:1048F0001868825C0A709A68013200209A607047DA
:1049000005207047D0F808C0C368A3EB0C03994298
:1049100001D3052070478368B0F804C0194401EA48
:104920000C0103685B5C1370002070470346002095
:10493000DA689A60704700BF28B310B5964622B374
:104940008268C368DEF800409B1ACEF80030C3B11D
:10495000A9B19C4228BF1C467CB1013901EB040C73
:104960008268838813400268D35C01F8013F836842
:10497000614503F101038360F2D1CEF800400020CD
:1049800010BD052010BD0E2070470E2010BD00BFC9
:10499000002839D0002A37D08368D0F80CC030B551
:1049A000848801332344A3EB0C03D2F800C01360C6
:1049B00063B339B39C4528BF9C46BCF1000F1FD0A0
:1049C000C36891F800E01C40036803F804E0C36882
:1049D000BCF1010F03F10103C36011D04C1E64440C
:1049E000D0F80CE08388056803EA0E0311F801EFA4
:1049F00005F803E0C368A14203F10103C360EFD1EE
:104A0000C2F800C0002030BD0E207047042030BD29
:104A100070B5161E07DD0C468D1914F8010BFFF753
:104A20000BFFA542F9D1304670BD00BF10B50C4652
:104A30002046FFF7DDFE0528FAD0012010BD00BF9B
:104A40002DE9F043704C037904EB431C89B09CF8CA
:104A50001B50002D40F0B1804D7F8CF81C50D1F8D8
:104A600000E0D0F800C090460279BEF1FF3F4FEA67
:104A7000431391460BD04FF0A046012505FA0EF5E1
:104A8000C6F808550EF5E075032246F825204D6856
:104A90006A1C06D005F5E0764FF0A047002247F8E3
:104AA000262004EB49164A7D377F0E7D3243019262
:104AB0008A69002F56D1CCF82425012E019ACCF812
:104AC0006C25CCF81455CCF80CE500F09380054625
:104AD000E018C0F804800869E050B8F1000F2AD04F
:104AE0002A79097F019304EB42124CF30730127FBD
:104AF000002A6AD00022CCF81021DCF8106104965C
:104B0000049ECCF82021DCF820610596059ECCF8A7
:104B10002421DCF824610696069ECCF84421DCF8BA
:104B200044210792079A394ACCF8042300F03CFD4F
:104B3000D5F800C0019B2A7904EB4212127F002AAB
:104B40003FD00822CCF8002503F1100200212344B5
:104B5000224408464FF480741976D1805C8309B0F2
:104B6000BDE8F083CCF82425012E019ACCF86C2501
:104B7000CCF80CE5CCF81455A9D18E68771C06D07A
:104B80004FF0A04E06F5E07500224EF82520CD68C6
:104B90006A1C0DD04FF0A0424FF0010E0EFA05FE38
:104BA000C2F808E5174605F5E07E032247F82E20F7
:104BB000CCF80855CCF8106589E7082009B0BDE8A5
:104BC000F0830422CCF80025BEE7CCF81C21DCF8E9
:104BD0001C610296029ECCF84421DCF84421039229
:104BE000039A0B4ACCF8042300F0DEFCD5F800C091
:104BF000019BA0E78E68751CC9D04FF0A04506F553
:104C0000E07E45F82E70C2E7A80B002010030200DA
:104C10008000020030B5404A90F804C0036802EBFF
:104C20004C11097F00296BD00021C3F8001502EB5D
:104C30004C114968A9B1047902EB441443F30731DC
:104C4000257F01F01F0E0124490904FA0EF42031DA
:104C5000002D58D0314DDFF8C8E0C3F808E345F81F
:104C600021400179D3F80C45D3F814E502EB41114A
:104C70004FF0FF35097FB1B3D3F80815D3F810050D
:104C8000C3F80C55C3F81455C3F80855C3F81055AC
:104C9000651C06D004F5E0744FF0A043022543F8EC
:104CA0002450BEF1FF3F06D00EF5E07E4FF0A0434A
:104CB000022443F82E40441C06D04FF0A04300F5D8
:104CC000E070022443F820404B1C06D04FF0A04374
:104CD00001F5E071022043F8210002EB4C120023A1
:104CE000D376536030BDD3F80815D3F81005C3F858
:104CF0001455C3F80C55C3F80855C3F81055C7E749
:104D0000C3F8001593E7054DDFF818E0C3F808E392
:104D100045F82140A5E700BFA80B002000E100E016
:104D2000100302008402020030B5DFF860C103798D
:104D30000CEB431387B093F81CE0BEF1000F2CD1AD
:104D400093F816E0BEF1000F63D19A75996001687F
:104D5000A3F814E00079C1F81CE1D1F81C310493E8
:104D60000123049A8B60C1F81CE1D1F81C31059332
:104D70000CEB4012059BD2F808E00546908A938A16
:104D800080B201331EF8000093825368C1F81C05FD
:104D9000002B41D0002007B030BD01F0604EBEF1C5
:104DA000005F33D193F816E0BEF1000F31D19A7550
:104DB000A3F814E0996003680179C3F820E1D3F8FF
:104DC000202101920198C3F858E1D3F858010290CC
:104DD0000CEB4112029892F816E0D2E90102C3F8F6
:104DE00044250122C3F848E59A600028D2D1D3F8BF
:104DF0002021D3F858010243F9D00CEB41110028CF
:104E00004FF0000318BF0F208B75C4E7102007B0C8
:104E100030BD112007B030BD907D938A9BB2834294
:104E200005D31EE0938A9BB2B3F5807F03D0D1F8FF
:104E30001C31002BF6D0938A9BB2B3F5807FECD067
:104E40000023C1F81C31D1F81C310393039B938AD2
:104E50009BB21EF80340938A01339382C1F81C452C
:104E6000DBE7938A9BB2B3F5807F0CD0D1F81C317D
:104E7000002BFBD00123CB6000200CEB451C002352
:104E80008CF8163087E70F20F7E700BFA80B00204B
:104E90000279044B03EB4213987D003818BF0120C0
:104EA000704700BFA80B0020F0B5DFF878E2047966
:104EB0000EEB441C89B09CF81C30E3B99CF8173009
:104EC000DCF804501F46002D54D003684FF40176DF
:104ED000C3F80863002F00F08F809CF818000028AA
:104EE00040F01381CCF810108CF818204FF40172A8
:104EF000C3F8042338E001F06043B3F1005F36D11A
:104F0000DCF804309CF81750002B00F0E0800368B8
:104F10004FF40476C3F80863002D40F08D800EEB4B
:104F2000441400256576E27525760368E160007912
:104F3000C3F81051D3F810410194019CC3F84451B7
:104F4000D3F844410294029CC3F834150121C3F8FC
:104F5000382519600EEB401244015268002A38D0FF
:104F60004FF40472C3F80423002009B0F0BD1020F0
:104F700009B0F0BD002B40F0B6809CF81A301E46F8
:104F800003688CF81720CCF80C108CF819508CF8AA
:104F90001850002E3DD00022C3F84421D3F84421FC
:104FA0000592059A0EEB4412D3F82411D3F8085158
:104FB000D3F844C1002D5FD151EA0C05F4D00EEBBB
:104FC00044130022DA75002900F0A480032009B000
:104FD000F0BDD3F81021D3F84411D3F824010A43CB
:104FE0000243F6D074440023E375984218BF0320AF
:104FF0000029BDD00F20BBE78CF817209CF81A20A1
:10500000CCF80C108CF819708CF81870002A7FF40A
:105010006DAF0022C3F82421D3F824110391039922
:10502000C3F80821D3F808210492049A01221A60D7
:10503000002D7FF45BAFAEE79CF81840002C5BD1ED
:10504000CCF810108CF818200079C3F81041D3F870
:1050500010510195019DC3F84441D3F84441029495
:10506000029CC3F83415C3F83825D3F8002242F067
:105070002002C3F800226DE751EA0C059FD1D17DD3
:1050800099B1C3F80851D3F8081106910699D6686A
:10509000517ED3F818357354537ED17D0133537646
:1050A000537E99423BD903687EE7C3F80811D17556
:1050B000D3F8081107910799D3F81835537E026881
:1050C0000EEB4414A37EEBB1012313604CE7002DDB
:1050D0003FF425AF9CF8184094B98CF81820036869
:1050E000CCF81010B0E79CF818304BB98CF81820A9
:1050F0000368CCF810104EE74FF40472C3F8042391
:10510000112035E7012353602EE74FF40172C3F8F5
:105110000423F5E7BCF1000F7FF46CAFCFE7D57542
:10512000CDE700BFA80B0020094B0179026803EB13
:1051300041131B7F2BB1D2F81001003818BF01209A
:105140007047D2F80801C01A18BF0120704700BF8D
:10515000A80B002002790E4B03EB42131A7FB2B961
:10516000997EA1B9026882B0C2F82411D2F824C194
:10517000CDF800C0DDF800C0C2F80811D2F808115F
:105180000191019901201060987602B07047704734
:10519000A80B00200279054B03EB42131A7F1AB9C2
:1051A0000168012048609A76704700BFA80B002074
:1051B000104A0179036802EB411282B0127F62B19A
:1051C0000022C3F82421D3F824210092009AD3F8B6
:1051D0008004C3F8800402B07047C3F82421D3F8D8
:1051E00024210192019AD3F88004C3F8800402B00C
:1051F000704700BFA80B002010B51C490379026856
:105200004FEA431C01EB431384B0187F5C68A0B1E4
:105210000023C2F85831D2F8583100930123009985
:10522000D3600CB104B010BDD2F85831002BF9D1C5
:10523000D2F85831002BF7D0F4E74FF0010EC2F846
:105240000CE06CB19A8A98759B688DF8000051F853
:105250000C108DF8082068460193A04704B010BDDB
:105260004FF480729A8204B010BD00BFA80B0020DA
:10527000084B0179026803EB41131B7F13B1012333
:10528000536070474FF401710123C2F80813536053
:10529000704700BFA80B002030B5A84B1A7F8FB015
:1052A000002A51D0A64AD2F82401002800F0F58047
:1052B0000021C2F82411D2F824C1CDF808C0022080
:1052C000A3F817108DF828000299D2F88014C2F8BC
:1052D00080140D91D2F83C25D86819688DF83020DB
:1052E0000B905A680AA89047944B954AD2F84411FB
:1052F00061B10021C2F84411D2F844C1D87DCDF883
:1053000004C0DDF804C0002840F008818C4AD2F8BF
:105310002011B9B10020C2F82001D2F820C1997D36
:10532000CDF800C0DDF800C061B1D2F84C158DF8A1
:10533000301099688DF828000B9198755A68196893
:105340000AA890470FB030BD7D49D1F8040380050D
:105350006DD5D1F82401002869D0C1F82421D1F8F5
:1053600024019A7E07904FF40170DDF81CC0C1F84B
:1053700008030AB901224A607149DC6802228DF8EB
:105380002820D1F88024C1F88024D97D0D924FF0D7
:105390000000A3F817008DF830100B94D3E9001229
:1053A0000AA89047654B664AD2F81C11D9B1998A70
:1053B000987D89B28142C0F0A0804FF0000CC2F805
:1053C0001CC1D2F81C210592059A60B1D3E90121D4
:1053D0008DF830000B9183F816C019688DF828C03D
:1053E0000AA89047554B564AD2F844110029A9D033
:1053F0000021C2F84411D2F84401997E0490049827
:1054000009B101211160DA7D002A9BD0D86893F898
:1054100019C00B9000210122D9758DF828208DF834
:1054200030C0D3E900120AA890470FB030BD444AFB
:10543000D2F804134907B6D5D2F808110029B2D022
:10544000D97D00297ED00021C2F80811D2F80811B8
:1054500008910899D868597ED2F8182542545A7E86
:10546000D97D01325A765A7E8A429CD11A7ED868FA
:10547000D3E90014002A78D00B901869DA75D86047
:105480000022587E1A768DF830005A7601228DF867
:1054900028200AA8A047294B85E7D2F81011002937
:1054A0003FF423AFC2F81001D2F810110391039911
:1054B000D2F83C1593F817C0C9B28C457FF415AFEC
:1054C00093F818E0DD6883F817E0D3E90014BEF123
:1054D000000F40D01876D2F8000220F02000C2F869
:1054E00000021A69DA6001228DF830C00B950AA813
:1054F0008DF82820A047114BF7E60021C2F81C11B7
:10550000D2F81C1106910699988A9C68998A80B2F3
:105510000131205C9982C2F81C0564E7D2F83C0591
:105520008DF830000122D868D9758DF828200B90AD
:10553000D3E900120AA89047004BE7E6A80B002029
:1055400000200040C2F80811D2F80801099009981B
:10555000D2F8182587E701228DF830C00B950AA8EC
:105560008DF82820A0470A4BBFE69A7E22B9094A47
:105570004FF0010CC2F804C0064A4FF4017CC2F897
:1055800008C30B900022587E8DF83000DA757DE755
:10559000A80B002000200040024B0122C3F880200D
:1055A000704700BF00E100E000284FEA411113DB23
:1055B00000F1604303F5614383F8001343099B0046
:1055C00003F1604303F5614300F01F0001228240B4
:1055D000C3F880211A607047024B00F00F02D31805
:1055E0001976EBE7FCEC00E02DE9F04744791F4623
:1055F000654B904604EBC40203EB820582B02E7F1C
:10560000002E40F0A98043F822806F600F780E7B57
:105610004FF0A0450122BA40012E94BFC5F80C25D9
:10562000C5F808254FF0A04C07F5E07201254CF8AD
:10563000225091F801E0BEF1FF0F00F08A8005FAD8
:105640000EF50EF5E072CCF80C5503254CF82250FF
:105650008D78FF2D7AD005F5E07C4FF0A042AA4668
:10566000042542F82C5091F803C0BCF1FF0F0CD078
:105670004FF0A045012202FA0CF2C5F80825A94610
:105680000CF5E072032549F8225004EBC40203EB49
:10569000820282F81EC091F80DC0857901958D684F
:1056A0000095BCF10002019DD0F800C018BF012296
:1056B000CCF80875CCF80CE5CCF810A54DB3009DDE
:1056C000CCF82455022E59D0032E49D0012E01D1F9
:1056D00042F00202CCF854254A79CCF8C025B8F142
:1056E000000F43D04022CCF804230722CCF8002539
:1056F000097990F90400FFF757FF234B04EBC4042A
:1057000003EB84030020012258771A7702B0BDE82A
:10571000F087009DCCF82455022E32D0032E22D0E3
:10572000012E01D142F00202CCF8542504EBC40250
:1057300003EB82024D79D577B8F1000F1AD004221D
:10574000CCF804230122CCF80025D1E74FF0FF3A32
:1057500089E74FF0FF3E7BE7082002B0BDE8F08705
:1057600042F00602B6E742F00602DDE70722CCF877
:105770000025C3E70122CCF80025BFE742F0040270
:10578000A8E742F00402CFE7C80B002070B54379C8
:10579000274A90F806E0016803EBC30C02EB8C0685
:1057A00052F82CC082B0BCF1000F3CD090F904003C
:1057B000204D4FEA501C0CF1200400F01F004FF068
:1057C000010C0CFA00F045F824004FF0FF30C1F84E
:1057D0000803BEF1000F0AD10020C1F8000503EB59
:1057E000C30302EB83020023137702B070BD707F06
:1057F00068B1C1F814C0D1F804010028FBD003EB54
:10580000C30002EB80004FF0000C80F81DC00020A8
:10581000C1F81801D1F818C1CDF804C0DDF804C0F2
:10582000C1F80005DBE7BEF1000FD5D0EFE700BF00
:10583000C80B002000E100E02DE9F04190F805E000
:10584000814C0EEBCE0504EB850684B096F81DC0A6
:105850009DF82870BCF1000F40F0B58054F8255039
:105860001DB14FF0010C86F81DC00EEBCE0C04EB01
:105870008C0C9CF82160CCF80C1026F007068CF8F4
:105880001020CCF814308CF818708CF821609CF83B
:105890001EC0BCF1FF0F06D001264FF0A04806FA4B
:1058A0000CF6C8F80C6586790068002E65D10423D3
:1058B000C0F808330EEBCE0304EB8303C0F8086195
:1058C00083F82060D0F808610396039E7AB10B78C4
:1058D000C0F81C35012A0DD04B78C0F81C35A5B195
:1058E0000423C0F80433002004B0BDE8F081DB7F5E
:1058F000C0F81C35012FF2D90EEBCE0304EB830365
:10590000DB7FC0F81C35002DEAD10EEBCE0204EB94
:105910008202D0F80831002BFBD0C0F80851D0F833
:10592000083192F82010167E0293029BD0F81835A9
:105930008DF803308E4205D953699DF803605E549B
:1059400092F8201092F821604B1CDBB2760782F8A7
:10595000203003F1010C58D5167CB44550D2177E87
:105960000231CEB2BC4516744ED3664553D9D368C6
:1059700013F80C30C0F81C35CBE721B101F06046BC
:10598000B6F1005F32D123B103F06046B6F1005F9B
:105990002CD1C0F84415C0F84825C0F83435002390
:1059A000C0F83875C0F81831D0F8182101920122DA
:1059B0000199C0F85035C0F8403502613DB140232F
:1059C000C0F804338FE7112004B0BDE8F081D0F8AF
:1059D0001831002BFBD0BCF1FF0F84D001234FF016
:1059E000A04203FA0CF3C2F808357CE70EEBCE0EAA
:1059F00004EB8E03002210205A7704B0BDE8F0813A
:105A0000177EBC4507D202311176167CB445AED361
:105A1000177EBC4514D39E423FF67BAF9F423FF6B4
:105A200078AF0EEBCE0E04EB8E04A27FFF2A3FF47C
:105A30005AAF01234FF0A0419340C1F8083552E717
:105A4000D37FC0F81C3564E7C80B00202DE9F04770
:105A500090F805C0954E0CEBCC03144606EB830280
:105A60000D46517F84B0002974D156F823A080469A
:105A7000BAF1000F04D014F0140F04BF01235377C0
:105A800095E80F000CEBCC0E06EB8E0E0EF10C071A
:105A900087E80F009EF81E909EF82130B9F1FF0FA5
:105AA00023F007038EF8213006D001234FF0A042E7
:105AB00003FA09F3C2F80C3598F806305BB9002CEC
:105AC0005BD00CEBCC0C06EB8C0C06208CF81D305C
:105AD00004B0BDE8F0872A6822B102F06043B3F158
