:1000000000000120ED0600001507000017070000A2
:10001000190700001B0700001D070000000000007A
:100020000000000000000000000000001F070000AA
:100030002107000000000000230700002507000042
:100040002707000027070000A91600002707000067
:1000500027070000270700002707000027070000E8
:1000600027070000270700002707000027070000D8
:1000700027070000270700002707000027070000C8
:1000800027070000270700002707000027070000B8
:1000900027070000270700002707000027070000A8
:1000A0002707000027070000270700002707000098
:1000B00027070000270700000000000000000000E4
:1000C0002707000027070000270700002707000078
:1000D0002707000027070000270700000000000096
:1000E0000000000000000000000000000000000010
:1000F0000000000000000000000000000000000000
:1001000000000000000000000000000000000000EF
:1001100000000000000000000000000000000000DF
:1001200000000000000000000000000000000000CF
:1001300000000000000000000000000000000000BF
:1001400000000000000000000000000000000000AF
:10015000000000000000000000000000000000009F
:10016000000000000000000000000000000000008F
:10017000000000000000000000000000000000007F
:10018000000000000000000000000000000000006F
:10019000000000000000000000000000000000005F
:1001A000000000000000000000000000000000004F
:1001B000000000000000000000000000000000003F
:1001C000000000000000000000000000000000002F
:1001D000000000000000000000000000000000001F
:1001E000000000000000000000000000000000000F
:1001F00000000000000000000000000000000000FF
:100200000348044B834202D0034B03B118477047A5
:10021000BC080020BC080020000000000548064B78
:100220001B1AD90F01EBA301491002D0034B03B1F4
:1002300018477047BC080020BC08002000000000E0
:1002400010B5064C237843B9FFF7DAFF044B13B11E
:100250000448AFF300800123237010BDBC080020C8
:1002600000000000C4C3000008B5054B1BB10549E0
:100270000548AFF30080BDE80840FFF7CFBF00BFDF
:1002800000000000C0080020C4C30000A3F5803AAD
:10029000704700BF174B002B08BF134B9D46FFF75D
:1002A000F5FF00218B460F461348144A121A01F03D
:1002B000A3FD0E4B002B00D098470D4B002B00D018
:1002C00098470020002104000D000D48002802D0AE
:1002D0000C4801F003FF01F0D3FD2000290000F0DD
:1002E000C3F801F081FB00BF00000800000000001F
:1002F0000000000000000120BC08002018100020B1
:10030000DD2000007D6500000A4608B5014624484E
:10031000244E254D254C01F085FB002000F06EF9A0
:100320003268234600BF00BF00BF00BF00BF00BF50
:1003300000BF00BFAA422FD000BF00BF00BF00BF58
:1003400000BF00BF00BF00BF00BF00BF00BF00BFB5
:1003500000BF00BF00BF00BF00BF00BF00BF00BFA5
:1003600000BF00BF00BF00BF00BF00BF00BF00BF95
:1003700000BF00BF00BF00BF00BF00BF00BF00BF85
:1003800000BF00BF00BF00BF00BF00BF00BF00BF75
:1003900000BF00BF00BF00BF013BC3D1BDE700BF2E
:1003A000C0BA0000040000200024F400A086010070
:1003B000014608B52348244E244D254C01F032FB5C
:1003C000002000F01BF93268234600BF00BF00BFC9
:1003D00000BF00BF00BF00BF00BFAA422FD000BFB8
:1003E00000BF00BF00BF00BF00BF00BF00BF00BF15
:1003F00000BF00BF00BF00BF00BF00BF00BF00BF05
:1004000000BF00BF00BF00BF00BF00BF00BF00BFF4
:1004100000BF00BF00BF00BF00BF00BF00BF00BFE4
:1004200000BF00BF00BF00BF00BF00BF00BF00BFD4
:1004300000BF00BF00BF00BF00BF00BF00BF013B47
:10044000C3D1BDE7E4BA0000040000200024F4009A
:10045000A086010008B50378022B02D0012B00D042
:1004600008BD4068FFF7A4FFF0B5354D0FCD8BB048
:1004700004AC0FC495E80300324B00934FF4807531
:1004800084E803005819CDE901502F4A039507234A
:10049000694604A800F03AFB08B1FFF789FF04465B
:1004A00000F0BEF829482A4F2A4E2B4D01F02EFBB2
:1004B000002000F0A3F82146284801F0B3FA0134E7
:1004C0003A682B4600BF00BF00BF00BF00BF00BF9F
:1004D00000BF00BFB2422FD000BF00BF00BF00BFAF
:1004E00000BF00BF00BF00BF00BF00BF00BF00BF14
:1004F00000BF00BF00BF00BF00BF00BF00BF00BF04
:1005000000BF00BF00BF00BF00BF00BF00BF00BFF3
:1005100000BF00BF00BF00BF00BF00BF00BF00BFE3
:1005200000BF00BF00BF00BF00BF00BF00BF00BFD3
:1005300000BF00BF00BF00BF013BC3D1B8E700BF91
:10054000F4BD0000D80800205504000004BB0000E2
:10055000040000200024F40040420F0030BB0000E3
:100560004FF0A042044B1B5CD2F80405D840C043B6
:1005700000F00100704700BF0CBE0000044A115C8F
:1005800001234FF0A0428B40C2F80C35704700BFEA
:100590000CBE0000044A115C01234FF0A0428B40C6
:1005A000C2F80835704700BF0CBE00004FF0A043F2
:1005B0004FF0804C4FF000404FF480014FF48042E8
:1005C000C3F808C5C3F80805C3F80815C3F808251B
:1005D000704700BF4FF0A0434FF0804C4FF00040F9
:1005E0004FF480014FF48042C3F80CC5C3F80C05EA
:1005F000C3F80C15C3F80C25704700BF074B4FF02C
:10060000A041185CD1F804350122824022EA03009F
:100610001340C1F80805C1F80C3570470CBE000046
:100620004FF0A0430322C3F878274FF0804CC3F863
:100630007C274FF00040C3F858274FF48001C3F8DF
:1006400038274FF48042C3F808C5C3F80805C3F83B
:100650000815C3F808257047014B185C704700BFA8
:100660000CBE00001E2809D01F2809D0162809D06A
:100670000E2814BF4FF0FF30032070470020704752
:100680000120704702207047054B4FF0A042034401
:10069000D2F810051B79D840C04300F00100704724
:1006A0000CBE00004FF0A0430C22C3F83427C3F85F
:1006B0003827C3F83C27C3F8402770470D2809D0D6
:1006C0000E2809D00F2809D0102814BF4FF0FF3092
:1006D00003207047002070470120704702207047B8
:1006E000014B0344187970470CBE00000649074AC5
:1006F000074B9B1A03DD043BC858D050FBDC00F0CD
:100700001BF8FFF7C7FD0000D0C300000000002069
:10071000BC080020FEE7FEE7FEE7FEE7FEE7FEE797
:10072000FEE7FEE7FEE7FEE7014B024A1A6070476C
:10073000040000200090D0034FF0704393F8E02FA6
:10074000062A1AD0B54AD2F8883043F47003C2F8AA
:100750008830BFF34F8FBFF36F8F4FF01023D3F864
:100760000022002AC0F22981D3F80432002BC0F203
:100770002481AB4BAB4A1A607047D3F8E42F1007C3
:10078000E0D1D3F8E83F03F0F002302A53D003F071
:10079000E003402B4FD04FF07043D3F8E83F03F015
:1007A000E003402B65D04FF07043D3F8E83F03F0EF
:1007B000E003402B00F081804FF07041D1F8E83F1A
:1007C00003F0F003502B00F0A6804FF07043D3F8F5
:1007D000E83F03F0F002302A12D003F0E002402A92
:1007E0000ED003F0E003402BACD14FF08043D3F8A0
:1007F0000024D20744BF6FF00102C3F80024A1E730
:100800004FF080524FF07043D2F8582293F8E01F17
:100810004FF0804002F04F020629C0F8E42E91D13B
:10082000D3F8E42F11078DD1D3F8E83F03F0F0029D
:10083000302ADAD0D5E74FF080524FF07043D2F82B
:10084000242393F8E01F7848C2F304220629C0F855
:1008500040257FF477AFD3F8E42F11077FF472AF10
:10086000D3F8E83F03F0F003302B94D16F4B704A7C
:100870005A674FF080524FF07043D2F8442293F8F9
:10088000E01F4FF08040C2F342320629C0F83C25F9
:100890007FF458AFD3F8E42F12077FF453AFD3F8A7
:1008A000E83F03F0F003302B7FF47DAF5B4AD2F8D2
:1008B000FC3023F08073C2F8FC304FF070424FF0F0
:1008C000804192F8E00F00230628C1F80C31C1F8EE
:1008D0001031C1F838357FF435AFD2F8E43F13F06A
:1008E0000F037FF42FAFD2F8E82F02F0F002302A86
:1008F0007FF462AF4F4A0320C1F8A0054FF0050C0A
:1009000001203F21C2F810C6C2F88806C2F8183686
:10091000C2F8141650E74FF08052474BD2F8040447
:10092000C3F82005D2F80804C3F82405D2F80C0453
:10093000C3F82805D2F81004C3F82C05D2F8140423
:10094000C3F83005D2F81804C3F83405D2F81C04F3
:10095000C3F84005D2F82004C3F84405D2F82404B3
:10096000C3F84805D2F82804C3F84C05D2F82C0483
:10097000C3F85005D2F83004C3F85405D2F8340453
:10098000C3F86005D2F83804C3F86405D2F83C0413
:10099000C3F86805D2F84004C3F86C05D2F84404E3
:1009A00091F8E02FC3F87005062A7FF4CBAED1F89A
:1009B000E43F18077FF4C6AE07E7204A0123C2F8D8
:1009C0000435D2F80034002BFBD04FF01023152152
:1009D0001A4AC3F80012D2F80034002BFBD04FF0B3
:1009E00010231521154AC3F80412D2F80034002B45
:1009F000FBD000231149C2F80435D1F80034002B94
:100A0000FBD0BFF34F8F05490D4BCA6802F4E0627B
:100A10001343CB60BFF34F8F00BFFDE700ED00E055
:100A2000040000200090D0030030014000C00740C7
:100A30000DF0ADBA0050004000C0004000E00140A1
:100A40000400FA0510B50378012B84B020D0022BE6
:100A50000FD0DBB92849294800F04AF9284B002873
:100A60003BD003221B698DF8082002A8984704B0E8
:100A700010BDC06823490390012223488DF8083037
:100A800000F01AFC1E4902A80B69984704B010BD7B
:100A900041681B480978019300F016F9184A98B983
:100AA0009168D368994205D013698DF8080002A8AF
:100AB0009847134A9068D36891881B1A994215D2B7
:100AC0000123537504B010BD019B116903908DF88B
:100AD000083002A888470A4AECE70B48012203F1D4
:100AE000180104B0BDE8104000F026BB05490648D7
:100AF000012200F0E1FBC9E7F00A0020F40A00201F
:100B0000D80A0020EC0A0020080000202DE9F0415E
:100B10002E4D8AB02A61002950D08A889846044612
:100B20000B4628460968019300F0BEF810B10AB0E0
:100B3000BDE8F081019B05F11C009A89996800F0DD
:100B4000B3F80028F3D1237CDFF890E01E1A637C11
:100B500018BF012683420CBF07460E27BEE80F00D0
:100B60000DF1080CACE80F00626802922268039253
:100B7000E2680492A26805929EE80F008CE80F00DC
:100B8000626908921248134A8DF81C6002A98DF818
:100B900024808DF81D7000F05BF90028C7D1236810
:100BA00068750133C3D09DF825305BB10A49084808
:100BB000012200F081FB0AB0BDE8F08107200AB0F5
:100BC000BDE8F081024800F0CDFCEFE7D80A002034
:100BD00008000020450A0000EC0A002014BE0000B6
:100BE00008B5054800F0AAF800B108BDBDE8084006
:100BF000024800F0A3B800BFD80A0020F40A002081
:100C000030B50F4C014683B02046657D00F070F88A
:100C1000034615B9184603B030BD00210190617537
:100C20000848012204F1140100F046FB019B002852
:100C3000F0D0FFF7BDFB019B184603B030BD00BFED
:100C4000D80A00200800002000B5014683B00F48F4
:100C500000F03AF8034610B1184603B000BD019009
:100C60000B4800F01DFB019B0028F5D10949081D28
:100C700000F03EF8019B0028EED10649044801220D
:100C800003B05DF804EB00F057BA00BFF40A00208F
:100C900008000020F00A002008B5024800F0C2F960
:100CA000002008BD0800002059B142B1531E1A406F
:100CB00005D1826001608380C260104670470920C0
:100CC00070470E20704700BFD0F808C0C2680346C6
:100CD0008088A2EB0C02904201D204207047DA68AF
:100CE00010401A681154DA6801320020DA60704747
:100CF00003468068DA6890420AD098689A88024071
:100D00001868825C0A709A68013200209A60704705
:100D100005207047D0F808C0C368A3EB0C039942C4
:100D200001D3052070478368B0F804C0194401EA74
:100D30000C0103685B5C13700020704703460020C1
:100D4000DA689A60704700BF28B310B5964622B3A0
:100D50008268C368DEF800409B1ACEF80030C3B149
:100D6000A9B19C4228BF1C467CB1013901EB040C9F
:100D70008268838813400268D35C01F8013F83686E
:100D8000614503F101038360F2D1CEF800400020F9
:100D900010BD052010BD0E2070470E2010BD00BFF5
:100DA000002839D0002A37D08368D0F80CC030B57D
:100DB000848801332344A3EB0C03D2F800C01360F2
:100DC00063B339B39C4528BF9C46BCF1000F1FD0CC
:100DD000C36891F800E01C40036803F804E0C368AE
:100DE000BCF1010F03F10103C36011D04C1E644438
:100DF000D0F80CE08388056803EA0E0311F801EFD0
:100E000005F803E0C368A14203F10103C360EFD119
:100E1000C2F800C0002030BD0E207047042030BD55
:100E200070B5161E07DD0C468D1914F8010BFFF77F
:100E30000BFFA542F9D1304670BD00BF10B50C467E
:100E40002046FFF7DDFE0528FAD0012010BD00BFC7
:100E50002DE9F043704C037904EB431C89B09CF8F6
:100E60001B50002D40F0B1804D7F8CF81C50D1F804
:100E700000E0D0F800C090460279BEF1FF3F4FEA93
:100E8000431391460BD04FF0A046012505FA0EF50D
:100E9000C6F808550EF5E075032246F825204D6882
:100EA0006A1C06D005F5E0764FF0A047002247F80F
:100EB000262004EB49164A7D377F0E7D324301928E
:100EC0008A69002F56D1CCF82425012E019ACCF83E
:100ED0006C25CCF81455CCF80CE500F09380054651
:100EE000E018C0F804800869E050B8F1000F2AD07B
:100EF0002A79097F019304EB42124CF30730127FE9
:100F0000002A6AD00022CCF81021DCF81061049687
:100F1000049ECCF82021DCF820610596059ECCF8D3
:100F20002421DCF824610696069ECCF84421DCF8E6
:100F300044210792079A394ACCF8042300F034FD83
:100F4000D5F800C0019B2A7904EB4212127F002AD7
:100F50003FD00822CCF8002503F1100200212344E1
:100F6000224408464FF480741976D1805C8309B01E
:100F7000BDE8F083CCF82425012E019ACCF86C252D
:100F8000CCF80CE5CCF81455A9D18E68771C06D0A6
:100F90004FF0A04E06F5E07500224EF82520CD68F2
:100FA0006A1C0DD04FF0A0424FF0010E0EFA05FE64
:100FB000C2F808E5174605F5E07E032247F82E2023
:100FC000CCF80855CCF8106589E7082009B0BDE8D1
:100FD000F0830422CCF80025BEE7CCF81C21DCF815
:100FE0001C610296029ECCF84421DCF84421039255
:100FF000039A0B4ACCF8042300F0D6FCD5F800C0C5
:10100000019BA0E78E68751CC9D04FF0A04506F57E
:10101000E07E45F82E70C2E7040B002010030200AA
:101020008000020030B5404A90F804C0036802EB2B
:101030004C11097F00296BD00021C3F8001502EB89
:101040004C114968A9B1047902EB441443F3073108
:10105000257F01F01F0E0124490904FA0EF4203106
:10106000002D58D0314DDFF8C8E0C3F808E345F84B
:1010700021400179D3F80C45D3F814E502EB411176
:101080004FF0FF35097FB1B3D3F80815D3F8100539
:10109000C3F80C55C3F81455C3F80855C3F81055D8
:1010A000651C06D004F5E0744FF0A043022543F818
:1010B0002450BEF1FF3F06D00EF5E07E4FF0A04376
:1010C000022443F82E40441C06D04FF0A04300F504
:1010D000E070022443F820404B1C06D04FF0A043A0
:1010E00001F5E071022043F8210002EB4C120023CD
:1010F000D376536030BDD3F80815D3F81005C3F884
:101100001455C3F80C55C3F80855C3F81055C7E774
:10111000C3F8001593E7054DDFF818E0C3F808E3BE
:1011200045F82140A5E700BF040B002000E100E0E6
:10113000100302008402020030B5DFF860C10379B9
:101140000CEB431387B093F81CE0BEF1000F2CD1D9
:1011500093F816E0BEF1000F63D19A7599600168AB
:10116000A3F814E00079C1F81CE1D1F81C31049314
:101170000123049A8B60C1F81CE1D1F81C3105935E
:101180000CEB4012059BD2F808E00546908A938A42
:1011900080B201331EF8000093825368C1F81C0529
:1011A000002B41D0002007B030BD01F0604EBEF1F1
:1011B000005F33D193F816E0BEF1000F31D19A757C
:1011C000A3F814E0996003680179C3F820E1D3F82B
:1011D000202101920198C3F858E1D3F858010290F8
:1011E0000CEB4112029892F816E0D2E90102C3F822
:1011F00044250122C3F848E59A600028D2D1D3F8EB
:101200002021D3F858010243F9D00CEB41110028FA
:101210004FF0000318BF0F208B75C4E7102007B0F4
:1012200030BD112007B030BD907D938A9BB28342C0
:1012300005D31EE0938A9BB2B3F5807F03D0D1F82B
:101240001C31002BF6D0938A9BB2B3F5807FECD093
:101250000023C1F81C31D1F81C310393039B938AFE
:101260009BB21EF80340938A01339382C1F81C4558
:10127000DBE7938A9BB2B3F5807F0CD0D1F81C31A9
:10128000002BFBD00123CB6000200CEB451C00237E
:101290008CF8163087E70F20F7E700BF040B00201B
:1012A0000279044B03EB4213987D003818BF0120EC
:1012B000704700BF040B0020F0B5DFF878E2047936
:1012C0000EEB441C89B09CF81C30E3B99CF8173035
:1012D000DCF804501F46002D54D003684FF401760B
:1012E000C3F80863002F00F08F809CF818000028D6
:1012F00040F01381CCF810108CF818204FF40172D4
:10130000C3F8042338E001F06043B3F1005F36D145
:10131000DCF804309CF81750002B00F0E0800368E4
:101320004FF40476C3F80863002D40F08D800EEB77
:10133000441400256576E27525760368E16000793E
:10134000C3F81051D3F810410194019CC3F84451E3
:10135000D3F844410294029CC3F834150121C3F828
:10136000382519600EEB401244015268002A38D02B
:101370004FF40472C3F80423002009B0F0BD10201C
:1013800009B0F0BD002B40F0B6809CF81A301E4624
:1013900003688CF81720CCF80C108CF819508CF8D6
:1013A0001850002E3DD00022C3F84421D3F8442128
:1013B0000592059A0EEB4412D3F82411D3F8085184
:1013C000D3F844C1002D5FD151EA0C05F4D00EEBE7
:1013D00044130022DA75002900F0A480032009B02C
:1013E000F0BDD3F81021D3F84411D3F824010A43F7
:1013F0000243F6D074440023E375984218BF0320DB
:101400000029BDD00F20BBE78CF817209CF81A20CC
:10141000CCF80C108CF819708CF81870002A7FF436
:101420006DAF0022C3F82421D3F82411039103994E
:10143000C3F80821D3F808210492049A01221A6003
:10144000002D7FF45BAFAEE79CF81840002C5BD119
:10145000CCF810108CF818200079C3F81041D3F89C
:1014600010510195019DC3F84441D3F844410294C1
:10147000029CC3F83415C3F83825D3F8002242F093
:101480002002C3F800226DE751EA0C059FD1D17DFF
:1014900099B1C3F80851D3F8081106910699D66896
:1014A000517ED3F818357354537ED17D0133537672
:1014B000537E99423BD903687EE7C3F80811D17582
:1014C000D3F8081107910799D3F81835537E0268AD
:1014D0000EEB4414A37EEBB1012313604CE7002D07
:1014E0003FF425AF9CF8184094B98CF81820036895
:1014F000CCF81010B0E79CF818304BB98CF81820D5
:101500000368CCF810104EE74FF40472C3F80423BC
:10151000112035E7012353602EE74FF40172C3F821
:101520000423F5E7BCF1000F7FF46CAFCFE7D5756E
:10153000CDE700BF040B0020094B0179026803EBE3
:1015400041131B7F2BB1D2F81001003818BF0120C6
:101550007047D2F80801C01A18BF0120704700BFB9
:10156000040B002002790E4B03EB42131A7FB2B931
:10157000997EA1B9026882B0C2F82411D2F824C1C0
:10158000CDF800C0DDF800C0C2F80811D2F808118B
:101590000191019901201060987602B07047704760
:1015A000040B00200279054B03EB42131A7F1AB992
:1015B0000168012048609A76704700BF040B002044
:1015C000104A0179036802EB411282B0127F62B1C6
:1015D0000022C3F82421D3F824210092009AD3F8E2
:1015E0008004C3F8800402B07047C3F82421D3F804
:1015F00024210192019AD3F88004C3F8800402B038
:10160000704700BF040B002010B51C490379026825
:101610004FEA431C01EB431384B0187F5C68A0B110
:101620000023C2F85831D2F85831009301230099B1
:10163000D3600CB104B010BDD2F85831002BF9D1F1
:10164000D2F85831002BF7D0F4E74FF0010EC2F872
:101650000CE06CB19A8A98759B688DF8000051F87F
:101660000C108DF8082068460193A04704B010BD07
:101670004FF480729A8204B010BD00BF040B0020AA
:10168000084B0179026803EB41131B7F13B101235F
:10169000536070474FF401710123C2F8081353607F
:1016A000704700BF040B002030B5A84B1A7F8FB0E5
:1016B000002A51D0A64AD2F82401002800F0F58073
:1016C0000021C2F82411D2F824C1CDF808C00220AC
:1016D000A3F817108DF828000299D2F88014C2F8E8
:1016E00080140D91D2F83C25D86819688DF8302007
:1016F0000B905A680AA89047944B954AD2F8441127
:1017000061B10021C2F84411D2F844C1D87DCDF8AE
:1017100004C0DDF804C0002840F008818C4AD2F8EB
:101720002011B9B10020C2F82001D2F820C1997D62
:10173000CDF800C0DDF800C061B1D2F84C158DF8CD
:10174000301099688DF828000B9198755A681968BF
:101750000AA890470FB030BD7D49D1F80403800539
:101760006DD5D1F82401002869D0C1F82421D1F821
:1017700024019A7E07904FF40170DDF81CC0C1F877
:1017800008030AB901224A607149DC6802228DF817
:101790002820D1F88024C1F88024D97D0D924FF003
:1017A0000000A3F817008DF830100B94D3E9001255
:1017B0000AA89047654B664AD2F81C11D9B1998A9C
:1017C000987D89B28142C0F0A0804FF0000CC2F831
:1017D0001CC1D2F81C210592059A60B1D3E9012100
:1017E0008DF830000B9183F816C019688DF828C069
:1017F0000AA89047554B564AD2F844110029A9D05F
:101800000021C2F84411D2F84401997E0490049852
:1018100009B101211160DA7D002A9BD0D86893F8C4
:1018200019C00B9000210122D9758DF828208DF860
:1018300030C0D3E900120AA890470FB030BD444A27
:10184000D2F804134907B6D5D2F808110029B2D04E
:10185000D97D00297ED00021C2F80811D2F80811E4
:1018600008910899D868597ED2F8182542545A7EB2
:10187000D97D01325A765A7E8A429CD11A7ED86826
:10188000D3E90014002A78D00B901869DA75D86073
:101890000022587E1A768DF830005A7601228DF893
:1018A00028200AA8A047294B85E7D2F81011002963
:1018B0003FF423AFC2F81001D2F81011039103993D
:1018C000D2F83C1593F817C0C9B28C457FF415AF18
:1018D00093F818E0DD6883F817E0D3E90014BEF14F
:1018E000000F40D01876D2F8000220F02000C2F895
:1018F00000021A69DA6001228DF830C00B950AA83F
:101900008DF82820A047114BF7E60021C2F81C11E2
:10191000D2F81C1106910699988A9C68998A80B21F
:101920000131205C9982C2F81C0564E7D2F83C05BD
:101930008DF830000122D868D9758DF828200B90D9
:10194000D3E900120AA89047004BE7E6040B0020F9
:1019500000200040C2F80811D2F808010990099847
:10196000D2F8182587E701228DF830C00B950AA818
:101970008DF82820A0470A4BBFE69A7E22B9094A73
:101980004FF0010CC2F804C0064A4FF4017CC2F8C3
:1019900008C30B900022587E8DF83000DA757DE781
:1019A000040B00200020004000284FEA411113DB07
:1019B00000F1604303F5614383F8001343099B0082
:1019C00003F1604303F5614300F01F0001228240F0
:1019D000C3F880211A607047024B00F00F02D31841
:1019E0001976EBE7FCEC00E008B50021044600F0B6
:1019F000FDFA034B1B6803B1984720460AF040F8F4
:101A00005C0C00200EB400B582B003AB816853F8C3
:101A1000042B019300F040FE02B05DF804EB03B02C
:101A2000704700BF0FB400B5074983B004AB086826
:101A300053F8042B8168019300F02EFE03B05DF88B
:101A400004EB04B0704700BF1C00002030B5054611
:101A500089B008460C4600F053FA2B4B069301223E
:101A60006B6B0792CDE9044004A910440222AC68D4
:101A7000039001910292002B3ED0636EB4F90C20CA
:101A8000D8071CD5910423D442F4005223F4005308
:101A9000A2816366990433D4284601AA214602F044
:101AA000C7FF636E002814BF4FF0FF350A25DA0721
:101AB00002D4A3899B0510D5284609B030BD9005F6
:101AC00011D59104E0D59B04E6D54FF0FF35F0E742
:101AD0009B04E1D54FF0FF35EEE7A06D00F008FA6A
:101AE000284609B030BDA06D00F0FAF9B4F90C2019
:101AF000636E9004CED4C7E7284600F02FF9BCE708
:101B00004FF0FF35D3E700BF00BB0000024B01469A
:101B10001868FFF79BBF00BF1C000020024A034962
:101B2000034803F001B900BF10000020B9500000C5
:101B3000200000200C4B4168994210B5044601D0AA
:101B400003F0BAFAA168094B994202D0204603F08B
:101B5000B3FAE168064B994204D02046BDE8104034
:101B600003F0AABA10BD00BF240B00208C0B00208C
:101B7000F40B002008B54B6EDA0702D48B899B0565
:101B800001D5002008BD886D00F0AAF9002008BD2D
:101B900008B54B6EDA0702D48B899B0501D500206E
:101BA00008BD886D00F0A4F9002008BD2DE9F843B8
:101BB000314A324C3249DFF8DC90DFF8DC80314FBB
:101BC0001160002504232946082204F15C00C4E9C1
:101BD00003352D4EA560C4E90055C4E90555656679
:101BE00000F00AF904F15800C4E90749C4E909877B
:101BF000E66200F06DF92946244B6367082204F180
:101C0000C400C4E91A55C4E91E552567C4F8CC5070
:101C1000C4F8805000F0F0F804F1680304F1C0004B
:101C2000C4F88430C4E92298C4E9247600F050F95D
:101C3000174BC4F8DC30294604F596700822C4E935
:101C40003455C4E93855C4F8D850C4F83451C4F8F0
:101C5000E85000F0D1F804F1D003C4E93D87C4F89E
:101C6000F09004F59470C4F8FC60C4F8EC30BDE862
:101C7000F84300F02DB900BF5C0C0020240B0020BD
:101C80001D1B0000295400004D54000009000100F4
:101C900012000200C1530000E9530000F8B50746E6
:101CA0002A4800F01DF92A4B1B68002B43D0294E0F
:101CB0007368013B26D4B46803E05A1C04F168043D
:101CC00020D0B4F90C50013B002DF6D1224BE3603B
:101CD00004F15800656600F0FBF81C4800F008F9B4
:101CE000C4E90155C4E9045508222560A5612946C7
:101CF00004F15C0000F080F8C4E90C55C4E911550A
:101D00002046F8BD35680DB12E46D1E74FF4D671A7
:101D1000384600F0E9F9044680B10423C0E90053D5
:101D20000C302946A0604FF4D072254600F064F8CC
:101D300034602E46BCE7FFF739FFB8E7034834604C
:101D400000F0D6F80C233B60DAE700BF7C0C0020E3
:101D50005C0C0020100000200100FFFF10B50446BD
:101D60000A4800F0BDF8636B23B9094B094A1B68A8
:101D7000626323B1BDE81040044800F0B9B8FFF732
:101D800015FFBDE81040014800F0B2B87C0C0020FF
:101D90005C0C0020351B0000014800F0A1B800BF1A
:101DA0007C0C0020014800F0A3B800BF7C0C002090
:101DB00008B5054800F094F8BDE80840034A044916
:101DC000002002F0B1BF00BF7C0C002010000020FA
:101DD000751B000008B5054A0549002002F0A4FF64
:101DE000BDE80840034800F083B800BF10000020A1
:101DF000911B00007C0C002030B58407864603460A
:101E000006D0A2B303F8011B980702F1FF32F8D104
:101E1000032A26D95FFA81FC0CEB0C2C0F2A0CEB61
:101E20000C402AD922F00F0C9C44C3E90000C3E9FE
:101E3000020010336345F8D112F00C0F02F00F04CA
:101E400017D04FEA940C0CF1FF351A4603EB8C0CBB
:101E500042F8040B6245FBD1043304F0030203EBA8
:101E6000850322B11A4403F8011B9A42FBD1704644
:101E700030BD2246002AF5D1F9E71446E1E700BF5C
:101E800070B50E4E0E4DAE4208D0761BB610002433
:101E900055F8043B01349847A642F9D8094E0A4D3B
:101EA00009F0F0FDAE4208D0761BB610002455F8BC
:101EB000043B01349847A642F9D870BDB008002011
:101EC000B0080020B8080020B0080020704700BF0C
:101ED000704700BF704700BF704700BF704700BF2A
:101EE000704700BF0120704701207047704700BF56
:101EF000704700BF0000000000000000000000006C
:101F000030B490F800F020F007016FF0000C10F0F2
:101F1000070491F820F040F048804FF000046FF083
:101F20000700D1E9002391F840F000F1080082FA9F
:101F30004CF2A4FA8CF283FA4CF3A2FA8CF34BBB6A
:101F4000D1E9022382FA4CF200F10800A4FA8CF2E3
:101F500083FA4CF3A2FA8CF3E3B9D1E9042382FAB1
:101F60004CF200F10800A4FA8CF283FA4CF3A2FAC6
:101F70008CF37BB9D1E9062301F1200182FA4CF2FE
:101F800000F10800A4FA8CF283FA4CF3A2FA8CF365
:101F9000002BC6D0002A04BF04301A4612BAB2FA87
:101FA00082F200EBD20030BC7047D1E9002304F08C
:101FB0000305C4F100004FEAC50514F0040F91F8C1
:101FC00040F00CFA05F562EA05021CBF63EA05035E
:101FD00062464FF00004AAE7024B13B1024800F03A
:101FE0007DB87047000000007D6500002DE9F04FCE
:101FF000384FDFF8E49083B00E4601903868FFF761
:102000006FFFD9F800B0BBF1000F32D0DBF804301D
:102010005C1E2ED40BF1040505EB83057EBBDBF8BB
:102020000430D5F80080013BA34216BF0023CBF853
:1020300004402B60B8F1000F16D03868DBF804A01C
:10204000FFF756FFDBF888210123A34013422ED16E
:10205000C0473868FFF744FFDBF80420D9F80030A8
:10206000524533D15B4531D1013C631CA5F10405D8
:10207000D4D1386803B0BDE8F04FFFF739BFD5F8C9
:1020800000319E4204F1FF32C9D0002CF1D0D5F8C6
:10209000FC30B342A4F1020412D0621CA5F1080581
:1020A000EDD1386803B0BDE8F04FFFF721BFDBF892
:1020B0008C21D5F88010134205D10198C047C8E79C
:1020C0001446043DABE70846C047C2E7002BD0D01A
:1020D0009B469BE720020020800C00200023014645
:1020E0001A46184604F0C4BB2DE9F04F01F10B026B
:1020F000162A85B0804624D8102900F2AB8002F061
:102100008BFC022518211022B74C2144A1F10800B4
:102110004E68864200F062817268F168B46822F00D
:1021200003023244E1608C60516841F00101404695
:10213000516002F077FC06F10804204605B0BDE8C6
:10214000F08F32F0070200F18580914200F2828028
:10215000019202F061FC019AB2F5FC7FC0F0BA81F5
:10216000570A7FD0042F00F27281970907F13905D1
:102170002BB207F1380CDB009B4C2344A3F108067B
:102180005B689E4207D10DE00028DF6880F2138172
:10219000BE4207D03B46596821F00301881A0F2838
:1021A000F2DD6546236991498B4200F0F1805E685B
:1021B00026F00306B11A0F2900F391818B480029FC
:1021C000C4E9040080F27981B6F5007F676880F089
:1021D0001981F10801310FFA81FC76090121B14022
:1021E00054F83C0098600F4304EBCC010839D960E7
:1021F000676044F83C30C360AB1001269E40BE428D
:1022000036D83E4206D125F0030576003E4205F160
:102210000405FAD004EBC50A04EBC507A946F96822
:102220000EE0486820F0030EAEEB020CBCF10F0F7D
:102230000B46C96800F31881BCF1000F80F22D81B4
:102240008F42EED109F1010919F0030F07F10807D8
:10225000E5D17FE10C23C8F800300024204605B00A
:10226000BDE8F08F4FF4007340254FF03F0C83E73B
:10227000A768796821F0030393429A4603D3991A19
:102280000F2900F387805A495A4E096810311144CA
:102290000820CDE9011203F091FF01994B1E034480
:1022A0004542834630681D40B0F1FF3F18BF2946C4
:1022B0004046019103F05AFF411C0546DDE9011239
:1022C00000F02B8107EB0A0C844500F224814A4B75
:1022D000186800EB01090BF1FF3EC3F8009000F015
:1022E0008981306801301BBFA5EB0C0C09EB0C0099
:1022F0003560186015F00700814600F04881C0F194
:1023000008000544CDE901236B1803EA0E01584487
:10231000401A00EA0E06314640469B4603F026FF6F
:10232000421CDDE9012300F09581401B304440F060
:1023300001011868A56000EB0609A7426960C3F8AF
:10234000009017D0BAF10F0F40F25E81AAF10C0194
:1023500021F0070C796801F0010141EA0C01796074
:10236000052607EB0C01BCF10F0FC1E9016600F275
:1023700063816968214B1E684E4538BFC3F80090E1
:102380001F4B1E684E4501D2C3F800902F46C6E091
:10239000676831E7BD1841F0010142F001027A603F
:1023A0004046A560696002F03DFB07F10804204645
:1023B00005B0BDE8F08F9A6801931944D760BA6000
:1023C0004A6842F0010240464A6002F02BFB019B42
:1023D00003F10804204605B0BDE8F08FCE68B14295
:1023E0007FF49AAE0235DDE630020020380200208C
:1023F000B40C002024020020840C0020B00C00202B
:10240000AC0C0020B6F5206F4FEA56207CD3142880
:1024100000F2D38000F15C0109B25B30C90004EB2B
:10242000010C6158ACF1080C8C4503D1A8E0896817
:102430008C4504D0486820F00300B042F7D8D1F8AA
:102440000CC0C3E9021CCCF80830CB60D4E6142FD2
:1024500072D9542F00F2BA80170B07F16F052BB217
:1024600007F16E0CDB0087E69D1842F001025A600E
:102470009E68864AF1608E60C4E90455C5E902226F
:102480004CF001026A60404643F80EC0019302F02E
:10249000C9FA019B03F10804E0E69E441C46DEF8FD
:1024A000043043F00103CEF8043054F8083F4046AE
:1024B000D9608B6002F0B6FAD0E61E4440467268DE
:1024C000019342F00102726002F0ACFA019B03F149
:1024D0000804C3E6D508691C09B2C90014E69D18B2
:1024E00042F001025A60694A0193C4E90455C5E902
:1024F000022241F001026A604046995102F092FACC
:10250000019B03F10804A9E6B00900F1390109B201
:102510003830C90083E7A74263D0A768796821F003
:1025200003009042A0EB020102D30F293FF732AF24
:10253000404602F077FA90E607F15C052BB207F10E
:102540005B0CDB0018E6514651F808398B428A468D
:1025500040F09A8015F0030F05F1FF35F3D1636861
:1025600023EA0603636076009E423FF681AE1EB901
:102570007EE6760009F104091E42FAD04D4649E68E
:102580008010012606FA00F00743676059E7CDE99D
:1025900002236B1803EA0E01ABEB010606EA0E06F6
:1025A00031464046019303F0E1FD431C019B04BF0B
:1025B0004E461846DDE90223B7E6542827D8300BEB
:1025C00000F16F0109B26E30C90028E7B7F5AA7FA4
:1025D00027D8D70B07F178052BB207F1770CDB0072
:1025E000CAE52B4B186800EB01090BF1FF3EC3F85D
:1025F000009076E615EA0E0F7FF473AEA56851449D
:1026000041F001016960B5E601236B6090E7B0F528
:10261000AA7F25D8F00B00F1780109B27730C90004
:10262000FDE640F254539F4224D8930C03F17D05FC
:1026300003F17C0CEB009FE507F108014046CDE972
:10264000012305F0ABFAA568029B6968D3F80090F6
:10265000019A8FE6A9F108010BEB0100002664E660
:1026600040F2545188420BD8B00C00F17D01C900F2
:102670007C30D4E64FF47E737F254FF07E0C7BE5F3
:102680004FF47E717E20CAE663686CE73802002052
:10269000840C0020000000002DE9F04FD9B0164650
:1026A00003911C4683460A9303F0E4FC03681393EA
:1026B0001846FFF725FC08221290002128A8FFF7F2
:1026C0009BFBBBF1000F04D0DBF83430002B01F092
:1026D0000182039B5A6EB3F90C30D00740F1868516
:1026E000990400F11487039943F4005322F4005233
:1026F0008B814A66930402F17C80039BB3F90C3012
:102700001D0740F14D85039A1269002A00F04885A3
:1027100003F01A020A2A00F052859FED957B0023F0
:102720009E46CDE916EE8DED0E7BCDE92D332FAB18
:102730002C939846CDF850E0CDF854E0CDF814E055
:10274000CDF834E034468C4BD3F8CC5103F07EFC0A
:1027500028AA0346009222A922465846A8470028E4
:1027600000F01F84C0F21484229A252A034601D067
:102770001C44E8E7A71B054640F0168400234FF0F1
:10278000FF328DF87F309A46069301342378049205
:1027900001349946A9F120035A2B5CD8DFE813F0E5
:1027A00007035B005B0003035B005B005B00E6026A
:1027B0005B005B00490258025B005402C9025B00E7
:1027C000C502D600D600D600D600D600D600D60068
:1027D000D600D6005B005B005B005B005B005B002B
:1027E0005B00EE005B004B017303EE00EE00EE00B9
:1027F0005B005B005B005B00C1025B005B0068028A
:102800005B005B005B0016025B00C7035B005B00C4
:1028100034085B005B005B005B005B005B005B00FF
:102820005B00EE005B004B013601EE00EE00EE00B7
:102830006903360132015B005F035B00250311036E
:10284000340332015B001602300193035B005B002E
:1028500097085B003001B9F1000F00F0B883002346
:10286000CDE90B3301228DF8FC908DF87F30079372
:102870000892049310933FAE02922E9D1AF08403A7
:10288000AE4600F0F9809DF87F201AB32D980027FE
:10289000013001220135C8F8042007280DF17F021C
:1028A000CDE92D05C8F8002000F3AA8408F1080836
:1028B00087B12D98013020AA0235C8F800200728DA
:1028C0004FF00202CDE92D05C8F8042000F3A784DB
:1028D00008F10808802B00F08483049B089A9F1A53
:1028E000002F00F3DA801AF4807F40F01381089BF8
:1028F000C8F804301D442D9BC8F800600133072B35
:102900002E952D9300F3EA8308F108081AF0040FBE
:1029100005D0069B029A9E1A002E00F38F84DDE9F3
:10292000053202998A42ACBF9B185B180593002DB3
:1029300040F0988300232D93079B1BB107995846BD
:1029400005F02CF90DF1BC082646FBE6A9F1300391
:10295000002214F8019B02EB820203EB4202A9F170
:102960003003092BF5D9069214E700BFAFF30080BE
:102970000000000000000000380600200A9B07331A
:1029800023F00703B3EC027B8DED0E7B0A930F9BC4
:102990008DED1A7A23F000431B93DDE91A01AF4B4A
:1029A0004FF0FF3208F0F0FF002840F0D286DDE95A
:1029B0001A01AA4B4FF0FF3208F0C8FF0546002865
:1029C00040F0C786DDE90E01002200232AF0800ACC
:1029D00008F0B2FF002841F034839DF87F30B9F150
:1029E000470FCCBF9E4E9F4E002B41F04B860322DB
:1029F000CDE90B33079308920493109302923CE7BE
:102A00002378C5E623784AF0200AC1E61AF0200FA1
:102A100040F094860A9A1AF0100F52F8045B41F0C5
:102A200080871AF0400F0A9201F0208145F3C037E9
:102A30003B462DB237E2B9F1430F00F087871AF019
:102A4000100F40F083870A9B1B688DF8FC30012330
:102A5000029308933FAE0A9B2E9D04330A930023F2
:102A6000CDE90B338DF87F300793049310931AF060
:102A70008403AE467FF407AF069A0298171A002F18
:102A800000F3C6849DF87F20002A7FF4FFAE049BEC
:102A9000089A9F1A002F7FF726AF734B2D9A119338
:102AA000102F25DD294610232546039C04E0103F06
:102AB000102F08F1080819DD01326B481031072A80
:102AC000C8E90003CDE92D21F1DD2CAA21465846A5
:102AD00002F0E2FA002840F0CD82103F102FDDE92D
:102AE0002D210DF1BC084FF01003E5DC2C460D46FE
:102AF0000132119BC8F800303D44072ACDE92D254D
:102B0000C8F8047000F3F6841AF4807F08F108080E
:102B10003FF4EDAEB9F1650F40F3EB82DDE90E0154
:102B20000022002308F0FEFE002800F0D5832D9B34
:102B30004E4AC8F80020013301350122072B2E959B
:102B40002D93C8F8042000F3CA8708F10808219BD8
:102B50000D9A934280F2E084129B139A1D44C8E9B7
:102B600000232D9B2E950133072B2D9300F3C9864F
:102B700008F108080D9B5E1E002E7FF7C7AE102ED1
:102B80002D9B41F34E863849DDF80C9011912A4671
:102B900010270D4605E008F10808103E102E41F3FD
:102BA000068001331032072BC8E90057CDE92D32DA
:102BB000F1DD2CAA4946584602F06EFA002840F092
:102BC0005982DDE92D320DF1BC08E6E70A9F57F87E
:102BD000046B00238DF87F30002E00F09F86B9F142
:102BE000530F00F089871AF010030B9340F084878D
:102BF000049B002BC1F2B9801A460B99304603F0B2
:102C0000D7FC9DF87F300790002801F07385079A64
:102C1000921B089222EAE27202920BB101320292F6
:102C20000B9B0A97049310930C9307934FF073092F
:102C300023E60A9B53F8042B0692002A80F2848430
:102C4000069A0A935242069223784AF0040A9FE5B4
:102C50002B238DF87F3023789AE500BFFFFFEF7FAD
:102C60004CBB000048BB000034BE000088BB000025
:102C70001AF0200F4AF0100000F063850A9B07331A
:102C800023F007031A46596852F8083B0A920022BB
:102C90008DF87F20049A002A18DB53EA010220F401
:102CA000906A15D1049A9AB910F001031A4602935A
:102CB00000F0078730238DF85F31049B0892CDE93F
:102CC0000B33109307930DF25F16D6E520F4806A5C
:102CD00058AE03F00702DB0843EA4173C9083032FB
:102CE00053EA0105304606F8012DF2D11AF0010F22
:102CF00000F03F81302A00F03C813023049906F82F
:102D0000013C023858AB1B1A99424FF00002B8BF81
:102D10001946CDE90B2207920893064602911092BC
:102D2000ABE523784AF0080A32E523784AF0800AB6
:102D30002EE5214611F8019BB9F12A0F01F0CF854C
:102D4000A9F13003092B98BF002201F2C38311F8C7
:102D5000019B02EB820203EB4202A9F13003092B33
:102D6000F5D942EAE27304930C4613E5584603F0A2
:102D700081F9436815931846FFF7C2F81790054686
:102D8000584603F077F9826823781692002D3FF4B5
:102D9000FFAC002A3FF4FCAC1278002A3FF4F8ACF8
:102DA0004AF4806AF4E423784AF0010AF0E49DF8DA
:102DB0007F202378002A7FF4EBAC20228DF87F203F
:102DC000E6E41AF0200F40F020840A9A1AF0100F5F
:102DD00052F8043B41F0A8851AF0400F00F03D87FF
:102DE0009BB20A925046002151E70A9A1AF0200F2E
:102DF00002F1040300F0F783126805991160C91706
:102E000051600A9326469DE40A9A049E52F8040BE8
:102E1000002147F630038E42ADF880308DF87F10E8
:102E20000346C0F256852AF0800545F0020A0028C4
:102E300040F05185002E00F06E8730238DF85F3111
:102E4000012302960C900A920DF25F164FF078095A
:102E50000B90844610900790089300F020BD2378D3
:102E60006C2B03BF63784AF0200A01344AF0100A41
:102E70008EE42378682B03BF63784AF4007A013428
:102E80004AF0400A84E41AF0200F4AF0100300F0E0
:102E9000BF830A9A073222F007029A46536852F813
:102EA000085B0A921F46002BC0F2BD83049A002AD9
:102EB0001EDB55EA07032AF0800A19D1002A00F028
:102EC000DF8630251AE01AF0200F00F06D8351469E
:102ED0000A9B073323F0070200238DF87F30049B01
:102EE000576852F8085B0A92002B80F21B838A46CF
:102EF0000A2D77F1000380F0A7833035049A9DF8FE
:102F00007F308DF85F51012AB8BF01220292012261
:102F100008920DF25F16002B01F0DB84029B013357
:102F200002930023CDE90B3307931093A5E41AF025
:102F3000200F4AF01001CBD10A9B1A1D0A9B04985E
:102F40001B680027B8428DF87F701D46C1F275805E
:102F500021F0800A002B40F01A850A92002840F0E8
:102F60004083CDE90B00089010900290079058AE76
:102F700083E4049958AA921B91424FF00003B8BF12
:102F80001146CDE90B33079308920291109374E434
:102F90000822002128A8FEF72FFF01231C44FFF779
:102FA000D2BBA71B054612D02D9A2E9B01323B4463
:102FB000072AC8E900672E932D9200F3E68008F1F6
:102FC0000808059B3B440593002D7FF4D7AB2E9B4F
:102FD000002B40F0A987039B0022B3F90C302D92FF
:102FE00051E0069B029A9F1A002F7FF776ACB24BF6
:102FF0002D9A1193102F26DD41462846B046039D99
:1030000026461023AC4C04E0103F102F01F10801BC
:1030100015DD01321030072AC1E90043CDE92D202A
:10302000F2DD2CAA2946584602F036F810BB103FB4
:10303000102FDDE92D202FA94FF01003E9DC3446D5
:103040000546464688460132119BC8F800303D448B
:10305000072ACDE92D25C8F8047000F3458408F14E
:1030600008083AE403992CAA584602F015F80028FB
:103070003FF460AC079B1BB10799584604F08EFDE6
:10308000039BB3F90C30039A526ED00702D49A0511
:1030900040F1F8845B0601F1A783059859B0BDE8BB
:1030A000F08F129B13985A19C8E900032D9B2E929A
:1030B0000133072B2D9300F3418708F108080029FD
:1030C000C1F21F820D99C8F8006001338D18072BDB
:1030D000CDE92D35C8F804107FF716AC03992CAA5A
:1030E000584601F0D9FF0028C4D12E9D0DF1BC082F
:1030F0000CE40D9B2D9F012B05F1010507F1010744
:1031000008F1080940F369810123072FCDE92D75E6
:10311000C8F80060C8F8043000F36B84129B139A5F
:1031200001371D44072FC9E90023CDE92D7500F3B0
:10313000528409F108090D9BDDE90E0103F1FF3806
:103140000022002308F0EEFB002840F0A7810137A1
:1031500001364544072FCDE92D75C9F80060C9F83F
:10316000048000F3488109F10809149BC9F8043070
:1031700001371D44072F24ABCDE92D75C9F8003068
:10318000ACDC09F10808FFF7C1BB03992CAA58462B
:1031900001F082FF00287FF473AF0DF1BC0810E747
:1031A000039D5846294602F055F9002841F0148342
:1031B000B5F90C3003F01A020A2A7FF4AEAA03997B
:1031C000B1F90E20002AFFF6A8AA4A6ED20702D44F
:1031D0009F0540F1C286039923463246584601F0C6
:1031E000DBFB0590059859B0BDE8F08F9F0567D5CA
:1031F0009D047FF578AA90047FF582AA01F0FBBABE
:10320000039911932CAA584601F046FF00287FF439
:1032100031AF2E9D119B0DF1BC08FFF749BB0399FF
:1032200011932CAA584601F037FF00287FF422AFF3
:103230002E9D119B0DF1BC08FFF74CBB1F4A2D9B27
:103240001192102E22DDA246DDF80C9010271446B4
:1032500004E0103E102E08F1080816DD0133103589
:10326000072BC8E90047CDE92D35F2DD2CAA4946E8
:10327000584601F011FF00287FF4FCAE103E102EDE
:10328000DDE92D350DF1BC08E8DC54460133119A17
:103290003544072BC8E90026CDE92D357FF73FAB34
:1032A00003992CAA584601F0F7FE00287FF4E2AEFD
:1032B0002E9DFFF734BB00BF34BE000044BE0000AB
:1032C000039DA86DFEF70CFEB5F90C306A6E9904EB
:1032D0003FF510AAFFF707BA2199814240F33881E0
:1032E0000B9B0D9A9342A8BF1346002B99460BDD0A
:1032F0001D44C8E900632D9B2E950133072B2D93A8
:1033000001F3148008F108080B9FB9F1000FA8BF62
:10331000A7EB0907002F00F371840B9B1AF4806F51
:10332000334440F0B186219A0D998A4203DB1AF0AA
:10333000010F00F0FD84129913980D44C8E90001B3
:103340002D992E95013107292D9101F3638008F104
:1033500008080D997718FF1A8E1AB742A8BF37468A
:10336000002F0DDDC8F800302D9BC8F80470013324
:103370003D44072B2E952D9301F3988008F1080802
:10338000002FA8BFF61B002E7FF7C0AA102E2D9B82
:1033900041F34782B249DDF80C9011912A4610277B
:1033A0000D4605E008F10808103E102E40F3FF839B
:1033B00001331032072BC8E90057CDE92D32F1DD7A
:1033C0002CAA4946584601F067FE00287FF452AE09
:1033D000DDE92D320DF1BC08E6E71AF0010F7FF4AC
:1033E00093AE0123072FCDE92D75C8F80060C8F80A
:1033F00004307FF7BAAE03992CAA584601F04CFE70
:1034000000287FF437AEDDE92D750DF1BC09ACE67F
:103410002D9A94481190102F714626DD1C94404639
:10342000904C1D93B0461025039E04E0103F102FD2
:1034300000F1080015DD01321031072AC0E900450E
:10344000CDE92D21F2DD2CAA3146584601F024FEAB
:1034500000287FF40FAE103F102FDDE92D212FA89B
:10346000E9DCDDE91C43464680461198C8F80000B7
:10347000501C7D180728CDE92D05C8F8047000F30D
:1034800009839DF87F2008F10808002A40F0888011
:10349000002B3FF422AA1346FFF70CBA0D9B012B19
:1034A0007FF763AE112B6E4B119340F39783049417
:1034B0002A46039C10261D4607E009F10809A8F1D9
:1034C0001008B8F1100F40F3878301371032072F2F
:1034D000C9E90056CDE92D72EFDD2CAA21465846E8
:1034E00001F0DAFD00287FF4C5ADDDE92D720DF1A4
:1034F000BC09E4E703992CAA584601F0CDFD002849
:103500007FF4B8AD2E9D0DF1BC08FFF7ECB9920425
:103510007FF5F6A801F068B91AF0010F3FF4F6A99B
:10352000FFF71ABB55EA070321F0800A7FF4E0ACED
:10353000049B002B55D1CDE90B33089310930293D4
:10354000079358AEFFF799B90A932378FFF720B98C
:103550002D9B454AC8F80020013301350122072B75
:103560002E952D93C8F8042000F3888608F10808EA
:1035700000297FF496AD0D9A0AF0010313433FF43E
:10358000C5A9129B13995A19C8E900132D9B2E92B5
:103590000133072B2D9300F3D18408F1080891E53E
:1035A0001F460023FFF774B90A9A1AF0100052F868
:1035B000043B41F0C7811AF0400100F0DD818DF835
:1035C0007F009BB204990027B9421D46C0F2DF81FB
:1035D0002AF0800A002B40F0DA81049B0A92002B2B
:1035E000A9D0002589E41AF0100F40F0EF821AF0FC
:1035F000400F40F0A9831AF4007F00F0E7820A9A96
:10360000059912681170FFF7FCBB5046FFF736BBF7
:103610000A9A04320A990A920D68EF179A463B46B5
:10362000002BBFF643AC2D238DF87F30049B6D42F9
:1036300067EB4707002BFFF65BAC0A2D77F1000321
:103640002AF0800AFFF459ACCDE907890294DDF82D
:10365000589058A94FF0000E0AF480642CE000BF87
:1036600034BE000044BE000088BB0000EB19B34824
:1036700043F10003A0FB032020F0030202EB9002C1
:103680009B1AEB1AAD484FF0CC32A846BC4602FB61
:1036900003F267F1000700FB0722A3FB0053B8F118
:1036A0000A0F13444FEA55057CF1000C314645EAF8
:1036B000C3754FEA53072CD3A04EEB1943F1000317
:1036C000A6FB032020F0030202EB90029B1AEB1AE8
:1036D000A3FB063267F1000006FB00225B0843EA09
:1036E000C27303EB8303A5EB430330330EF1010EEA
:1036F00001F8013C4E1E002CB8D099F800307345FB
:10370000B4D1BEF1FF0FB1D00A2D77F1000380F0E4
:103710006F850499029CCDF8589058AB9A1B914242
:10372000B8BF1146DDF82090DDF81C809DF87F3091
:10373000CDF834E008920291FFF7EDBB5346FFF756
:10374000A8BB0A9B1A1D0A9B0A921B680021FFF75F
:103750009EBADDE90E0102460B4608F015F9054652
:10376000002840F0B087B9F1610F00F01F86B9F171
:10377000410F00F00883049B013300F075874AF481
:103780008073B9F1670F02930F9B00F0FE86B9F1C9
:10379000470F00F0FA860790DDE90E12002AC0F20A
:1037A000EC869DED0E7B8DED187B00231193A9F126
:1037B0004103252B00F26B82DFE813F02807690232
:1037C00069026902D4031F0469026902690269027D
:1037D0006902690269026902690269026902690291
:1037E0006902690269026902690269026902690281
:1037F00069026902690269026902690228076902AD
:1038000069026902D4031F044D4D1AF0200F00F025
:10381000D5800A9B073323F007031A46596852F8EC
:10382000083B0A921AF0010040F0B480049A8DF827
:103830007F00002AC0F2F48053EA01022AF4906A61
:1038400000F0FD8003F00F02AA5C8DF85F211B09D8
:1038500043EA01730A0953EA11110DF25F160BD006
:1038600003F00F011B09695C06F8011D43EA0273AE
:10387000120953EA0201F3D1049A58AB4FF0000C3D
:103880009B1B9A42CDE90BCCB8BF1A460893029213
:10389000CDF81CC0CDF840C000283EF4EEAF029B2E
:1038A000DDE92D05023302931AF08403AE46024689
:1038B00004D1069F02997F1A002F06DCBCF1000F8D
:1038C0003EF4F8AF0227FEF7E3BF0223A1E51D4D4A
:1038D0009BE74AF0020A0A921A4D03F00F020220F7
:1038E000AA5C4FF07809B0E703992CAA584601F07A
:1038F000D3FB00287FF4BEAB2E9D0DF1BC08FEF774
:10390000ECBF03992CAA584601F0C6FB00287FF4AF
:10391000B1AB2E9D0DF1BC08FFF72CB9049B0A97A3
:10392000062B28BF0623CDE907630293334604968E
:10393000CDE90B33044E1093FEF79FBFCDCCCCCC1A
:103940006CBB000058BB000080BB000008220021B7
:103950002AA8FEF751FA0A9A3FAE12682AAB3146FE
:10396000584602F00FFF089001307ED0089B23EAF2
:10397000E3730293FFF76FB81AF4007740F0EA811F
:1039800004998DF87F7000291D46BFF621AE0A927A
:10399000FFF7AEBA53EA010248D030228DF88020FA
:1039A00000228DF87F20049A8DF88190002A34DB64
:1039B0002AF4906242F0020A022043E70A9A1AF0BF
:1039C000100F52F8043B0A9225D11AF0400F1ED076
:1039D0009BB2002126E703992CAA584601F05CFB14
:1039E00000287FF447ABDDE92D750DF1BC09FFF729
:1039F000A2BB03992CAA584601F04EFB00287FF485
:103A000039ABDDE92D750DF1BC09FFF787BB1AF461
:103A1000007F40F0A781002104E74AF0020A02205B
:103A200003F00F022AF4806AAA5C0EE7049B0020D0
:103A300083428DF87F00C0F217832AF4906A049ABB
:103A4000002A00F0D980012A2B788DF85F31B8BFA9
:103A50000122002302920122CDE90B330793089241
:103A600010930DF25F16FEF708BF0398B0F90C3003
:103A7000426E43F04001D607818100F1B586990579
:103A800000F1B286039CA06DFEF732FAB4F90C3057
:103A9000FFF700BB039911932CAA584601F0FCFADA
:103AA00000287FF4E7AA9DF87F202E9D119B002A15
:103AB00000F0CB801F460DF1BC0803462D98FEF7A1
:103AC000E7BE049B0893CDE90B331093079358AEE0
:103AD000FEF7D3BE5846FEF741F9FEF7FABD03994B
:103AE0002CAA584601F0D8FA00287FF4C3AA2E9DCC
:103AF0000DF1BC08FFF72BB8082200212AA8239655
:103B0000FEF77AF9049B002BC0F26483002502942F
:103B100007972C461F460EE03FA9584602F032FE9A
:103B2000431C204400F09185B84209DC05F10405EE
:103B300000F0A2850446239A52592AAB002AEBD101
:103B40000894079F029C089B002B00F0A583632B21
:103B500040F3D284591C5846FEF7C6FA06460028A0
:103B600000F0F8860790082200212AA8FEF744F901
:103B7000089D2AAB009323AA2B463146584602F0F3
:103B800057FE854240F0E186089A0023B35422EAAA
:103B9000E27202929DF87F20049312B1029A0132E0
:103BA0000292CDE90B330A971093FEF766BE1546D5
:103BB0000133119AC8F800203544072BC8F8046077
:103BC000CDE92D357EF7A0AEFFF788BA0A9A0599A0
:103BD00012681160FFF715B9049C15460137119B57
:103BE000C9F800304544072FCDE92D75C9F8048088
:103BF0007FF7B9AAFFF7FFBB049B9CE4102F2D9B16
:103C000040F378867C48119042462946A0464FF002
:103C10001009039C054604E00832103F102F40F3C2
:103C2000F98101331031072BC2E90059CDE92D315B
:103C3000F2DD2CAA2146584601F02EFA00287FF426
:103C400019AADDE92D312FAAE7E7002B78D02D98AE
:103C500013460DF1BC08FEF72DBE1AF400717DD09D
:103C6000DBB20A9250460021FFF711B81AF4007F28
:103C700016BF45F3C017EF176DB23B46FFF713B9F8
:103C80009DF87F300292089258AEFFF744B92AABF4
:103C9000019323AB00939DED180B049A21AB0221F5
:103CA000584602F0F5FE06461AF0010F40F00E8469
:103CB0002A9B9A1B219B0D92D91C0B93C0F2BA83AD
:103CC00004999942C0F213839A4200F30A840B9B31
:103CD00008931AF4806F03D00B9B002B00F3198517
:103CE000089BDDF808A023EAE37302934FF067090D
:103CF000002310930C93119B0AF00200002B00F09C
:103D000080814FF02D0C8DF87FC0029B0133029310
:103D100000230493C0E5049B0A92CDE90B33109372
:103D20000893029358AE4FF078099C460793B6E586
:103D30007718FF1A8E1AB742A8BF3746FFF720BB85
:103D40000DF1BC08FEF7C9BD0A9A059912681180E9
:103D5000FFF757B88DF87F10DBB233E40A92504674
:103D6000FEF795BFDBB200215CE53046FEF7C8F8F0
:103D70009DF87F30089020EAE0720292002B3EF41A
:103D80004FAFFEF74BBF45F63003ADF88030049BD4
:103D9000632B4AF0020A00F32284DDE90E1282420C
:103DA000C0F22C8421A89DED0E0B02F0A3FD002291
:103DB0004FF07F5351EC100B07F04CFB02460B46C3
:103DC000CDE908230022002307F0ACFD08B1012350
:103DD00021930023094A1193029207933FAECDE944
:103DE0000B48CDF83490DDE90845DDF80890049FD4
:103DF000CDF840A014960BE034BE00006CBB000070
:103E00000022002307F08EFD002840F0B7845746BB
:103E10009A4B00222046294607F01CFB0D4604461B
:103E200007F0C8FD804607F0ABFA02460B46204675
:103E3000294607F057F919F808303246044606F8C3
:103E4000013B0D4607F1FF3A002FD9D104928C4B6C
:103E5000DDF83490DDF840A00022CDE90845474662
:103E600035460B9C149EDDF8308007F083FD40B989
:103E7000DDE90801824B002207F054FDE0B1F807AC
:103E80001AD5049B2A93029B15F8012CD97B9142E9
:103E90002B4609D1302003F8010C2A9B5A1E2A9286
:103EA00013F8012C8A42F6D0392A0BBF029A01324C
:103EB000927AD2B203F8012C219AAB1B0D93B9F17F
:103EC000610F02F1FF33219300F0A88450214FF0DD
:103ED0004109002B8DF89010C0F296842B22092BFB
:103EE0008DF8912000F3B6820DF19202303302F882
:103EF000013B24ABD31A14930D9B149A012B1A4443
:103F0000089240F3AC83089B129A13440893089AD2
:103F10002AF4806343F4807A22EAE2720023CDE936
:103F20000B3310930292E6E603992CAA584601F04F
:103F3000B3F800283FF44FA8FFF7A2B803992CAAC2
:103F4000584601F0A9F800287FF494A8DDE92D3245
:103F500021990DF1BC08FFF7B2B8886DFDF7C8FFD5
:103F6000FFF739B9049B01330D9302210D9D2AAB54
:103F7000019323AB00932A469DED180B21AB5846C5
:103F800002F086FD29F02007462F0646054400F082
:103F9000DA81DDE918010022002307F0C3FC0028C4
:103FA00040F012842A9BAB4238BF452780F00A8438
:103FB00030215A1C2A9219702A9BAB42F9D39B1BC1
:103FC0000D93472F219B0B9300F08981462F00F022
:103FD000D2810B9B8DF89090013B002B2193C0F276
:103FE00030822B22092B8DF8912000F3338230226E
:103FF0008DF892200DF1930278E7049B0D93032135
:10400000B4E79DF87FC0BCF1000F7FF47EAE119B3A
:10401000049341E444460D4690460133119AC8F892
:1040200000203D44072BCDE92D35C8F8047000F37E
:10403000C98208F10808FFF770B90A928A46FEF7AC
:1040400057BF2D23B9F1470F8DF87F3007950495A1
:1040500040F345820B4E109503220423CDE90B5506
:1040600008920293FEF709BC2B788DF85F312AF491
:10407000806A0DF25F16FFF7FFBB00BF0000304003
:104080000000E03F4CBB00000D9ADDF84090CDF8F9
:1040900044A01F460C9BDDF858A00B94B218002BCF
:1040A000049229464246179DDDF80C8010962EDDBD
:1040B000B9F1000F7BDD09F1FF392D98159B013017
:1040C00029440728C2E900352E912D9064DC08327E
:1040D000049B9AF80000DE1B8642A8BF0646002E0D
:1040E0000BDD2D98013031440728C2E900762E916E
:1040F0002D9062DC9AF800000832002EACBF841BC1
:104100000446002C16DC07440C9B002BD0DCB9F1D4
:10411000000FD0DC109ECDF858A090460D9A0B9C55
:10412000DDF844A0B21897423B460D4628BF13461F
:10413000FFF7F9B8102C2D98B34B1FDD102608930C
:1041400004E0103C102C02F1080216DD0130AE4BE9
:1041500010310728C2E90036CDE92D01F1DD2CAA86
:104160004146584600F098FF00287EF483AF103C8B
:10417000102CDDE92D012FAAE8DC089B136001302B
:1041800021440728CDE92D01546000F394809AF86A
:10419000000008320744B7E72CAA4146584600F011
:1041A0007BFF00287EF466AF2E992FAA90E70C9B28
:1041B000013B0AF1FF3A0C937FE72CAA414658468F
:1041C00000F06AFF00287EF455AF9AF800002E999F
:1041D0002FAA92E72AAB0093002323AA1946584638
:1041E00002F026FB0890013000F02F822396AAE40B
:1041F000179A1599B61A304601F02CFA99F8013041
:104200000BB109F10109814AEB1943F10003A2FB4B
:10421000030C2CF0030000EB9C001B1AEB1A4FF070
:10422000CC3167F1000703FB01F102FB0711A3FB8F
:10423000023001445B0843EAC1754F08EB1943F1B2
:104240000003A2FB031020F0030101EB90015B1AB5
:10425000EB1AA3FB023167F100005B0802FB0012BE
:1042600043EAC27303EB8303A5EB4303303306F841
:10427000013C4FF0010E013EFFF73FBA03992CAA13
:10428000584600F009FF00287EF4F4AE21992E9DD7
:104290000DF1BC08FFF76CB99DF87F300A97003B21
:1042A00018BF01230293089B0493CDE90B331093AD
:1042B0000793FEF7E2BA2CAA4146584600F0ECFEFE
:1042C00000287EF4D7AE9AF800002E992FAA074452
:1042D0001AE7219B0B93AB1B472F0D934BD10B9BE5
:1042E0000333C0F2A780049B0B9A934210DA0B9B16
:1042F000013BA9F10209002B8DF890902193BFF6A4
:1043000070AE0B9B2D22C3F101038DF891206EE658
:104310000D9B0B9A934200F3E4801AF0010F0B9B64
:1043200000F09982129A13440893D2E403992CAABC
:10433000584600F0B1FE00287EF49CAE2E9D0DF193
:10434000BC08FEF7E1BF3378302B00F03082219BB0
:104350001D44DDE918010022002307F0E3FA0028DC
:10436000B7D12A9BAB42FFF423AE9B1B0D93472F83
:10437000219B0B93B3D00B99049A0AF001030029F7
:1043800043EA020340F38E82002B40F094810B9BA2
:1043900008934FF066091AF4806F40F0BC81089BC7
:1043A000DDF808A023EAE3730293A1E447F63003A3
:1043B000ADF88030049B632B4AF0020A00F30F81B2
:1043C000DDE90E12002AC0F2198121A89DED0E0B25
:1043D00002F090FA00224FF07F5351EC100B07F0DF
:1043E00039F802460B46CDE908230022002307F0E6
:1043F00099FA002800F044820123119521933FAEE1
:104400000795034B0293EAE434BE0000CDCCCCCC3C
:1044100058BB0000039904932CAA584600F03CFEB8
:1044200000287EF427AE219A2E9D049B0DF1BC0836
:10443000FEF78FBF0B9BA9F10209013B8DF890900D
:1044400021930B9A2D238DF89130C2F1010308328C
:10445000BFF6CDAD0DF19F05B34F2A461046A7FB21
:104460000312D20802EB8201A3EB41013031632B2E
:1044700000F8011C134600F1FF32EFDC303302F884
:10448000013C831EAB4280F044820DF1910213F88F
:10449000011B02F8011FAB42F9D103F5B0736B4465
:1044A000CC3B1B1A24AA9B1A149325E503992CAA2A
:1044B000584600F0F1FD00287EF4DCAD219E0D9BF6
:1044C0002E9D9E1B0DF1BC08FEF75ABF049B47278B
:1044D000F5183EE700230C460493FEF75BB9934EB4
:1044E000B9E50D9B129A9A180B9B0892002B40F38A
:1044F000D5804FF067094EE7002307933FAEFFF7E3
:1045000032BB4F4210318A4911911CDA102589467D
:1045100004E008F10808103F102F14DD01331032B9
:10452000072BC8E90095CDE92D32F2DD03992CAABD
:10453000584600F0B1FD00287EF49CADDDE92D3237
:104540000DF1BC08E7E701331199C8F800103A44AF
:10455000072BCDE92D32C8F804707FF71EA8039908
:104560002CAA584600F098FD00287EF483ADDDE9C2
:104570002D320DF1BC08FEF7A5BD02F100431993E1
:104580002D2318911193FFF712B9049A002A00F015
:104590004C81002BC0F27D819DED0E7B8DED187B53
:1045A00011952AAB019323AB00939DED180B21AB22
:1045B000049A0221584602F06BFA0023064607933C
:1045C000FFF772BB03992CAA584600F065FD00283E
:1045D0007EF450AD2E9D0DF1BC08FEF79EBE049BEF
:1045E0005846591CFDF780FD064600283FF43DAAB9
:1045F0004AF4807307900293FFF7CEB802F10043AC
:1046000019932D23189107953FAE119321A89DED85
:10461000180B02F06FF900224FF07F5351EC100B92
:1046200006F018FF02460B46CDE9082300220023BE
:1046300007F078F908B101232193B9F1610F3FF434
:10464000E0AE3C4B0293FFF7CABB039B9B89002261
:10465000079243F04003039A9381FEF70BBD1AF0D3
:10466000010F3FF454AC4EE4062304934AF48073E4
:1046700007900293FFF790B8049B029C079F089352
:10468000FFF761BA00230322CDE907320493CDE995
:104690000B33109304230293FEF7EFB8C3F1010329
:1046A0001A4422EAE273DDF808A0089202934FF060
:1046B0006709FFF71DBB129B02EB01094B440893EE
:1046C0004FF0660967E60F9B13F000432AF0800A5B
:1046D0000B9300F0C3802D238DF87F30B9F1470F85
:1046E0004FF000030793049340F3D180124E03224E
:1046F0000892CCE70A97002B00F0A280049B089355
:104700005A1C0292049010900C904FF07309FEF71F
:10471000B4B84FF0670916990B78FF2B00F0FD80B5
:1047200000250B9A28460DE0CDCCCCCC48BB000030
:1047300034BE00006CBB000054BB000001300131EE
:10474000FF2B08D0934206DAD21A4B78002BF5D112
:104750000B780135F4E7CDE90B20169110950C9AF2
:10476000109B1799DDF808A01344089A01FB032356
:10477000089323EAE3730293FFF7BDBA0497574601
:10478000002F3546DDE90B48DDF83490DDF840A018
:10479000149EFFF691AB04992B462944302203F86E
:1047A000012B8B42FBD12F447D1CFFF785BBDDE93C
:1047B00018010022002307F0B5F840B1219B0B93AC
:1047C0001D4488E59B1B0D93219B0B9301E40D9BDE
:1047D000C3F101032193BBE5039A536ED80703D4B9
:1047E0009389990540F1BC804FF0FF330593FEF7A4
:1047F00054BCD707F8D4039B9B899E05F4D4039B34
:10480000986DFDF775FBEFE72D238DF89130C2F120
:1048100001030832FFF61EAEFFF766BB7021FFF7FB
:1048200058BB514A1192FFF7C3B9934266DB9DED25
:104830000E7B049B119301238DED187B0493B0E64E
:10484000049B08930293079B10930C9304934FF0DF
:104850007309FEF712B80893FFF73BBA9DF87F3053
:10486000B9F1470FCCBF414E414E002B5FD103221F
:104870000493089210930C9307930292FDF7FDBFE7
:104880003C4B1190029307903FAEFFF7A8BA384E09
:104890002DE7DDE90E1202F1004319932D23189143
:1048A00011937EE6DDF808A033B9012302934FF09F
:1048B00066090893FFF71CBA129B03F10109049BD8
:1048C0004B44089323EAE37302934FF06609FFF722
:1048D0000FBACDE90B3307931093FDF7CEBF0A9AB9
:1048E00063780C4652F8041B0A9241EAE171049184
:1048F000FDF74EBF1C4A1192FFF78FBBDDE90E1288
:1049000002F1004319932D2311930123189104936D
:1049100047E602231493FFF7EFBA002310930C939A
:104920001DE75346FEF776BE5046FEF70CBF002348
:10493000049310930C930793032308930423029387
:10494000FDF79BBF5146FEF7F9BA039B9B8943F0E5
:10495000400380E6039B07909B8943F040037AE67F
:10496000906DFDF7C5FA3FE734BE000054BB000070
:1049700050BB000058BB000000B5DFF818E08446CB
:104980001346DEF800005DF804EB0A466146FDF7C9
:1049900083BE00BF1C000020F0B50D46ADF2744D83
:1049A000164689896A6E1B92EA89ADF8162021F0B5
:1049B0000201EA69ADF8141009921CA96A6A029111
:1049C000074606910B924FF48061002218A80193CC
:1049D000049107910892FDF77BFA3246019B02A9E8
:1049E0003846FDF759FE061E07DB02A9384600F0DF
:1049F00067FC002818BF4FF0FF36BDF814305B0687
:104A000003D5AB8943F04003AB811898FDF764FAF6
:104A100030460DF2744DF0BD0148FDF761BA00BF9C
:104A2000700C00200148FDF763BA00BF700C002035
:104A30009368002B00F0B7802DE9F04FB1F90CC05E
:104A40001CF0080F83B00C46804617462DD00B692A
:104A50005BB31CF002033E6833D04FF0000ADFF86E
:104A6000C4B25546B9465D452B46524628BF5B4603
:104A70004046B5B1E169676AB847002840F38B80CA
:104A8000D9F808301B1A8244C9F80830002B79D0B5
:104A90002D1A5D452B46524628BF5B464046002DE9
:104AA000E8D1D6E900A50836DDE72146404600F00A
:104AB000D1FC002874D1B4F90CC03E681CF002038C
:104AC000CBD11CF0010A70D1236800975546002D08
:104AD00054D01CF4007FD4F80890184600F0AB8046
:104AE000A945CB4600F2E4801CF4906F34D02169D4
:104AF0006269A3EB010902EB420202EBD27209F1F7
:104B0000010352102B44934294BF93469B46934219
:104B100088BF1A461CF4806F00F0E98011464046B9
:104B2000FDF7E2FA002800F0F7804A46216901907B
:104B300001F08EFDA289019B22F4906242F0800276
:104B4000A28103EB09002361ABEB0903C4F814B0A5
:104B5000A3602060A946AB4651465A4600F0E8FCE7
:104B6000A2682368A2EB0902A260009A91685B44E4
:104B7000491B2360916029B1B4F90CC0D6E900A5A6
:104B80000836A4E7002003B0BDE8F08F2146404678
:104B900000F096FB68B3B4F90C3043F04003A381F6
:104BA0004FF0FF30EFE7002070471D469A46184649
:104BB000B946009365B3002831D05246D4E90413B6
:104BC0002068AA4228BF2A46884204D9A16803EB7C
:104BD000010B5A457CDC93426DDCE169009A676AFF
:104BE0004046B847B0F1000BD5DDBAEB0B0ACDD08B
:104BF0000120D9F80830A3EB0B03C9F80830002BCB
:104C0000C0D0009BA5EB0B055B440093002DD2D1D7
:104C1000756833460836002DFAD01B680093009F54
:104C20002A460A21384601F0C3FC002871D0013021
:104C3000A0EB070AC1E722699A4221D36269AA421E
:104C40001ED86FF00043AB4228BF2B46E16993FBAF
:104C5000F2F3676A02FB03F340465246B847B0F1ED
:104C6000000998DD009A9368A3EB0903A5EB0905F9
:104C70009360002B86D0B4F90CC02368CA4426E7A1
:104C8000A94528BFA94618464A46514600F050FC9F
:104C9000A2682368A2EB09024B44A2602360002AA9
:104CA000E0D12146404600F00BFB0028DAD072E745
:104CB000A946AB4650E70099019200F039FC019AF1
:104CC000A3689B1AA36023681344236093468CE770
:104CD00000995A4600F02CFC23685B44236021466F
:104CE000404600F0EDFA00283FF47FAF53E740461E
:104CF00000F03CF8034600287FF423AF21694046CA
:104D000002F04CFFA3890C22C8F8002023F0800396
:104D100043E76A1C924651E70C22B4F90C30C8F8FC
:104D200000203AE700FCFF7F2DE9F843074688465C
:104D300016464FF000097568013D11D4B468A38987
:104D4000012B08D9B4F90E3001332146384602D080
:104D5000C04749EA0009013D6B1C04F16804EED12B
:104D60003668002EE7D14846BDE8F883002900F0F8
:104D70009F802DE9F04383B00C4600928046FFF7F8
:104D80004BFE009901F10B03162B60D810239942BA
:104D900060D854F804EC2EF003029A42A4F10805FE
:104DA00065DAB348806805EB020C6045DCF8046006
:104DB00000F0908026F0010060444068C0076CD489
:104DC00026F00306901983424CDD1EF0010F0FD12F
:104DD00054F8080C281A0746406820F003000644DF
:104DE0001644B34240F3EF801618B34240F3C98033
:104DF0004046CDE90023FDF777F9DDE900230646BB
:104E0000002800F0178154F8041C21F00101294406
:104E1000A0F1080C614500F0AE80043A242A00F2AB
:104E2000CE80132A00F29C80034622461168196046
:104E30005168596092689A602146404602F0AEFE81
:104E40004046FFF7EFFD304603B0BDE8F08333F096
:104E500007039CD50C23C8F800300026304603B069
:104E6000BDE8F0830246DCE90201C1608860696840
:104E7000D01A0F2801F0010105EB02061BD81143DF
:104E80006960736843F0010373604046FFF7CAFD31
:104E90002646304603B0BDE8F0831EF0010FA7D1CF
:104EA00054F8080C281A0746406820F003009BE7D6
:104EB0001146FDF719B919436960E91840F001007E
:104EC0004860736843F0010308317360404602F0A4
:104ED00065FEDAE726F00306B01803F1100C604512
:104EE00080F28B801EF0010F82D154F8080C281A32
:104EF0000746406820F0030006441644B445B14616
:104F00003FF772AF3E46F96856F8080F043A242A74
:104F1000C160886000F2A580132A40F2A080216859
:104F2000B9606168F9601B2A00F2A480083407F1B7
:104F300010022168116061685160A1689160F918E0
:104F4000A9EB03024A4D42F00102A9604A607A6867
:104F500002F00102134340467B60FFF763FD98E7D0
:104F600023680360636843601B2A3BD804F108028E
:104F700000F108035AE750F8041C21F003010A4429
:104F800075E7043A3D46F96855F8080F242AC160D0
:104F9000886020D8132A1CD92168B9606168F9603B
:104FA0001B2A3DD8083407F110022168116061689E
:104FB0005160A16891602C4632463D4657E7214634
:104FC00000F0B6FA38E7DCE90201043AC160886013
:104FD000D8E72A46E9E721462846009300F0A8FAD8
:104FE000009BE8E7A3688360E368C360242A25D0B8
:104FF00004F1100200F1100318E71D4A1D449560EA
:10500000C21A42F001026A6054F8042C02F0010254
:105010001343404644F8043CFFF704FD264638E7B6
:10502000A1683961E1687961242A10D0103407F150
:105030001802BAE74046FFF7F5FC0EE72369036163
:105040006169416104F1180200F11803EEE622697A
:10505000BA616269FA61183407F12002A5E73246A5
:1050600067E721463046009300F062FA009B66E74E
:1050700030020020A1683961E1687961242A03D0F7
:10508000103407F1180254E72269BA616269FA61C3
:10509000183407F120024CE7936810B514461BB989
:1050A00018460023636010BDFFF7C2FC0023A36015
:1050B0000023636010BD00BF70B5002941D00646D3
:1050C0000C4610B1436B002B3ED0FCF765FE636EBF
:1050D000B4F90C20DD0730D4900538D52146304690
:1050E00000F054F8E36A054633B1E1693046984769
:1050F0000028B8BF4FF0FF35A3891A0639D4216BB9
:1051000041B104F14003994202D0304602F046FD1D
:1051100000232363616C21B1304602F03FFD002380
:105120006364636E0022DB07A2811ED5A06DFCF7CD
:10513000D3FEFCF737FE284670BD002ACED1FCF71F
:1051400031FE0025284670BDFCF708FEBDE7A06DC6
:10515000FCF7C6FEB4F90C30002BBFD1636ED90743
:10516000EDD4A06DFCF7C4FEE9E7A06DFCF7C0FE2E
:10517000DCE72169304602F011FDC0E7024B014631
:105180001868FFF799BF00BF1C000020B1F90C2080
:105190002DE9F041804610070C4650D4496842F48E
:1051A00000630029A38164DDA66A002E44D000219B
:1051B00012F48052D8F80050C8F8001065D1E169A7
:1051C00001234046B047411C02466CD0B4F90C3074
:1051D000A66A5B0705D56368D21A236B0BB1E36B34
:1051E000D21A0023E1694046B047471CB4F90C309D
:1051F0004DD1D8F800101D2940D8304ACA40D607F2
:105200003CD52269226023F40062A281D9044FF0C8
:105210000002626003D5D8F80030002B41D0216B2A
:10522000C8F8005041B104F14003994202D0404611
:1052300002F0B4FC002323630020BDE8F0810E6976
:10524000002EF9D00D680E6092070CBF4B69002349
:10525000AD1B8B600AE02B463246E169676A404627
:10526000B8470028A5EB0005064406DD002DF2DC5A
:10527000E2E7E16B002997DCDEE7A38943F0400316
:10528000A3814FF0FF30BDE8F081226DA1E72269D4
:10529000226023F40062A281DB044FF0000262600E
:1052A000BDD52065BBE7D8F80030002B8ED01D2B74
:1052B00001D0162BE1D1C8F80050BDE70100402015
:1052C00000B5034683B008B1426B52B3B1F90C008C
:1052D00098B14A6ED20701D4820512D518460091C2
:1052E000FFF754FF00994A6E0346D00702D48A891B
:1052F00092050ED5184603B000BD0346184603B00C
:1053000000BD886D01930091FCF7EAFDDDE9001313
:10531000E4E7886D0093FCF7EBFD009B184603B0B3
:1053200000BDCDE90001FCF719FDDDE90031CDE755
:10533000002838D000B51E4B1B6883B001460BB166
:105340005A6BD2B1B1F90C0098B14A6ED20701D4B0
:1053500082051AD518460091FFF718FF00994A6E8A
:105360000346D00702D48A89920516D5184603B0A1
:1053700000BD0346184603B000BD019018460093D7
:10538000FCF7ECFCDDE90031DCE7886D019300916E
:10539000FCF7A6FDDDE90013DCE7886D0093FCF760
:1053A000A7FD009BE2E7034A03490448FFF7BCBCA2
:1053B0001C00002010000020C1520000200000202E
:1053C00010B50C46B1F90E1000F0BAFE002803DB50
:1053D000236D0344236510BDA38923F48053A38167
:1053E00010BD00BF002070472DE9F0411F46B1F904
:1053F0000C301646DA050C4605460BD423F48053D0
:10540000A381B4F90E103B4632462846BDE8F04170
:1054100000F0BEBE0223B1F90E10002200F07AFEA9
:10542000B4F90C30EAE700BF10B50C46B1F90E1024
:1054300000F070FEB4F90C30421C0EBF23F4805310
:1054400043F480532065A38110BD00BFB1F90E1055
:1054500000F018BE10B5354B0446186882B00B46F4
:1054600010B1426B002A53D0B3F90C20110711D5AB
:105470001869C8B1B3F90C2012F0010126D059699E
:105480004FF0000C4942C3F808C0996120B30020D6
:1054900002B010BDD00640D5510723D4186942F0A0
:1054A00008029A810028E5D19A8902F42072B2F5A7
:1054B000007FDFD019462046019303F0BDFC019B1D
:1054C000B3F90C20186912F00101D8D1940758BF24
:1054D000596999600028DAD11106D9D542F0400205
:1054E0009A811FE0196B61B103F14000814206D03F
:1054F0002046019302F052FB019BB3F90C200021DE
:10550000196318690021C3E9000122F02402C6E7EB
:105510000191FCF723FC019BA6E7092142F0400220
:1055200021609A814FF0FF30B2E700BF1C000020DD
:10553000884270B531D98B1883422ED9032A00EBEB
:1055400002011DD941EA030C1CF0030F1D4618D1BE
:105550004FEA920C0CF1FF36A1EB8C048C4653F809
:1055600004ED4CF804EDA445F9D1C6EB867301EBCC
:10557000830105EB830CACF10403043902F0030250
:1055800052B102F1FF3C6FEA0C0C9C4413F8012D60
:1055900001F8012D6345F9D170BD032A50D941EAC4
:1055A00000039B074ED10F2A51D922F00F0301F1BE
:1055B000100601F1100C103B203100F1100E1944BF
:1055C0005CF8104C4EF8104C5CF80C4C4EF80C4C3F
:1055D0005CF8084C4EF8084C5CF8044C4EF8044C4F
:1055E0000CF1100C8C450EF1100EE9D1F11812F0EF
:1055F0000C0F034402F00F0503F1100325D025F032
:10560000030CACF1040426461A1F1C198C465CF8E6
:1056100004EB42F804EFA242F9D1043104333144DF
:10562000334405F00302002AB6D0013A0132013BAF
:105630000A4411F801CB03F801CF9142F9D170BDB2
:105640000346F0E7013A0346F0E72A46EBE7034654
:105650001546D4E710B504460843830701D1032A51
:1056600019D8A44601F1FF3E07E01EF8011F03F818
:10567000011B501E31B19C4602466346002AF4D1FC
:10568000204610BD94440028FAD003F8011B63455E
:10569000FBD1204610BD0B46A44618681946A0F160
:1056A000013323EA000313F0803F01F10403D9D151
:1056B000043A032A4CF8040BEFD81946D2E700BF8E
:1056C0002DE9F041884600F1200700F140063946F7
:1056D00000F1E005404600F0F3FE3446214638462E
:1056E00000F07EFD28B92034AC42F7D14046BDE839
:1056F000F0810649404603F041FE314640462036DF
:1057000003F03CFEAE42F4D1F0E700BF8CBB0000DA
:105710002DE9F04F00EB41158FB006460F461046BD
:105720002946144600F05CFD18B928460FB0BDE8C4
:10573000F08FA149204600F053FD002800F0BD8005
:105740009E49204600F04CFD002800F0AF802378F1
:10575000432B00F0B780613B192B13D86378613B72
:10576000192B0FD8A278A2F16103192B96BFE2780A
:10577000A31CE31C5F2A0AD02E2A00F0BB8212F081
:10578000BF0F0FD0002528460FB0BDE8F08F5A7824
:10579000413A192AF6D89A78413A192AF2D8DA7891
:1057A0000333E9E78649019306A800F089FE019BCF
:1057B0000DF118081A78402A00F08B824FF000098A
:1057C0004FF0000A4FF0000B9DF81830413B342B8E
:1057D000D8D801A252F823F04B5C00008557000096
:1057E000ED5B000085570000B15B000085570000AD
:1057F0007D5B000085570000E15A0000C15A00009F
:10580000015A0000855700008557000085570000A9
:1058100085570000A15900008557000085570000FA
:105820008159000045590000F758000085570000D5
:1058300085570000855700008557000085570000F8
:1058400085570000855700008557000085570000E8
:1058500085570000855700004B5C0000855700000D
:10586000ED5B000085570000B15B0000855700002C
:105870007D5B000085570000E15A0000C15A00001E
:10588000015A000085570000855700008557000029
:1058900085570000A159000085570000855700007A
:1058A0008159000045590000F7580000454906A8F5
:1058B0000DF1180800F004FE80E74049204600F092
:1058C000FFFD3DE763782D3B012B3FF65BAFA11C4D
:1058D0000DF118084046894600F0F2FD402140468F
:1058E00003F082FD08B1002303704046FCF708FB7B
:1058F00009EB00035EE73449404603F01BFD30B17D
:105900003249404603F016FD00287FF43BAF2E4994
:10591000404600F0D5FD06212D4B2E4A0191022F65
:1059200000F0AE81062F04D1414606F2322000F08D
:10593000C7FD2146284600F0C3FD054628460FB0A6
:10594000BDE8F08F24490322404603F0C9FD00283A
:105950007FF418AF9DF81B3020492D2B14BF0DF19B
:105960001B0007A800F03CFC00287FF40BAF1C498B
:10597000404600F0A5FD01211A4B1B4A0191CEE7DC
:105980001A49404603F0D6FC00287FF4FBAE1749C5
:10599000404600F095FD0221154B164A0191BEE7E5
:1059A0001549404603F0C6FC00287FF4EBAE1349CE
:1059B000404600F085FDDEE790BB000098BB00008C
:1059C000A4BB00009CBB0000D0BB0000D8BB000003
:1059D000857E00003991000060BC000064BC0000BE
:1059E00068BC0000597E00001D910000F4BB00005F
:1059F0009D800000D591000050BC000058BC000004
:105A0000BD490422404603F06BFD00287FF4BAAE86
:105A10009DF81C302D2B06BF9DF81D300DF11D0289
:105A200007AA522B00F027811378543B212B3FF615
:105A3000A9AE01A252F823F06D5C0000635C000087
:105A400085570000855700008557000085570000E6
:105A500085570000855700008557000085570000D6
:105A600085570000855700008557000085570000C6
:105A700085570000855700008557000085570000B6
:105A800085570000855700008557000085570000A6
:105A90008557000085570000855700008557000096
:105AA0008557000085570000855700008557000086
:105AB000775C0000855700006D5C0000635C0000AF
:105AC0008E49404603F036FC00287FF45BAE8B49DC
:105AD000404600F0F5FC0821894B8A4A01911EE7F7
