:1000000000000120390500006105000063050000C3
:10001000650500006705000069050000000000009C
:100020000000000000000000000000006B05000060
:100030006D050000000000006F0500007105000064
:1000400073050000730500007305000073050000D0
:1000500073050000730500007305000073050000C0
:1000600073050000730500007305000073050000B0
:1000700073050000730500007305000073050000A0
:100080007305000073050000730500007305000090
:100090007305000073050000730500007305000080
:1000A0007305000073050000730500007305000070
:1000B0007305000073050000000000000000000050
:1000C0007305000073050000730500007305000050
:1000D00073050000730500007305000000000000B8
:1000E0000000000000000000000000000000000010
:1000F0000000000000000000000000000000000000
:1001000000000000000000000000000000000000EF
:1001100000000000000000000000000000000000DF
:1001200000000000000000000000000000000000CF
:1001300000000000000000000000000000000000BF
:1001400000000000000000000000000000000000AF
:10015000000000000000000000000000000000009F
:10016000000000000000000000000000000000008F
:10017000000000000000000000000000000000007F
:10018000000000000000000000000000000000006F
:10019000000000000000000000000000000000005F
:1001A000000000000000000000000000000000004F
:1001B000000000000000000000000000000000003F
:1001C000000000000000000000000000000000002F
:1001D000000000000000000000000000000000001F
:1001E000000000000000000000000000000000000F
:1001F00000000000000000000000000000000000FF
:100200000348044B834202D0034B03B118477047A5
:100210003C0600203C060020000000000548064B7C
:100220001B1AD90F01EBA301491002D0034B03B1F4
:10023000184770473C0600203C06002000000000E4
:1002400010B5064C237843B9FFF7DAFF044B13B11E
:100250000448AFF300800123237010BD3C0600204A
:1002600000000000481C000008B5054B1BB1054903
:100270000548AFF30080BDE80840FFF7CFBF00BFDF
:100280000000000040060020481C0000A3F5803A52
:10029000704700BF174B002B08BF134B9D46FFF75D
:1002A000F5FF00218B460F461348144A121A00F03E
:1002B00027FC0E4B002B00D098470D4B002B00D095
:1002C00098470020002104000D000D48002802D0AE
:1002D0000C4800F015FD00F057FC2000290000F04C
:1002E00013F800F091FA00BF0000080000000000C1
:1002F00000000000000001203C06002084090020CE
:10030000010D000005180000F8B500F0AFF8244F0B
:10031000244E254D00242046013400F095F8042C8D
:10032000F9D13A682B4600BF00BF00BF00BF00BF35
:1003300000BF00BF00BFB2422FD000BF00BF00BF50
:1003400000BF00BF00BF00BF00BF00BF00BF00BFB5
:1003500000BF00BF00BF00BF00BF00BF00BF00BFA5
:1003600000BF00BF00BF00BF00BF00BF00BF00BF95
:1003700000BF00BF00BF00BF00BF00BF00BF00BF85
:1003800000BF00BF00BF00BF00BF00BF00BF00BF75
:1003900000BF00BF00BF00BF00BF013BC3D1B9E732
:1003A000040000200024F400A08601004FF0A042C9
:1003B000044B1B5CD2F80405D840C04300F0010098
:1003C000704700BF1C1C0000044A115C01234FF061
:1003D000A0428B40C2F80C35704700BF1C1C0000C7
:1003E000044A115C01234FF0A0428B40C2F808354B
:1003F000704700BF1C1C00004FF0A0434FF0804C22
:100400004FF000404FF480014FF48042C3F808C51C
:10041000C3F80805C3F80815C3F80825704700BFDE
:100420004FF0A0434FF0804C4FF000404FF480015C
:100430004FF48042C3F80CC5C3F80C05C3F80C1583
:10044000C3F80C25704700BF074B4FF0A041185C64
:10045000D1F804350122824022EA03001340C1F89A
:100460000805C1F80C3570471C1C00004FF0A04374
:100470000322C3F878274FF0804CC3F87C274FF055
:100480000040C3F858274FF48001C3F838274FF4D1
:100490008042C3F808C5C3F80805C3F80815C3F8B7
:1004A00008257047014B185C704700BF1C1C0000FA
:1004B0001E2809D01F2809D0162809D00E2814BFDD
:1004C0004FF0FF3003207047002070470120704735
:1004D00002207047054B4FF0A0420344D2F81005AC
:1004E0001B79D840C04300F0010070471C1C00007D
:1004F0004FF0A0430C22C3F83427C3F83827C3F8C1
:100500003C27C3F8402770470D2809D00E2809D092
:100510000F2809D0102814BF4FF0FF300320704778
:10052000002070470120704702207047014B0344B0
:10053000187970471C1C00000649074A074B9B1A94
:1005400003DD043BC858D050FBDC00F01BF8FFF77C
:10055000A1FE0000541C0000000000203C0600200A
:10056000FEE7FEE7FEE7FEE7FEE7FEE7FEE7FEE763
:10057000FEE7FEE7014B024A1A60704704000020C4
:100580000090D0034FF0704393F8E02F062A0ED06E
:10059000954AD2F8883043F47003C2F88830BFF32C
:1005A0004F8FBFF36F8F914B914A1A607047D3F80A
:1005B000E42F1007ECD1D3F8E83F03F0F002302A23
:1005C00052D003F0E003402B4ED04FF07043D3F8ED
:1005D000E83F03F0E003402B62D04FF07043D3F8C4
:1005E000E83F03F0E003402B7DD04FF07041D1F89D
:1005F000E83F03F0F003502B00F0A3804FF070436E
:10060000D3F8E83F03F0F002302A12D003F0E00202
:10061000402A0ED003F0E003402BB9D14FF08043C5
:10062000D3F80024D20744BF6FF00102C3F80024BE
:10063000AEE74FF080534FF07042D3F8583292F843
:10064000E01F4FF0804003F04F030629C0F8E43E5E
:100650009ED1D2F8E43F19079AD1D2F8E83F03F0CF
:10066000F002302ADAD0D5E74FF080534FF07042D5
:10067000D3F8243392F8E01F5E48C3F3042306291D
:10068000C0F8403584D1D2F8E43F190780D1D2F8C0
:10069000E83F03F0F003302B97D1574B574A5A6786
:1006A0004FF080534FF07042D3F8443292F8E01F7D
:1006B0004FF08040C3F342330629C0F83C357FF445
:1006C00067AFD2F8E43F1B077FF462AFD2F8E83F90
:1006D00003F0F003302B80D1434AD2F8FC3023F0F2
:1006E0008073C2F8FC304FF070414FF0804291F8B7
:1006F000E00F00230628C2F80C31C2F81031C2F80E
:1007000038357FF445AFD1F8E43F13F00F037FF4A1
:100710003FAFD1F8E81F01F0F00130297FF465AF59
:1007200037490320C2F8A0054FF0050C01203F22F5
:10073000C1F810C6C1F88806C1F81836C1F81426E9
:1007400053E74FF080522F4BD2F80404C3F8200532
:10075000D2F80804C3F82405D2F80C04C3F828051D
:10076000D2F81004C3F82C05D2F81404C3F83005ED
:10077000D2F81804C3F83405D2F81C04C3F84005B5
:10078000D2F82004C3F84405D2F82404C3F848057D
:10079000D2F82804C3F84C05D2F82C04C3F850054D
:1007A000D2F83004C3F85405D2F83404C3F8600515
:1007B000D2F83804C3F86405D2F83C04C3F86805DD
:1007C000D2F84004C3F86C05D2F8440491F8E02F45
:1007D000C3F87005062A7FF4DBAED1F8E43F1807B2
:1007E0007FF4D6AE0AE700BF00ED00E00400002071
:1007F0000090D0030030014000C007400DF0ADBABA
:100800000050004000C0004008B50021044600F040
:10081000FFF9034B1B6803B19847204601F0DEF94E
:1008200090070020024A0349034800F051BD00BF71
:100830000800002015130000180000200C4B416830
:10084000994210B5044601D000F064FDA168094B3F
:10085000994202D0204600F05DFDE168064B9942C6
:1008600004D02046BDE8104000F054BD10BD00BFCC
:1008700058060020C00600202807002008B54B6E4F
:10088000DA0702D48B899B0501D5002008BD886D4D
:1008900000F0AAF9002008BD08B54B6EDA0702D4B3
:1008A0008B899B0501D5002008BD886D00F0A4F957
:1008B000002008BD2DE9F843314A324C3249DFF8B7
:1008C000DC90DFF8DC80314F1160002504232946DD
:1008D000082204F15C00C4E903352D4EA560C4E98B
:1008E0000055C4E90555656600F00AF904F15800A1
:1008F000C4E90749C4E90987E66200F06DF92946B1
:10090000244B6367082204F1C400C4E91A55C4E902
:100910001E552567C4F8CC50C4F8805000F0F0F89C
:1009200004F1680304F1C000C4F88430C4E92298DB
:10093000C4E9247600F050F9174BC4F8DC3029469E
:1009400004F596700822C4E93455C4E93855C4F852
:10095000D850C4F83451C4F8E85000F0D1F804F18C
:10096000D003C4E93D87C4F8F09004F59470C4F84E
:10097000FC60C4F8EC30BDE8F84300F02DB900BFCE
:10098000900700205806002025080000851600006A
:10099000A916000009000100120002001D16000047
:1009A00045160000F8B507462A4800F01DF92A4B05
:1009B0001B68002B43D0294E7368013B26D4B468D2
:1009C00003E05A1C04F1680420D0B4F90C50013B38
:1009D000002DF6D1224BE36004F15800656600F06B
:1009E000FBF81C4800F008F9C4E90155C4E90455B6
:1009F00008222560A561294604F15C0000F080F81A
:100A0000C4E90C55C4E911552046F8BD35680DB14F
:100A10002E46D1E74FF4D671384600F077F90446F8
:100A200080B10423C0E900530C302946A0604FF484
:100A3000D072254600F064F834602E46BCE7FFF71C
:100A400039FFB8E70348346000F0D6F80C233B6068
:100A5000DAE700BFB0070020900700200800002060
:100A60000100FFFF10B504460A4800F0BDF8636BB3
:100A700023B9094B094A1B68626323B1BDE81040E2
:100A8000044800F0B9B8FFF715FFBDE81040014871
:100A900000F0B2B8B0070020900700203D08000029
:100AA000014800F0A1B800BFB0070020014800F0E5
:100AB000A3B800BFB007002008B5054800F094F8BF
:100AC000BDE80840034A0449002000F001BC00BF13
:100AD000B0070020080000207D08000008B5054A86
:100AE0000549002000F0F4FBBDE80840034800F091
:100AF00083B800BF0800002099080000B00700205C
:100B000030B584078646034606D0A2B303F8011B1E
:100B1000980702F1FF32F8D1032A26D95FFA81FC47
:100B20000CEB0C2C0F2A0CEB0C402AD922F00F0CEA
:100B30009C44C3E90000C3E9020010336345F8D1C7
:100B400012F00C0F02F00F0417D04FEA940C0CF1C6
:100B5000FF351A4603EB8C0C42F8040B6245FBD1BF
:100B6000043304F0030203EB850322B11A4403F8B3
:100B7000011B9A42FBD1704630BD2246002AF5D1B6
:100B8000F9E71446E1E700BF70B50E4E0E4DAE42D8
:100B900008D0761BB610002455F8043B0134984762
:100BA000A642F9D8094E0A4D01F01AF8AE4208D013
:100BB000761BB610002455F8043B01349847A64232
:100BC000F9D870BD3006002030060020380600201D
:100BD00030060020704700BF704700BF704700BF5D
:100BE000704700BF704700BF704700BF01207047CB
:100BF00001207047704700BF704700BF024B13B120
:100C0000024800F07DB870470000000005180000A1
:100C10002DE9F04F384FDFF8E49083B00E46019095
:100C20003868FFF7E1FFD9F800B0BBF1000F32D010
:100C3000DBF804305C1E2ED40BF1040505EB8305B4
:100C40007EBBDBF80430D5F80080013BA34216BF21
:100C50000023CBF804402B60B8F1000F16D03868A1
:100C6000DBF804A0FFF7C8FFDBF888210123A340CD
:100C700013422ED1C0473868FFF7B6FFDBF80420D7
:100C8000D9F80030524533D15B4531D1013C631C6A
:100C9000A5F10405D4D1386803B0BDE8F04FFFF7E3
:100CA000ABBFD5F800319E4204F1FF32C9D0002C11
:100CB000F1D0D5F8FC30B342A4F1020412D0621C8A
:100CC000A5F10805EDD1386803B0BDE8F04FFFF796
:100CD00093BFDBF88C21D5F88010134205D1019821
:100CE000C047C8E71446043DABE70846C047C2E723
:100CF000002BD0D09B469BE718020020B4070020B1
:100D0000002301461A46184600F090BD2DE9F04F29
:100D100001F10B02162A85B0804624D8102900F272
:100D2000AB8000F0C9FA022518211022B74C2144EB
:100D3000A1F108004E68864200F062817268F16895
:100D4000B46822F003023244E1608C60516841F0E3
:100D500001014046516000F0B5FA06F10804204652
:100D600005B0BDE8F08F32F0070200F185809142B6
:100D700000F28280019200F09FFA019AB2F5FC7FA6
:100D8000C0F0BA81570A7FD0042F00F27281970910
:100D900007F139052BB207F1380CDB009B4C2344DB
:100DA000A3F108065B689E4207D10DE00028DF68CA
:100DB00080F21381BE4207D03B46596821F00301FF
:100DC000881A0F28F2DD6546236991498B4200F0AD
:100DD000F1805E6826F00306B11A0F2900F39181B5
:100DE0008B480029C4E9040080F27981B6F5007FC0
:100DF000676880F01981F10801310FFA81FC7609EA
:100E00000121B14054F83C0098600F4304EBCC0141
:100E10000839D960676044F83C30C360AB100126E4
:100E20009E40BE4236D83E4206D125F003057600EC
:100E30003E4205F10405FAD004EBC50A04EBC507F0
:100E4000A946F9680EE0486820F0030EAEEB020CEC
:100E5000BCF10F0F0B46C96800F31881BCF1000FFD
:100E600080F22D818F42EED109F1010919F0030FB3
:100E700007F10807E5D17FE10C23C8F80030002412
:100E8000204605B0BDE8F08F4FF4007340254FF0C9
:100E90003F0C83E7A768796821F0030393429A46E1
:100EA00003D3991A0F2900F387805A495A4E0968CB
:100EB000103111440820CDE9011200F095FC019990
:100EC0004B1E03444542834630681D40B0F1FF3F4E
:100ED00018BF29464046019100F05EFC411C0546C2
:100EE000DDE9011200F02B8107EB0A0C844500F2CA
:100EF00024814A4B186800EB01090BF1FF3EC3F84F
:100F0000009000F08981306801301BBFA5EB0C0C0C
:100F100009EB0C003560186015F00700814600F001
:100F20004881C0F108000544CDE901236B1803EAAC
:100F30000E015844401A00EA0E06314640469B46D0
:100F400000F02AFC421CDDE9012300F09581401BE2
:100F5000304440F001011868A56000EB0609A74283
:100F60006960C3F8009017D0BAF10F0F40F25E81AC
:100F7000AAF10C0121F0070C796801F0010141EAA6
:100F80000C017960052607EB0C01BCF10F0FC1E9DC
:100F9000016600F263816968214B1E684E4538BFC7
:100FA000C3F800901F4B1E684E4501D2C3F8009055
:100FB0002F46C6E0676831E7BD1841F0010142F0F5
:100FC00001027A604046A560696000F07BF907F194
:100FD0000804204605B0BDE8F08F9A6801931944D3
:100FE000D760BA604A6842F0010240464A6000F0A9
:100FF00069F9019B03F10804204605B0BDE8F08FB4
:10100000CE68B1427FF49AAE0235DDE628020020B8
:1010100030020020E80700201C020020B807002052
:10102000E4070020E0070020B6F5206F4FEA5620C5
:101030007CD3142800F2D38000F15C0109B25B304C
:10104000C90004EB010C6158ACF1080C8C4503D1CC
:10105000A8E089688C4504D0486820F00300B042BD
:10106000F7D8D1F80CC0C3E9021CCCF80830CB602B
:10107000D4E6142F72D9542F00F2BA80170B07F15F
:101080006F052BB207F16E0CDB0087E69D1842F06E
:1010900001025A609E68864AF1608E60C4E9045578
:1010A000C5E902224CF001026A60404643F80EC0D6
:1010B000019300F007F9019B03F10804E0E69E4468
:1010C0001C46DEF8043043F00103CEF8043054F837
:1010D000083F4046D9608B6000F0F4F8D0E61E442B
:1010E00040467268019342F00102726000F0EAF833
:1010F000019B03F10804C3E6D508691C09B2C900C5
:1011000014E69D1842F001025A60694A0193C4E94D
:101110000455C5E9022241F001026A604046995136
:1011200000F0D0F8019B03F10804A9E6B00900F132
:10113000390109B23830C90083E7A74263D0A768F4
:10114000796821F003009042A0EB020102D30F293D
:101150003FF732AF404600F0B5F890E607F15C0586
:101160002BB207F15B0CDB0018E6514651F8083949
:101170008B428A4640F09A8015F0030F05F1FF3547
:10118000F3D1636823EA0603636076009E423FF66C
:1011900081AE1EB97EE6760009F104091E42FAD03E
:1011A0004D4649E68010012606FA00F007436760C5
:1011B00059E7CDE902236B1803EA0E01ABEB0106F8
:1011C00006EA0E0631464046019300F0E5FA431C5C
:1011D000019B04BF4E461846DDE90223B7E65428BA
:1011E00027D8300B00F16F0109B26E30C90028E733
:1011F000B7F5AA7F27D8D70B07F178052BB207F1EF
:10120000770CDB00CAE52B4B186800EB01090BF1EA
:10121000FF3EC3F8009076E615EA0E0F7FF473AE3A
:10122000A568514441F001016960B5E601236B6096
:1012300090E7B0F5AA7F25D8F00B00F1780109B24C
:101240007730C900FDE640F254539F4224D8930CF6
:1012500003F17D0503F17C0CEB009FE507F108012C
:101260004046CDE9012300F079FBA568029B69683F
:10127000D3F80090019A8FE6A9F108010BEB010069
:10128000002664E640F2545188420BD8B00C00F1BD
:101290007D01C9007C30D4E64FF47E737F254FF08A
:1012A0007E0C7BE54FF47E717E20CAE663686CE7B6
:1012B00030020020B80700200148FFF795BC00BFAE
:1012C000A40700200148FFF797BC00BFA407002037
:1012D0002DE9F8430746884616464FF00009756821
:1012E000013D11D4B468A389012B08D9B4F90E309B
:1012F00001332146384602D0C04749EA0009013D82
:101300006B1C04F16804EED13668002EE7D1484624
:10131000BDE8F88370B5002941D006460C4610B1EF
:10132000436B002B3ED0FFF7BBFB636EB4F90C2080
:10133000DD0730D4900538D52146304600F054F80A
:10134000E36A054633B1E169304698470028B8BFE3
:101350004FF0FF35A3891A0639D4216B41B104F14E
:101360004003994202D0304600F0F8FA002323638C
:10137000616C21B1304600F0F1FA00236364636EC2
:101380000022DB07A2811ED5A06DFFF729FCFFF725
:101390008DFB284670BD002ACED1FFF787FB0025C4
:1013A000284670BDFFF75EFBBDE7A06DFFF71CFC94
:1013B000B4F90C30002BBFD1636ED907EDD4A06D0A
:1013C000FFF71AFCE9E7A06DFFF716FCDCE72169DF
:1013D000304600F0C3FAC0E7024B01461868FFF739
:1013E00099BF00BF14000020B1F90C202DE9F04195
:1013F000804610070C4650D4496842F40063002927
:10140000A38164DDA66A002E44D0002112F480522C
:10141000D8F80050C8F8001065D1E16901234046B2
:10142000B047411C02466CD0B4F90C30A66A5B0789
:1014300005D56368D21A236B0BB1E36BD21A002374
:10144000E1694046B047471CB4F90C304DD1D8F89B
:1014500000101D2940D8304ACA40D6073CD5226921
:10146000226023F40062A281D9044FF0000262607E
:1014700003D5D8F80030002B41D0216BC8F80050BC
:1014800041B104F14003994202D0404600F066FAAF
:10149000002323630020BDE8F0810E69002EF9D0FF
:1014A0000D680E6092070CBF4B690023AD1B8B606B
:1014B0000AE02B463246E169676A4046B847002891
:1014C000A5EB0005064406DD002DF2DCE2E7E16B4A
:1014D000002997DCDEE7A38943F04003A3814FF0A6
:1014E000FF30BDE8F081226DA1E72269226023F47C
:1014F0000062A281DB044FF000026260BDD520656E
:10150000BBE7D8F80030002B8ED01D2B01D0162B56
:10151000E1D1C8F80050BDE70100402000B5034606
:1015200083B008B1426B52B3B1F90C0098B14A6E66
:10153000D20701D4820512D518460091FFF754FF57
:1015400000994A6E0346D00702D48A8992050ED5C7
:10155000184603B000BD0346184603B000BD886DB1
:1015600001930091FFF740FBDDE90013E4E7886D8C
:101570000093FFF741FB009B184603B000BDCDE987
:101580000001FFF76FFADDE90031CDE7002838D020
:1015900000B51E4B1B6883B001460BB15A6BD2B12C
:1015A000B1F90C0098B14A6ED20701D482051AD560
:1015B00018460091FFF718FF00994A6E0346D007BE
:1015C00002D48A89920516D5184603B000BD034699
:1015D000184603B000BD019018460093FFF742FA89
:1015E000DDE90031DCE7886D01930091FFF7FCFA3B
:1015F000DDE90013DCE7886D0093FFF7FDFA009B3F
:10160000E2E7034A03490448FFF762BE14000020E2
:10161000080000201D1500001800002010B50C4621
:10162000B1F90E1000F0A2F8002803DB236D03448B
:10163000236510BDA38923F48053A38110BD00BF8F
:10164000002070472DE9F0411F46B1F90C301646D5
:10165000DA050C4605460BD423F48053A381B4F974
:101660000E103B4632462846BDE8F04100F0A6B8D1
:101670000223B1F90E10002200F062F8B4F90C3028
:10168000EAE700BF10B50C46B1F90E1000F058F8AB
:10169000B4F90C30421C0EBF23F4805343F4805342
:1016A0002065A38110BD00BFB1F90E1000F000B895
:1016B00038B5074C002305460846236000F060FA61
:1016C000431C00D038BD2368002BFBD02B6038BDF5
:1016D000EC070020194B1B6883422ED0416C70B57B
:1016E000054681B100268C593CB121462468284624
:1016F00000F034F9002CF8D1696C0436802EF2D158
:10170000284600F02BF9A96B11B1284600F026F904
:101710002C6C34B121462468284600F01FF9002CB7
:10172000F8D1E96C11B1284600F018F96B6B1BB1C8
:101730002846BDE87040184770BD7047140000206F
:1017400038B58C46084C114605461A4660460023BB
:10175000236000F01DFA431C00D038BD2368002B25
:10176000FBD02B6038BD00BFEC07002038B58C469D
:10177000084C114605461A4660460023236000F0D7
:101780000FFA431C00D038BD2368002BFBD02B6020
:1017900038BD00BFEC07002038B5074C00230546D4
:1017A0000846236000F004FA431C00D038BD2368CB
:1017B000002BFBD02B6038BDEC07002038B58C46E1
:1017C000084C114605461A4660460023236000F087
:1017D000FDF9431C00D038BD2368002BFBD02B60E3
:1017E00038BD00BFEC070020082802D14FF480501C
:1017F000704708B500F0BEF9162303604FF0FF30C4
:1018000008BD00BF38B5074D074C2C1BA41005D0F0
:10181000013C55F8043D9847002CF9D1BDE838400B
:1018200000F0E4B93C06002038060020F0B51D4C5D
:1018300083B005462068019116461F46FFF7D4F98C
:10184000194A0199136823B35A6820681F2A23DCB8
:101850004DB9541C02325C6043F82210FFF7CCF9FA
:10186000002003B0F0BD03EB820E0124CEF88860A7
:10187000D3F88861944046EA040C022DC3F888C16D
:10188000CEF80871E5D1D3F88C512543C3F88C51BB
:10189000DFE7064B1360D7E7FFF7AEF94FF0FF30F5
:1018A000DFE700BF18020020B4070020F007002087
:1018B000F8B5064608200C46FFF796FF0746304667
:1018C000FFF7FAFC224A93685D6825F00305A5F14D
:1018D00011031C1B3C44B4FBF7F4013C07FB04F46C
:1018E000A74208DC00213046FFF756FF184A9368EC
:1018F0002B44984204D03046FFF7E4FC0020F8BDAA
:1019000061423046FFF748FF0130114A0DD01149BE
:1019100093682D1B45F001055D600B6830461B1B6D
:101920000B60FFF7CFFC0120F8BD00213046FFF728
:1019300033FF074A9268831A0F2BDCDD43F0010363
:101940005360054B03491B68C01A0860D3E700BF0A
:1019500028020020B80700201C020020002965D0C2
:101960002DE9F0410C460746FFF7A6FC54F804ECBD
:101970007D49A4F1080C2EF001030CEB03028D68E5
:101980005068954220F003000EF0010600F08B80B5
:10199000151850606D6805F00105A846AEBB54F8F7
:1019A000084CACEB040C2344DCF8084001F1080EB1
:1019B00074456BD0DCF80C50E560AC60B8F1000FFA
:1019C00000F08C8043F00100CCF804001360B3F504
:1019D000007F35D2DA0848685C090132012312B26F
:1019E000A34003434B6051F83200CCF8080001EBF0
:1019F000C203083BCCF80C3041F832C0C0F80CC030
:101A00003846BDE8F041FFF75DBC85B9034401F1FC
:101A1000080E9068704543F001047AD0D268C26025
:101A20009060CCF804404CF80330D0E770474EF09B
:101A30000102B3F5007F44F8042C4CF80330C9D3FD
:101A4000B3F5206F4FEA53204AD2980900F13902CA
:101A500012B200F13804D20088188A58083890422F
:101A600003D15FE09268904204D0516821F00301F5
:101A70009942F7D8D068CCE90220C0F808C03846AF
:101A8000C2F80CC0BDE8F041FFF71CBCA5BB184470
:101A9000D2E90223D3609A6040F00103CCF804300D
:101AA0004CF80000ACE7184446B954F8083CACEBDD
:101AB000030C1844DCE90223D3609A6040F0010370
:101AC000CCF80430294BC1F808C01B68834297D872
:101AD000274B38461968FFF7EBFE91E7034498E778
:101AE00014280FD9542824D8180B00F16F0212B211
:101AF00000F16E04D200AFE743F00101CCF804100E
:101B000013607DE700F15C0212B200F15B04D200C9
:101B1000A2E7C1E904CCCCE902EECCF804404CF8D1
:101B200003306DE7A4100123A3404C6823434B60AE
:101B3000A1E7B0F5AA7F07D8D80B00F1780212B25E
:101B400000F17704D20087E740F25452904206D861
:101B5000980C00F17D0200F17C04D2007CE74FF488
:101B60007E727E2478E700BF280200202002002039
:101B7000E8070020014B1868704700BF14000020E0
:101B8000024B58221A604FF0FF307047EC070020DC
:101B9000024B58221A604FF0FF307047EC070020CC
:101BA000024B58221A604FF0FF307047EC070020BC
:101BB000044A05491368002B08BF0B4618441060FF
:101BC000184670478009002088090020024B5822DF
:101BD0001A604FF0FF307047EC070020FEE700BFAF
:101BE000F8B500BFF8BC08BC9E467047F8B500BF0A
:101BF000F8BC08BC9E4670470229052907293229EE
:101C000034290E292D29122911291B293B2915298F
:101C10003E29242920293D29272900001E1F160EB0
:101C20000D0E0F10022905290729322934290E2902
:101C30002D29122911291B293B2915293E2924293F
:0C1C400020293D29272900000000000099
:081C4C0040E6FF7F01000000EB
:101C5400000000000090D00300000000030000001A
:101C6400580600201800002000000000580600203C
:101C7400C00600202807002000000000000000002B
:101C84000000000000000000000000000000000050
:101C94000000000000000000000000000000000040
:101CA4000000000000000000000000000000000030
:101CB4000000000000000000000000000000000020
:101CC4000000000000000000000000000000000010
:101CD4000000000000000000000000000000000000
:101CE40000000000000000000000000000000000F0
:101CF40000000000000000000000000000000000E0
:101D040001000000000000000E33CDAB34126DE67C
:101D1400ECDE05000B0000000000000000000000E5
:101D240000000000000000000000000000000000AF
:101D3400000000000000000000000000000000009F
:101D4400000000000000000000000000000000008F
:101D5400000000000000000000000000000000007F
:101D6400000000000000000000000000000000006F
:101D7400000000000000000000000000000000005F
:101D8400000000000000000000000000000000004F
:101D9400000000000000000000000000000000003F
:101DA400000000000000000000000000000000002F
:101DB400000000000000000000000000000000001F
:101DC400000000000000000000000000000000000F
:101DD40000000000000000000000000000000000FF
:101DE40000000000000000000000000000000000EF
:101DF40000000000000000000000000000000000DF
:101E040000000000000000000000000000000000CE
:101E140000000000000000000000000000000000BE
:101E240000000000000000000000000000000000AE
:101E3400000000000000000000000000000000009E
:101E4400000000000000000000000000000000008E
:101E5400000000000000000000000000000000007E
:101E64000000000000000000AC070020FFFFFFFF9F
:101E7400000002000000000000000000000000005C
:101E84002802002028020020300200203002002016
:101E940038020020380200204002002040020020C6
:101EA4004802002048020020500200205002002076
:101EB4005802002058020020600200206002002026
:101EC40068020020680200207002002070020020D6
:101ED4007802002078020020800200208002002086
:101EE4008802002088020020900200209002002036
:101EF4009802002098020020A0020020A0020020E6
:101F0400A8020020A8020020B0020020B002002095
:101F1400B8020020B8020020C0020020C002002045
:101F2400C8020020C8020020D0020020D0020020F5
:101F3400D8020020D8020020E0020020E0020020A5
:101F4400E8020020E8020020F0020020F002002055
:101F5400F8020020F8020020000300200003002003
:101F640008030020080300201003002010030020B1
:101F74001803002018030020200300202003002061
:101F84002803002028030020300300203003002011
:101F940038030020380300204003002040030020C1
:101FA4004803002048030020500300205003002071
:101FB4005803002058030020600300206003002021
:101FC40068030020680300207003002070030020D1
:101FD4007803002078030020800300208003002081
:101FE4008803002088030020900300209003002031
:101FF4009803002098030020A0030020A0030020E1
:10200400A8030020A8030020B0030020B003002090
:10201400B8030020B8030020C0030020C003002040
:10202400C8030020C8030020D0030020D0030020F0
:10203400D8030020D8030020E0030020E0030020A0
:10204400E8030020E8030020F0030020F003002050
:10205400F8030020F80300200004002000040020FE
:1020640008040020080400201004002010040020AC
:10207400180400201804002020040020200400205C
:10208400280400202804002030040020300400200C
:1020940038040020380400204004002040040020BC
:1020A400480400204804002050040020500400206C
:1020B400580400205804002060040020600400201C
:1020C40068040020680400207004002070040020CC
:1020D400780400207804002080040020800400207C
:1020E400880400208804002090040020900400202C
:1020F4009804002098040020A0040020A0040020DC
:10210400A8040020A8040020B0040020B00400208B
:10211400B8040020B8040020C0040020C00400203B
:10212400C8040020C8040020D0040020D0040020EB
:10213400D8040020D8040020E0040020E00400209B
:10214400E8040020E8040020F0040020F00400204B
:10215400F8040020F80400200005002000050020F9
:1021640008050020080500201005002010050020A7
:102174001805002018050020200500202005002057
:102184002805002028050020300500203005002007
:1021940038050020380500204005002040050020B7
:1021A4004805002048050020500500205005002067
:1021B4005805002058050020600500206005002017
:1021C40068050020680500207005002070050020C7
:1021D4007805002078050020800500208005002077
:1021E4008805002088050020900500209005002027
:1021F4009805002098050020A0050020A0050020D7
:10220400A8050020A8050020B0050020B005002086
:10221400B8050020B8050020C0050020C005002036
:10222400C8050020C8050020D0050020D0050020E6
:10223400D8050020D8050020E0050020E005002096
:10224400E8050020E8050020F0050020F005002046
:10225400F8050020F80500200006002000060020F4
:1022640008060020080600201006002010060020A2
:102274001806002018060020200600202006002052
:0C228400FD0B0000690200004102000098
:0400000300000539BB
:00000001FF
